{"contracts/ValidationRegistry.sol":{"ValidationRegistry":{"abi":[{"inputs":[{"internalType":"address","name":"_identityRegistry","type":"address"}],"stateMutability":"nonpayable","type":"constructor"},{"inputs":[],"name":"AgentNotFound","type":"error"},{"inputs":[],"name":"InvalidDataHash","type":"error"},{"inputs":[],"name":"InvalidResponse","type":"error"},{"inputs":[],"name":"RequestExpired","type":"error"},{"inputs":[],"name":"UnauthorizedValidator","type":"error"},{"inputs":[],"name":"ValidationAlreadyResponded","type":"error"},{"inputs":[],"name":"ValidationRequestNotFound","type":"error"},{"anonymous":false,"inputs":[{"indexed":true,"internalType":"uint256","name":"agentValidatorId","type":"uint256"},{"indexed":true,"internalType":"uint256","name":"agentServerId","type":"uint256"},{"indexed":true,"internalType":"bytes32","name":"dataHash","type":"bytes32"}],"name":"ValidationRequestEvent","type":"event"},{"anonymous":false,"inputs":[{"indexed":true,"internalType":"uint256","name":"agentValidatorId","type":"uint256"},{"indexed":true,"internalType":"uint256","name":"agentServerId","type":"uint256"},{"indexed":true,"internalType":"bytes32","name":"dataHash","type":"bytes32"},{"indexed":false,"internalType":"uint8","name":"response","type":"uint8"}],"name":"ValidationResponseEvent","type":"event"},{"inputs":[],"name":"EXPIRATION_SLOTS","outputs":[{"internalType":"uint256","name":"","type":"uint256"}],"stateMutability":"view","type":"function"},{"inputs":[],"name":"getExpirationSlots","outputs":[{"internalType":"uint256","name":"slots","type":"uint256"}],"stateMutability":"pure","type":"function"},{"inputs":[{"internalType":"bytes32","name":"dataHash","type":"bytes32"}],"name":"getValidationRequest","outputs":[{"components":[{"internalType":"uint256","name":"agentValidatorId","type":"uint256"},{"internalType":"uint256","name":"agentServerId","type":"uint256"},{"internalType":"bytes32","name":"dataHash","type":"bytes32"},{"internalType":"uint256","name":"timestamp","type":"uint256"},{"internalType":"bool","name":"responded","type":"bool"}],"internalType":"struct IValidationRegistry.Request","name":"request","type":"tuple"}],"stateMutability":"view","type":"function"},{"inputs":[{"internalType":"bytes32","name":"dataHash","type":"bytes32"}],"name":"getValidationResponse","outputs":[{"internalType":"bool","name":"hasResponse","type":"bool"},{"internalType":"uint8","name":"response","type":"uint8"}],"stateMutability":"view","type":"function"},{"inputs":[],"name":"identityRegistry","outputs":[{"internalType":"contract IIdentityRegistry","name":"","type":"address"}],"stateMutability":"view","type":"function"},{"inputs":[{"internalType":"bytes32","name":"dataHash","type":"bytes32"}],"name":"isValidationPending","outputs":[{"internalType":"bool","name":"exists","type":"bool"},{"internalType":"bool","name":"pending","type":"bool"}],"stateMutability":"view","type":"function"},{"inputs":[{"internalType":"uint256","name":"agentValidatorId","type":"uint256"},{"internalType":"uint256","name":"agentServerId","type":"uint256"},{"internalType":"bytes32","name":"dataHash","type":"bytes32"}],"name":"validationRequest","outputs":[],"stateMutability":"nonpayable","type":"function"},{"inputs":[{"internalType":"bytes32","name":"dataHash","type":"bytes32"},{"internalType":"uint8","name":"response","type":"uint8"}],"name":"validationResponse","outputs":[],"stateMutability":"nonpayable","type":"function"}],"evm":{"bytecode":{"linkReferences":{},"object":"60a060405234801561001057600080fd5b50604051610a5e380380610a5e83398101604081905261002f91610040565b6001600160a01b0316608052610070565b60006020828403121561005257600080fd5b81516001600160a01b038116811461006957600080fd5b9392505050565b6080516109bf61009f6000396000818160920152818161028e0152818161044a01526104f001526109bf6000f3fe608060405234801561001057600080fd5b50600436106100885760003560e01c80636cc199691161005b5780636cc19969146101275780639748c8cb1461012f578063c941b16114610142578063d097037a1461016e57600080fd5b8063134e18f41461008d5780634146624a146100d1578063625123da146100e65780636677174c14610110575b600080fd5b6100b47f000000000000000000000000000000000000000000000000000000000000000081565b6040516001600160a01b0390911681526020015b60405180910390f35b6100e46100df366004610747565b6101c5565b005b6100f96100f436600461077d565b6103c5565b6040805192151583529015156020830152016100c8565b6101196103e881565b6040519081526020016100c8565b6103e8610119565b6100e461013d366004610796565b610416565b61015561015036600461077d565b61067b565b60408051921515835260ff9091166020830152016100c8565b61018161017c36600461077d565b6106ad565b6040516100c89190600060a0820190508251825260208301516020830152604083015160408301526060830151606083015260808301511515608083015292915050565b60648160ff1611156101ea5760405163c715138d60e01b815260040160405180910390fd5b6000828152602081905260409020600281015461021a576040516337abe69b60e11b815260040160405180910390fd5b6103e8816003015461022c91906107c2565b43111561024c57604051637f780e6960e11b815260040160405180910390fd5b600481015460ff16156102725760405163d22b40c560e01b815260040160405180910390fd5b8054604051632de5aaf760e01b81526000916001600160a01b037f00000000000000000000000000000000000000000000000000000000000000001691632de5aaf7916102c59160040190815260200190565b600060405180830381865afa1580156102e2573d6000803e3d6000fd5b505050506040513d6000823e601f3d908101601f1916820160405261030a9190810190610870565b905080604001516001600160a01b0316336001600160a01b0316146103425760405163423057c560e11b815260040160405180910390fd5b600482018054600160ff1991821681179092556000868152602083815260408083208054851660ff8a16908117909155600283529281902080549094168517909355928501548554925191825287939092917f2f1d7a4e773d3a02a2db8d4ba16df1476ec97974bbc93c41427689f236664f1b910160405180910390a450505050565b600081815260208190526040812060028101541580159291906104105760006103e882600301546103f691906107c2565b4311905080158161040c5750600482015460ff16155b9250505b50915091565b8061043457604051633b8f85f760e21b815260040160405180910390fd5b60405163de99f15760e01b8152600481018490527f00000000000000000000000000000000000000000000000000000000000000006001600160a01b03169063de99f15790602401602060405180830381865afa158015610499573d6000803e3d6000fd5b505050506040513d601f19601f820116820180604052508101906104bd9190610960565b6104da5760405163e93ba22360e01b815260040160405180910390fd5b60405163de99f15760e01b8152600481018390527f00000000000000000000000000000000000000000000000000000000000000006001600160a01b03169063de99f15790602401602060405180830381865afa15801561053f573d6000803e3d6000fd5b505050506040513d601f19601f820116820180604052508101906105639190610960565b6105805760405163e93ba22360e01b815260040160405180910390fd5b60008181526020819052604090206002810154156105e5576103e881600301546105aa91906107c2565b43116105e5578183857f3fcaa5f72d6fb1deb76744afac4fbc92c823e52ffcf39ad2cdd9da66a80b519660405160405180910390a450505050565b6040805160a081018252858152602080820186815282840186815243606085019081526000608086018181528982529481905286812095518655925160018601559051600285015551600384015590516004909201805460ff19169215159290921790915590518391859187917f3fcaa5f72d6fb1deb76744afac4fbc92c823e52ffcf39ad2cdd9da66a80b519691a450505050565b60008181526002602052604081205460ff169081156106a8575060008281526001602052604090205460ff165b915091565b6040805160a0810182526000808252602082018190529181018290526060810182905260808101919091525060008181526020818152604091829020825160a081018452815481526001820154928101929092526002810154928201839052600381015460608301526004015460ff161515608082015290610742576040516337abe69b60e11b815260040160405180910390fd5b919050565b6000806040838503121561075a57600080fd5b82359150602083013560ff8116811461077257600080fd5b809150509250929050565b60006020828403121561078f57600080fd5b5035919050565b6000806000606084860312156107ab57600080fd5b505081359360208301359350604090920135919050565b808201808211156107e357634e487b7160e01b600052601160045260246000fd5b92915050565b634e487b7160e01b600052604160045260246000fd5b6040516060810167ffffffffffffffff81118282101715610822576108226107e9565b60405290565b604051601f8201601f1916810167ffffffffffffffff81118282101715610851576108516107e9565b604052919050565b80516001600160a01b038116811461074257600080fd5b6000602080838503121561088357600080fd5b825167ffffffffffffffff8082111561089b57600080fd5b90840190606082870312156108af57600080fd5b6108b76107ff565b8251815283830151828111156108cc57600080fd5b8301601f810188136108dd57600080fd5b8051838111156108ef576108ef6107e9565b610901601f8201601f19168701610828565b9350808452888682840101111561091757600080fd5b60005b8181101561093557828101870151858201880152860161091a565b5060008682860101525050818482015261095160408401610859565b60408201529695505050505050565b60006020828403121561097257600080fd5b8151801515811461098257600080fd5b939250505056fea26469706673582212207ba00d9574d1cc1ebb8b1a4328428663b9e327eeb5c8b120510f02445286f46264736f6c63430008130033","opcodes":"PUSH1 0xA0 PUSH1 0x40 MSTORE CALLVALUE DUP1 ISZERO PUSH2 0x10 JUMPI PUSH1 0x0 DUP1 REVERT JUMPDEST POP PUSH1 0x40 MLOAD PUSH2 0xA5E CODESIZE SUB DUP1 PUSH2 0xA5E DUP4 CODECOPY DUP2 ADD PUSH1 0x40 DUP2 SWAP1 MSTORE PUSH2 0x2F SWAP2 PUSH2 0x40 JUMP JUMPDEST PUSH1 0x1 PUSH1 0x1 PUSH1 0xA0 SHL SUB AND PUSH1 0x80 MSTORE PUSH2 0x70 JUMP JUMPDEST PUSH1 0x0 PUSH1 0x20 DUP3 DUP5 SUB SLT ISZERO PUSH2 0x52 JUMPI PUSH1 0x0 DUP1 REVERT JUMPDEST DUP2 MLOAD PUSH1 0x1 PUSH1 0x1 PUSH1 0xA0 SHL SUB DUP2 AND DUP2 EQ PUSH2 0x69 JUMPI PUSH1 0x0 DUP1 REVERT JUMPDEST SWAP4 SWAP3 POP POP POP JUMP JUMPDEST PUSH1 0x80 MLOAD PUSH2 0x9BF PUSH2 0x9F PUSH1 0x0 CODECOPY PUSH1 0x0 DUP2 DUP2 PUSH1 0x92 ADD MSTORE DUP2 DUP2 PUSH2 0x28E ADD MSTORE DUP2 DUP2 PUSH2 0x44A ADD MSTORE PUSH2 0x4F0 ADD MSTORE PUSH2 0x9BF PUSH1 0x0 RETURN INVALID PUSH1 0x80 PUSH1 0x40 MSTORE CALLVALUE DUP1 ISZERO PUSH2 0x10 JUMPI PUSH1 0x0 DUP1 REVERT JUMPDEST POP PUSH1 0x4 CALLDATASIZE LT PUSH2 0x88 JUMPI PUSH1 0x0 CALLDATALOAD PUSH1 0xE0 SHR DUP1 PUSH4 0x6CC19969 GT PUSH2 0x5B JUMPI DUP1 PUSH4 0x6CC19969 EQ PUSH2 0x127 JUMPI DUP1 PUSH4 0x9748C8CB EQ PUSH2 0x12F JUMPI DUP1 PUSH4 0xC941B161 EQ PUSH2 0x142 JUMPI DUP1 PUSH4 0xD097037A EQ PUSH2 0x16E JUMPI PUSH1 0x0 DUP1 REVERT JUMPDEST DUP1 PUSH4 0x134E18F4 EQ PUSH2 0x8D JUMPI DUP1 PUSH4 0x4146624A EQ PUSH2 0xD1 JUMPI DUP1 PUSH4 0x625123DA EQ PUSH2 0xE6 JUMPI DUP1 PUSH4 0x6677174C EQ PUSH2 0x110 JUMPI JUMPDEST PUSH1 0x0 DUP1 REVERT JUMPDEST PUSH2 0xB4 PUSH32 0x0 DUP2 JUMP JUMPDEST PUSH1 0x40 MLOAD PUSH1 0x1 PUSH1 0x1 PUSH1 0xA0 SHL SUB SWAP1 SWAP2 AND DUP2 MSTORE PUSH1 0x20 ADD JUMPDEST PUSH1 0x40 MLOAD DUP1 SWAP2 SUB SWAP1 RETURN JUMPDEST PUSH2 0xE4 PUSH2 0xDF CALLDATASIZE PUSH1 0x4 PUSH2 0x747 JUMP JUMPDEST PUSH2 0x1C5 JUMP JUMPDEST STOP JUMPDEST PUSH2 0xF9 PUSH2 0xF4 CALLDATASIZE PUSH1 0x4 PUSH2 0x77D JUMP JUMPDEST PUSH2 0x3C5 JUMP JUMPDEST PUSH1 0x40 DUP1 MLOAD SWAP3 ISZERO ISZERO DUP4 MSTORE SWAP1 ISZERO ISZERO PUSH1 0x20 DUP4 ADD MSTORE ADD PUSH2 0xC8 JUMP JUMPDEST PUSH2 0x119 PUSH2 0x3E8 DUP2 JUMP JUMPDEST PUSH1 0x40 MLOAD SWAP1 DUP2 MSTORE PUSH1 0x20 ADD PUSH2 0xC8 JUMP JUMPDEST PUSH2 0x3E8 PUSH2 0x119 JUMP JUMPDEST PUSH2 0xE4 PUSH2 0x13D CALLDATASIZE PUSH1 0x4 PUSH2 0x796 JUMP JUMPDEST PUSH2 0x416 JUMP JUMPDEST PUSH2 0x155 PUSH2 0x150 CALLDATASIZE PUSH1 0x4 PUSH2 0x77D JUMP JUMPDEST PUSH2 0x67B JUMP JUMPDEST PUSH1 0x40 DUP1 MLOAD SWAP3 ISZERO ISZERO DUP4 MSTORE PUSH1 0xFF SWAP1 SWAP2 AND PUSH1 0x20 DUP4 ADD MSTORE ADD PUSH2 0xC8 JUMP JUMPDEST PUSH2 0x181 PUSH2 0x17C CALLDATASIZE PUSH1 0x4 PUSH2 0x77D JUMP JUMPDEST PUSH2 0x6AD JUMP JUMPDEST PUSH1 0x40 MLOAD PUSH2 0xC8 SWAP2 SWAP1 PUSH1 0x0 PUSH1 0xA0 DUP3 ADD SWAP1 POP DUP3 MLOAD DUP3 MSTORE PUSH1 0x20 DUP4 ADD MLOAD PUSH1 0x20 DUP4 ADD MSTORE PUSH1 0x40 DUP4 ADD MLOAD PUSH1 0x40 DUP4 ADD MSTORE PUSH1 0x60 DUP4 ADD MLOAD PUSH1 0x60 DUP4 ADD MSTORE PUSH1 0x80 DUP4 ADD MLOAD ISZERO ISZERO PUSH1 0x80 DUP4 ADD MSTORE SWAP3 SWAP2 POP POP JUMP JUMPDEST PUSH1 0x64 DUP2 PUSH1 0xFF AND GT ISZERO PUSH2 0x1EA JUMPI PUSH1 0x40 MLOAD PUSH4 0xC715138D PUSH1 0xE0 SHL DUP2 MSTORE PUSH1 0x4 ADD PUSH1 0x40 MLOAD DUP1 SWAP2 SUB SWAP1 REVERT JUMPDEST PUSH1 0x0 DUP3 DUP2 MSTORE PUSH1 0x20 DUP2 SWAP1 MSTORE PUSH1 0x40 SWAP1 KECCAK256 PUSH1 0x2 DUP2 ADD SLOAD PUSH2 0x21A JUMPI PUSH1 0x40 MLOAD PUSH4 0x37ABE69B PUSH1 0xE1 SHL DUP2 MSTORE PUSH1 0x4 ADD PUSH1 0x40 MLOAD DUP1 SWAP2 SUB SWAP1 REVERT JUMPDEST PUSH2 0x3E8 DUP2 PUSH1 0x3 ADD SLOAD PUSH2 0x22C SWAP2 SWAP1 PUSH2 0x7C2 JUMP JUMPDEST NUMBER GT ISZERO PUSH2 0x24C JUMPI PUSH1 0x40 MLOAD PUSH4 0x7F780E69 PUSH1 0xE1 SHL DUP2 MSTORE PUSH1 0x4 ADD PUSH1 0x40 MLOAD DUP1 SWAP2 SUB SWAP1 REVERT JUMPDEST PUSH1 0x4 DUP2 ADD SLOAD PUSH1 0xFF AND ISZERO PUSH2 0x272 JUMPI PUSH1 0x40 MLOAD PUSH4 0xD22B40C5 PUSH1 0xE0 SHL DUP2 MSTORE PUSH1 0x4 ADD PUSH1 0x40 MLOAD DUP1 SWAP2 SUB SWAP1 REVERT JUMPDEST DUP1 SLOAD PUSH1 0x40 MLOAD PUSH4 0x2DE5AAF7 PUSH1 0xE0 SHL DUP2 MSTORE PUSH1 0x0 SWAP2 PUSH1 0x1 PUSH1 0x1 PUSH1 0xA0 SHL SUB PUSH32 0x0 AND SWAP2 PUSH4 0x2DE5AAF7 SWAP2 PUSH2 0x2C5 SWAP2 PUSH1 0x4 ADD SWAP1 DUP2 MSTORE PUSH1 0x20 ADD SWAP1 JUMP JUMPDEST PUSH1 0x0 PUSH1 0x40 MLOAD DUP1 DUP4 SUB DUP2 DUP7 GAS STATICCALL ISZERO DUP1 ISZERO PUSH2 0x2E2 JUMPI RETURNDATASIZE PUSH1 0x0 DUP1 RETURNDATACOPY RETURNDATASIZE PUSH1 0x0 REVERT JUMPDEST POP POP POP POP PUSH1 0x40 MLOAD RETURNDATASIZE PUSH1 0x0 DUP3 RETURNDATACOPY PUSH1 0x1F RETURNDATASIZE SWAP1 DUP2 ADD PUSH1 0x1F NOT AND DUP3 ADD PUSH1 0x40 MSTORE PUSH2 0x30A SWAP2 SWAP1 DUP2 ADD SWAP1 PUSH2 0x870 JUMP JUMPDEST SWAP1 POP DUP1 PUSH1 0x40 ADD MLOAD PUSH1 0x1 PUSH1 0x1 PUSH1 0xA0 SHL SUB AND CALLER PUSH1 0x1 PUSH1 0x1 PUSH1 0xA0 SHL SUB AND EQ PUSH2 0x342 JUMPI PUSH1 0x40 MLOAD PUSH4 0x423057C5 PUSH1 0xE1 SHL DUP2 MSTORE PUSH1 0x4 ADD PUSH1 0x40 MLOAD DUP1 SWAP2 SUB SWAP1 REVERT JUMPDEST PUSH1 0x4 DUP3 ADD DUP1 SLOAD PUSH1 0x1 PUSH1 0xFF NOT SWAP2 DUP3 AND DUP2 OR SWAP1 SWAP3 SSTORE PUSH1 0x0 DUP7 DUP2 MSTORE PUSH1 0x20 DUP4 DUP2 MSTORE PUSH1 0x40 DUP1 DUP4 KECCAK256 DUP1 SLOAD DUP6 AND PUSH1 0xFF DUP11 AND SWAP1 DUP2 OR SWAP1 SWAP2 SSTORE PUSH1 0x2 DUP4 MSTORE SWAP3 DUP2 SWAP1 KECCAK256 DUP1 SLOAD SWAP1 SWAP5 AND DUP6 OR SWAP1 SWAP4 SSTORE SWAP3 DUP6 ADD SLOAD DUP6 SLOAD SWAP3 MLOAD SWAP2 DUP3 MSTORE DUP8 SWAP4 SWAP1 SWAP3 SWAP2 PUSH32 0x2F1D7A4E773D3A02A2DB8D4BA16DF1476EC97974BBC93C41427689F236664F1B SWAP2 ADD PUSH1 0x40 MLOAD DUP1 SWAP2 SUB SWAP1 LOG4 POP POP POP POP JUMP JUMPDEST PUSH1 0x0 DUP2 DUP2 MSTORE PUSH1 0x20 DUP2 SWAP1 MSTORE PUSH1 0x40 DUP2 KECCAK256 PUSH1 0x2 DUP2 ADD SLOAD ISZERO DUP1 ISZERO SWAP3 SWAP2 SWAP1 PUSH2 0x410 JUMPI PUSH1 0x0 PUSH2 0x3E8 DUP3 PUSH1 0x3 ADD SLOAD PUSH2 0x3F6 SWAP2 SWAP1 PUSH2 0x7C2 JUMP JUMPDEST NUMBER GT SWAP1 POP DUP1 ISZERO DUP2 PUSH2 0x40C JUMPI POP PUSH1 0x4 DUP3 ADD SLOAD PUSH1 0xFF AND ISZERO JUMPDEST SWAP3 POP POP JUMPDEST POP SWAP2 POP SWAP2 JUMP JUMPDEST DUP1 PUSH2 0x434 JUMPI PUSH1 0x40 MLOAD PUSH4 0x3B8F85F7 PUSH1 0xE2 SHL DUP2 MSTORE PUSH1 0x4 ADD PUSH1 0x40 MLOAD DUP1 SWAP2 SUB SWAP1 REVERT JUMPDEST PUSH1 0x40 MLOAD PUSH4 0xDE99F157 PUSH1 0xE0 SHL DUP2 MSTORE PUSH1 0x4 DUP2 ADD DUP5 SWAP1 MSTORE PUSH32 0x0 PUSH1 0x1 PUSH1 0x1 PUSH1 0xA0 SHL SUB AND SWAP1 PUSH4 0xDE99F157 SWAP1 PUSH1 0x24 ADD PUSH1 0x20 PUSH1 0x40 MLOAD DUP1 DUP4 SUB DUP2 DUP7 GAS STATICCALL ISZERO DUP1 ISZERO PUSH2 0x499 JUMPI RETURNDATASIZE PUSH1 0x0 DUP1 RETURNDATACOPY RETURNDATASIZE PUSH1 0x0 REVERT JUMPDEST POP POP POP POP PUSH1 0x40 MLOAD RETURNDATASIZE PUSH1 0x1F NOT PUSH1 0x1F DUP3 ADD AND DUP3 ADD DUP1 PUSH1 0x40 MSTORE POP DUP2 ADD SWAP1 PUSH2 0x4BD SWAP2 SWAP1 PUSH2 0x960 JUMP JUMPDEST PUSH2 0x4DA JUMPI PUSH1 0x40 MLOAD PUSH4 0xE93BA223 PUSH1 0xE0 SHL DUP2 MSTORE PUSH1 0x4 ADD PUSH1 0x40 MLOAD DUP1 SWAP2 SUB SWAP1 REVERT JUMPDEST PUSH1 0x40 MLOAD PUSH4 0xDE99F157 PUSH1 0xE0 SHL DUP2 MSTORE PUSH1 0x4 DUP2 ADD DUP4 SWAP1 MSTORE PUSH32 0x0 PUSH1 0x1 PUSH1 0x1 PUSH1 0xA0 SHL SUB AND SWAP1 PUSH4 0xDE99F157 SWAP1 PUSH1 0x24 ADD PUSH1 0x20 PUSH1 0x40 MLOAD DUP1 DUP4 SUB DUP2 DUP7 GAS STATICCALL ISZERO DUP1 ISZERO PUSH2 0x53F JUMPI RETURNDATASIZE PUSH1 0x0 DUP1 RETURNDATACOPY RETURNDATASIZE PUSH1 0x0 REVERT JUMPDEST POP POP POP POP PUSH1 0x40 MLOAD RETURNDATASIZE PUSH1 0x1F NOT PUSH1 0x1F DUP3 ADD AND DUP3 ADD DUP1 PUSH1 0x40 MSTORE POP DUP2 ADD SWAP1 PUSH2 0x563 SWAP2 SWAP1 PUSH2 0x960 JUMP JUMPDEST PUSH2 0x580 JUMPI PUSH1 0x40 MLOAD PUSH4 0xE93BA223 PUSH1 0xE0 SHL DUP2 MSTORE PUSH1 0x4 ADD PUSH1 0x40 MLOAD DUP1 SWAP2 SUB SWAP1 REVERT JUMPDEST PUSH1 0x0 DUP2 DUP2 MSTORE PUSH1 0x20 DUP2 SWAP1 MSTORE PUSH1 0x40 SWAP1 KECCAK256 PUSH1 0x2 DUP2 ADD SLOAD ISZERO PUSH2 0x5E5 JUMPI PUSH2 0x3E8 DUP2 PUSH1 0x3 ADD SLOAD PUSH2 0x5AA SWAP2 SWAP1 PUSH2 0x7C2 JUMP JUMPDEST NUMBER GT PUSH2 0x5E5 JUMPI DUP2 DUP4 DUP6 PUSH32 0x3FCAA5F72D6FB1DEB76744AFAC4FBC92C823E52FFCF39AD2CDD9DA66A80B5196 PUSH1 0x40 MLOAD PUSH1 0x40 MLOAD DUP1 SWAP2 SUB SWAP1 LOG4 POP POP POP POP JUMP JUMPDEST PUSH1 0x40 DUP1 MLOAD PUSH1 0xA0 DUP2 ADD DUP3 MSTORE DUP6 DUP2 MSTORE PUSH1 0x20 DUP1 DUP3 ADD DUP7 DUP2 MSTORE DUP3 DUP5 ADD DUP7 DUP2 MSTORE NUMBER PUSH1 0x60 DUP6 ADD SWAP1 DUP2 MSTORE PUSH1 0x0 PUSH1 0x80 DUP7 ADD DUP2 DUP2 MSTORE DUP10 DUP3 MSTORE SWAP5 DUP2 SWAP1 MSTORE DUP7 DUP2 KECCAK256 SWAP6 MLOAD DUP7 SSTORE SWAP3 MLOAD PUSH1 0x1 DUP7 ADD SSTORE SWAP1 MLOAD PUSH1 0x2 DUP6 ADD SSTORE MLOAD PUSH1 0x3 DUP5 ADD SSTORE SWAP1 MLOAD PUSH1 0x4 SWAP1 SWAP3 ADD DUP1 SLOAD PUSH1 0xFF NOT AND SWAP3 ISZERO ISZERO SWAP3 SWAP1 SWAP3 OR SWAP1 SWAP2 SSTORE SWAP1 MLOAD DUP4 SWAP2 DUP6 SWAP2 DUP8 SWAP2 PUSH32 0x3FCAA5F72D6FB1DEB76744AFAC4FBC92C823E52FFCF39AD2CDD9DA66A80B5196 SWAP2 LOG4 POP POP POP POP JUMP JUMPDEST PUSH1 0x0 DUP2 DUP2 MSTORE PUSH1 0x2 PUSH1 0x20 MSTORE PUSH1 0x40 DUP2 KECCAK256 SLOAD PUSH1 0xFF AND SWAP1 DUP2 ISZERO PUSH2 0x6A8 JUMPI POP PUSH1 0x0 DUP3 DUP2 MSTORE PUSH1 0x1 PUSH1 0x20 MSTORE PUSH1 0x40 SWAP1 KECCAK256 SLOAD PUSH1 0xFF AND JUMPDEST SWAP2 POP SWAP2 JUMP JUMPDEST PUSH1 0x40 DUP1 MLOAD PUSH1 0xA0 DUP2 ADD DUP3 MSTORE PUSH1 0x0 DUP1 DUP3 MSTORE PUSH1 0x20 DUP3 ADD DUP2 SWAP1 MSTORE SWAP2 DUP2 ADD DUP3 SWAP1 MSTORE PUSH1 0x60 DUP2 ADD DUP3 SWAP1 MSTORE PUSH1 0x80 DUP2 ADD SWAP2 SWAP1 SWAP2 MSTORE POP PUSH1 0x0 DUP2 DUP2 MSTORE PUSH1 0x20 DUP2 DUP2 MSTORE PUSH1 0x40 SWAP2 DUP3 SWAP1 KECCAK256 DUP3 MLOAD PUSH1 0xA0 DUP2 ADD DUP5 MSTORE DUP2 SLOAD DUP2 MSTORE PUSH1 0x1 DUP3 ADD SLOAD SWAP3 DUP2 ADD SWAP3 SWAP1 SWAP3 MSTORE PUSH1 0x2 DUP2 ADD SLOAD SWAP3 DUP3 ADD DUP4 SWAP1 MSTORE PUSH1 0x3 DUP2 ADD SLOAD PUSH1 0x60 DUP4 ADD MSTORE PUSH1 0x4 ADD SLOAD PUSH1 0xFF AND ISZERO ISZERO PUSH1 0x80 DUP3 ADD MSTORE SWAP1 PUSH2 0x742 JUMPI PUSH1 0x40 MLOAD PUSH4 0x37ABE69B PUSH1 0xE1 SHL DUP2 MSTORE PUSH1 0x4 ADD PUSH1 0x40 MLOAD DUP1 SWAP2 SUB SWAP1 REVERT JUMPDEST SWAP2 SWAP1 POP JUMP JUMPDEST PUSH1 0x0 DUP1 PUSH1 0x40 DUP4 DUP6 SUB SLT ISZERO PUSH2 0x75A JUMPI PUSH1 0x0 DUP1 REVERT JUMPDEST DUP3 CALLDATALOAD SWAP2 POP PUSH1 0x20 DUP4 ADD CALLDATALOAD PUSH1 0xFF DUP2 AND DUP2 EQ PUSH2 0x772 JUMPI PUSH1 0x0 DUP1 REVERT JUMPDEST DUP1 SWAP2 POP POP SWAP3 POP SWAP3 SWAP1 POP JUMP JUMPDEST PUSH1 0x0 PUSH1 0x20 DUP3 DUP5 SUB SLT ISZERO PUSH2 0x78F JUMPI PUSH1 0x0 DUP1 REVERT JUMPDEST POP CALLDATALOAD SWAP2 SWAP1 POP JUMP JUMPDEST PUSH1 0x0 DUP1 PUSH1 0x0 PUSH1 0x60 DUP5 DUP7 SUB SLT ISZERO PUSH2 0x7AB JUMPI PUSH1 0x0 DUP1 REVERT JUMPDEST POP POP DUP2 CALLDATALOAD SWAP4 PUSH1 0x20 DUP4 ADD CALLDATALOAD SWAP4 POP PUSH1 0x40 SWAP1 SWAP3 ADD CALLDATALOAD SWAP2 SWAP1 POP JUMP JUMPDEST DUP1 DUP3 ADD DUP1 DUP3 GT ISZERO PUSH2 0x7E3 JUMPI PUSH4 0x4E487B71 PUSH1 0xE0 SHL PUSH1 0x0 MSTORE PUSH1 0x11 PUSH1 0x4 MSTORE PUSH1 0x24 PUSH1 0x0 REVERT JUMPDEST SWAP3 SWAP2 POP POP JUMP JUMPDEST PUSH4 0x4E487B71 PUSH1 0xE0 SHL PUSH1 0x0 MSTORE PUSH1 0x41 PUSH1 0x4 MSTORE PUSH1 0x24 PUSH1 0x0 REVERT JUMPDEST PUSH1 0x40 MLOAD PUSH1 0x60 DUP2 ADD PUSH8 0xFFFFFFFFFFFFFFFF DUP2 GT DUP3 DUP3 LT OR ISZERO PUSH2 0x822 JUMPI PUSH2 0x822 PUSH2 0x7E9 JUMP JUMPDEST PUSH1 0x40 MSTORE SWAP1 JUMP JUMPDEST PUSH1 0x40 MLOAD PUSH1 0x1F DUP3 ADD PUSH1 0x1F NOT AND DUP2 ADD PUSH8 0xFFFFFFFFFFFFFFFF DUP2 GT DUP3 DUP3 LT OR ISZERO PUSH2 0x851 JUMPI PUSH2 0x851 PUSH2 0x7E9 JUMP JUMPDEST PUSH1 0x40 MSTORE SWAP2 SWAP1 POP JUMP JUMPDEST DUP1 MLOAD PUSH1 0x1 PUSH1 0x1 PUSH1 0xA0 SHL SUB DUP2 AND DUP2 EQ PUSH2 0x742 JUMPI PUSH1 0x0 DUP1 REVERT JUMPDEST PUSH1 0x0 PUSH1 0x20 DUP1 DUP4 DUP6 SUB SLT ISZERO PUSH2 0x883 JUMPI PUSH1 0x0 DUP1 REVERT JUMPDEST DUP3 MLOAD PUSH8 0xFFFFFFFFFFFFFFFF DUP1 DUP3 GT ISZERO PUSH2 0x89B JUMPI PUSH1 0x0 DUP1 REVERT JUMPDEST SWAP1 DUP5 ADD SWAP1 PUSH1 0x60 DUP3 DUP8 SUB SLT ISZERO PUSH2 0x8AF JUMPI PUSH1 0x0 DUP1 REVERT JUMPDEST PUSH2 0x8B7 PUSH2 0x7FF JUMP JUMPDEST DUP3 MLOAD DUP2 MSTORE DUP4 DUP4 ADD MLOAD DUP3 DUP2 GT ISZERO PUSH2 0x8CC JUMPI PUSH1 0x0 DUP1 REVERT JUMPDEST DUP4 ADD PUSH1 0x1F DUP2 ADD DUP9 SGT PUSH2 0x8DD JUMPI PUSH1 0x0 DUP1 REVERT JUMPDEST DUP1 MLOAD DUP4 DUP2 GT ISZERO PUSH2 0x8EF JUMPI PUSH2 0x8EF PUSH2 0x7E9 JUMP JUMPDEST PUSH2 0x901 PUSH1 0x1F DUP3 ADD PUSH1 0x1F NOT AND DUP8 ADD PUSH2 0x828 JUMP JUMPDEST SWAP4 POP DUP1 DUP5 MSTORE DUP9 DUP7 DUP3 DUP5 ADD ADD GT ISZERO PUSH2 0x917 JUMPI PUSH1 0x0 DUP1 REVERT JUMPDEST PUSH1 0x0 JUMPDEST DUP2 DUP2 LT ISZERO PUSH2 0x935 JUMPI DUP3 DUP2 ADD DUP8 ADD MLOAD DUP6 DUP3 ADD DUP9 ADD MSTORE DUP7 ADD PUSH2 0x91A JUMP JUMPDEST POP PUSH1 0x0 DUP7 DUP3 DUP7 ADD ADD MSTORE POP POP DUP2 DUP5 DUP3 ADD MSTORE PUSH2 0x951 PUSH1 0x40 DUP5 ADD PUSH2 0x859 JUMP JUMPDEST PUSH1 0x40 DUP3 ADD MSTORE SWAP7 SWAP6 POP POP POP POP POP POP JUMP JUMPDEST PUSH1 0x0 PUSH1 0x20 DUP3 DUP5 SUB SLT ISZERO PUSH2 0x972 JUMPI PUSH1 0x0 DUP1 REVERT JUMPDEST DUP2 MLOAD DUP1 ISZERO ISZERO DUP2 EQ PUSH2 0x982 JUMPI PUSH1 0x0 DUP1 REVERT JUMPDEST SWAP4 SWAP3 POP POP POP JUMP INVALID LOG2 PUSH5 0x6970667358 0x22 SLT KECCAK256 PUSH28 0xA00D9574D1CC1EBB8B1A4328428663B9E327EEB5C8B120510F024452 DUP7 DELEGATECALL PUSH3 0x64736F PUSH13 0x63430008130033000000000000 "},"methodIdentifiers":{"EXPIRATION_SLOTS()":"6677174c","getExpirationSlots()":"6cc19969","getValidationRequest(bytes32)":"d097037a","getValidationResponse(bytes32)":"c941b161","identityRegistry()":"134e18f4","isValidationPending(bytes32)":"625123da","validationRequest(uint256,uint256,bytes32)":"9748c8cb","validationResponse(bytes32,uint8)":"4146624a"}}}}}