{"contracts/IdentityRegistry.sol":{"IdentityRegistry":{"abi":[{"inputs":[{"internalType":"address","name":"_reputationRegistry","type":"address"},{"internalType":"address","name":"_validationRegistry","type":"address"}],"stateMutability":"nonpayable","type":"constructor"},{"inputs":[],"name":"AddressAlreadyRegistered","type":"error"},{"inputs":[],"name":"AgentNotFound","type":"error"},{"inputs":[],"name":"DomainAlreadyRegistered","type":"error"},{"inputs":[],"name":"InsufficientFee","type":"error"},{"inputs":[],"name":"InvalidAddress","type":"error"},{"inputs":[],"name":"InvalidDomain","type":"error"},{"inputs":[],"name":"UnauthorizedUpdate","type":"error"},{"anonymous":false,"inputs":[{"indexed":true,"internalType":"uint256","name":"agentId","type":"uint256"},{"indexed":false,"internalType":"string","name":"agentDomain","type":"string"},{"indexed":false,"internalType":"address","name":"agentAddress","type":"address"}],"name":"AgentRegistered","type":"event"},{"anonymous":false,"inputs":[{"indexed":true,"internalType":"uint256","name":"agentId","type":"uint256"},{"indexed":false,"internalType":"string","name":"agentDomain","type":"string"},{"indexed":false,"internalType":"address","name":"agentAddress","type":"address"}],"name":"AgentUpdated","type":"event"},{"inputs":[],"name":"REGISTRATION_FEE","outputs":[{"internalType":"uint256","name":"","type":"uint256"}],"stateMutability":"view","type":"function"},{"inputs":[{"internalType":"uint256","name":"agentId","type":"uint256"}],"name":"agentExists","outputs":[{"internalType":"bool","name":"exists","type":"bool"}],"stateMutability":"view","type":"function"},{"inputs":[{"internalType":"uint256","name":"agentId","type":"uint256"}],"name":"getAgent","outputs":[{"components":[{"internalType":"uint256","name":"agentId","type":"uint256"},{"internalType":"string","name":"agentDomain","type":"string"},{"internalType":"address","name":"agentAddress","type":"address"},{"internalType":"string","name":"metadataUri","type":"string"}],"internalType":"struct IIdentityRegistry.AgentInfo","name":"agentInfo","type":"tuple"}],"stateMutability":"view","type":"function"},{"inputs":[],"name":"getAgentCount","outputs":[{"internalType":"uint256","name":"count","type":"uint256"}],"stateMutability":"view","type":"function"},{"inputs":[{"internalType":"uint256","name":"agentId","type":"uint256"}],"name":"getAgentFullInfo","outputs":[{"components":[{"internalType":"uint256","name":"agentId","type":"uint256"},{"internalType":"string","name":"agentDomain","type":"string"},{"internalType":"address","name":"agentAddress","type":"address"},{"internalType":"string","name":"metadataUri","type":"string"}],"internalType":"struct IIdentityRegistry.AgentInfo","name":"agentInfo","type":"tuple"},{"internalType":"int256","name":"reputationScore","type":"int256"},{"internalType":"uint256","name":"upVotes","type":"uint256"},{"internalType":"uint256","name":"downVotes","type":"uint256"},{"internalType":"uint256","name":"validationCount","type":"uint256"},{"internalType":"uint8","name":"validationScore","type":"uint8"}],"stateMutability":"view","type":"function"},{"inputs":[{"internalType":"uint256","name":"agentId","type":"uint256"}],"name":"getAgentReputation","outputs":[{"internalType":"int256","name":"score","type":"int256"}],"stateMutability":"view","type":"function"},{"inputs":[{"internalType":"uint256","name":"agentId","type":"uint256"}],"name":"getAgentValidation","outputs":[{"internalType":"uint256","name":"validationCount","type":"uint256"},{"internalType":"uint8","name":"averageScore","type":"uint8"}],"stateMutability":"view","type":"function"},{"inputs":[{"internalType":"uint256","name":"agentId","type":"uint256"}],"name":"getAgentVoteCounts","outputs":[{"internalType":"uint256","name":"upVotes","type":"uint256"},{"internalType":"uint256","name":"downVotes","type":"uint256"}],"stateMutability":"view","type":"function"},{"inputs":[],"name":"getAllDomains","outputs":[{"internalType":"string[]","name":"domains","type":"string[]"}],"stateMutability":"view","type":"function"},{"inputs":[{"internalType":"uint256","name":"offset","type":"uint256"},{"internalType":"uint256","name":"limit","type":"uint256"}],"name":"getDomainsPaginated","outputs":[{"internalType":"string[]","name":"domains","type":"string[]"},{"internalType":"uint256","name":"total","type":"uint256"}],"stateMutability":"view","type":"function"},{"inputs":[{"internalType":"string","name":"agentDomain","type":"string"},{"internalType":"address","name":"agentAddress","type":"address"},{"internalType":"string","name":"metadataUri","type":"string"}],"name":"newAgent","outputs":[{"internalType":"uint256","name":"agentId","type":"uint256"}],"stateMutability":"payable","type":"function"},{"inputs":[],"name":"reputationRegistry","outputs":[{"internalType":"contract IReputationRegistry","name":"","type":"address"}],"stateMutability":"view","type":"function"},{"inputs":[{"internalType":"address","name":"agentAddress","type":"address"}],"name":"resolveByAddress","outputs":[{"components":[{"internalType":"uint256","name":"agentId","type":"uint256"},{"internalType":"string","name":"agentDomain","type":"string"},{"internalType":"address","name":"agentAddress","type":"address"},{"internalType":"string","name":"metadataUri","type":"string"}],"internalType":"struct IIdentityRegistry.AgentInfo","name":"agentInfo","type":"tuple"}],"stateMutability":"view","type":"function"},{"inputs":[{"internalType":"string","name":"agentDomain","type":"string"}],"name":"resolveByDomain","outputs":[{"components":[{"internalType":"uint256","name":"agentId","type":"uint256"},{"internalType":"string","name":"agentDomain","type":"string"},{"internalType":"address","name":"agentAddress","type":"address"},{"internalType":"string","name":"metadataUri","type":"string"}],"internalType":"struct IIdentityRegistry.AgentInfo","name":"agentInfo","type":"tuple"}],"stateMutability":"view","type":"function"},{"inputs":[{"internalType":"address","name":"_reputationRegistry","type":"address"}],"name":"setReputationRegistry","outputs":[],"stateMutability":"nonpayable","type":"function"},{"inputs":[{"internalType":"address","name":"_validationRegistry","type":"address"}],"name":"setValidationRegistry","outputs":[],"stateMutability":"nonpayable","type":"function"},{"inputs":[{"internalType":"uint256","name":"agentId","type":"uint256"},{"internalType":"string","name":"newAgentDomain","type":"string"},{"internalType":"address","name":"newAgentAddress","type":"address"}],"name":"updateAgent","outputs":[{"internalType":"bool","name":"success","type":"bool"}],"stateMutability":"nonpayable","type":"function"},{"inputs":[{"internalType":"uint256","name":"agentId","type":"uint256"},{"internalType":"string","name":"newMetadataUri","type":"string"}],"name":"updateMetadata","outputs":[{"internalType":"bool","name":"success","type":"bool"}],"stateMutability":"nonpayable","type":"function"},{"inputs":[],"name":"validationRegistry","outputs":[{"internalType":"contract IValidationRegistry","name":"","type":"address"}],"stateMutability":"view","type":"function"}],"evm":{"bytecode":{"linkReferences":{},"object":"60806040523480156200001157600080fd5b5060405162001fd338038062001fd38339810160408190526200003491620000b6565b60016000556001600160a01b038216156200006557600580546001600160a01b0319166001600160a01b0384161790555b6001600160a01b038116156200009157600680546001600160a01b0319166001600160a01b0383161790555b5050620000ee565b80516001600160a01b0381168114620000b157600080fd5b919050565b60008060408385031215620000ca57600080fd5b620000d58362000099565b9150620000e56020840162000099565b90509250929050565b611ed580620000fe6000396000f3fe6080604052600436106101145760003560e01c806357518309116100a0578063c8db44e311610064578063c8db44e314610391578063cb43091f146103b1578063d9f0f470146103d1578063de99f157146103e4578063e777ce721461041357600080fd5b806357518309146102da5780635a018e6a1461031157806364b4f7511461033357806378ddad121461035c57806391cab63e1461037c57600080fd5b80633f0ce714116100e75780633f0ce714146101d15780633f252e00146102105780634c6b993a1461024d5780634ee4eca81461028557806353c8388e146102ba57600080fd5b80630c638107146101195780631154c3fe1461014f5780632de5aaf7146101815780633bfbbad7146101a1575b600080fd5b34801561012557600080fd5b506101396101343660046116c1565b610441565b6040516101469190611776565b60405180910390f35b34801561015b57600080fd5b5061016f61016a366004611789565b610613565b604051610146969594939291906117a2565b34801561018d57600080fd5b5061013961019c366004611789565b610956565b3480156101ad57600080fd5b506101c16101bc366004611823565b610b12565b6040519015158152602001610146565b3480156101dd57600080fd5b5061020e6101ec3660046116c1565b600580546001600160a01b0319166001600160a01b0392909216919091179055565b005b34801561021c57600080fd5b5061020e61022b3660046116c1565b600680546001600160a01b0319166001600160a01b0392909216919091179055565b34801561025957600080fd5b5060065461026d906001600160a01b031681565b6040516001600160a01b039091168152602001610146565b34801561029157600080fd5b506102a56102a0366004611789565b610d04565b60408051928352602083019190915201610146565b3480156102c657600080fd5b506101c16102d5366004611881565b610d99565b3480156102e657600080fd5b506102fa6102f5366004611789565b610e60565b6040805192835260ff909116602083015201610146565b34801561031d57600080fd5b50610326610eec565b6040516101469190611922565b34801561033f57600080fd5b5061034e6611c37937e0800081565b604051908152602001610146565b34801561036857600080fd5b50610139610377366004611935565b610fc5565b34801561038857600080fd5b5061034e6111a4565b34801561039d57600080fd5b5060055461026d906001600160a01b031681565b3480156103bd57600080fd5b5061034e6103cc366004611789565b6111ba565b61034e6103df366004611977565b611248565b3480156103f057600080fd5b506101c16103ff366004611789565b600090815260016020526040902054151590565b34801561041f57600080fd5b5061043361042e3660046119fb565b6114ff565b604051610146929190611a1d565b6104756040518060800160405280600081526020016060815260200160006001600160a01b03168152602001606081525090565b6001600160a01b038216600090815260036020526040812054908190036104af5760405163e93ba22360e01b815260040160405180910390fd5b600081815260016020818152604092839020835160808101909452805484529182018054918401916104e090611a3f565b80601f016020809104026020016040519081016040528092919081815260200182805461050c90611a3f565b80156105595780601f1061052e57610100808354040283529160200191610559565b820191906000526020600020905b81548152906001019060200180831161053c57829003601f168201915b505050918352505060028201546001600160a01b0316602082015260038201805460409092019161058990611a3f565b80601f01602080910402602001604051908101604052809291908181526020018280546105b590611a3f565b80156106025780601f106105d757610100808354040283529160200191610602565b820191906000526020600020905b8154815290600101906020018083116105e557829003601f168201915b505050505081525050915050919050565b6106476040518060800160405280600081526020016060815260200160006001600160a01b03168152602001606081525090565b6000806000806000600160008881526020019081526020016000206040518060800160405290816000820154815260200160018201805461068790611a3f565b80601f01602080910402602001604051908101604052809291908181526020018280546106b390611a3f565b80156107005780601f106106d557610100808354040283529160200191610700565b820191906000526020600020905b8154815290600101906020018083116106e357829003601f168201915b505050918352505060028201546001600160a01b0316602082015260038201805460409092019161073090611a3f565b80601f016020809104026020016040519081016040528092919081815260200182805461075c90611a3f565b80156107a95780601f1061077e576101008083540402835291602001916107a9565b820191906000526020600020905b81548152906001019060200180831161078c57829003601f168201915b505050505081525050955085600001516000036107d95760405163e93ba22360e01b815260040160405180910390fd5b6005546001600160a01b0316156108ca576005546040516389370d8b60e01b8152600481018990526001600160a01b03909116906389370d8b90602401602060405180830381865afa158015610833573d6000803e3d6000fd5b505050506040513d601f19601f820116820180604052508101906108579190611a79565b60055460405163228907d360e21b8152600481018a90529196506001600160a01b031690638a241f4c906024016040805180830381865afa1580156108a0573d6000803e3d6000fd5b505050506040513d601f19601f820116820180604052508101906108c49190611a92565b90945092505b6006546001600160a01b03161561094d576006546040516320e4ab9760e21b8152600481018990526001600160a01b0390911690638392ae5c906024016040805180830381865afa158015610923573d6000803e3d6000fd5b505050506040513d601f19601f820116820180604052508101906109479190611ab6565b90925090505b91939550919395565b61098a6040518060800160405280600081526020016060815260200160006001600160a01b03168152602001606081525090565b600082815260016020818152604092839020835160808101909452805484529182018054918401916109bb90611a3f565b80601f01602080910402602001604051908101604052809291908181526020018280546109e790611a3f565b8015610a345780601f10610a0957610100808354040283529160200191610a34565b820191906000526020600020905b815481529060010190602001808311610a1757829003601f168201915b505050918352505060028201546001600160a01b03166020820152600382018054604090920191610a6490611a3f565b80601f0160208091040260200160405190810160405280929190818152602001828054610a9090611a3f565b8015610add5780601f10610ab257610100808354040283529160200191610add565b820191906000526020600020905b815481529060010190602001808311610ac057829003601f168201915b50505050508152505090508060000151600003610b0d5760405163e93ba22360e01b815260040160405180910390fd5b919050565b600084815260016020526040812080548203610b415760405163e93ba22360e01b815260040160405180910390fd5b60028101546001600160a01b03163314610b6e57604051634f1f214760e01b815260040160405180910390fd5b83158015906001600160a01b038516151590610bc55760028787604051610b96929190611aec565b908152602001604051809103902054600014610bc557604051637b857a6b60e01b815260040160405180910390fd5b8015610c02576001600160a01b03851660009081526003602052604090205415610c02576040516316a163b960e11b815260040160405180910390fd5b8115610c6257600283600101604051610c1b9190611afc565b9081526040519081900360200190206000905560018301610c3d878983611bd7565b508760028888604051610c51929190611aec565b908152604051908190036020019020555b8015610ca8576002830180546001600160a01b0390811660009081526003602052604080822082905583546001600160a01b031916928916928317909355908152208890555b600283015460405189917f1b37db56c92268433e33fda6783791cb9e5f8ffababd3952ab40716443f1bf8991610cee9160018801916001600160a01b0390911690611c98565b60405180910390a2506001979650505050505050565b60055460009081906001600160a01b0316610d2457506000928392509050565b60055460405163228907d360e21b8152600481018590526001600160a01b0390911690638a241f4c906024016040805180830381865afa158015610d6c573d6000803e3d6000fd5b505050506040513d601f19601f82011682018060405250810190610d909190611a92565b91509150915091565b600083815260016020526040812080548203610dc85760405163e93ba22360e01b815260040160405180910390fd5b60028101546001600160a01b03163314610df557604051634f1f214760e01b815260040160405180910390fd5b60038101610e04848683611bd7565b50600281015460405186917f1b37db56c92268433e33fda6783791cb9e5f8ffababd3952ab40716443f1bf8991610e4b9160018601916001600160a01b0390911690611c98565b60405180910390a260019150505b9392505050565b60065460009081906001600160a01b0316610e8057506000928392509050565b6006546040516320e4ab9760e21b8152600481018590526001600160a01b0390911690638392ae5c906024016040805180830381865afa158015610ec8573d6000803e3d6000fd5b505050506040513d601f19601f82011682018060405250810190610d909190611ab6565b60606004805480602002602001604051908101604052809291908181526020016000905b82821015610fbc578382906000526020600020018054610f2f90611a3f565b80601f0160208091040260200160405190810160405280929190818152602001828054610f5b90611a3f565b8015610fa85780601f10610f7d57610100808354040283529160200191610fa8565b820191906000526020600020905b815481529060010190602001808311610f8b57829003601f168201915b505050505081526020019060010190610f10565b50505050905090565b610ff96040518060800160405280600081526020016060815260200160006001600160a01b03168152602001606081525090565b60006002848460405161100d929190611aec565b90815260200160405180910390205490508060000361103f5760405163e93ba22360e01b815260040160405180910390fd5b6000818152600160208181526040928390208351608081019094528054845291820180549184019161107090611a3f565b80601f016020809104026020016040519081016040528092919081815260200182805461109c90611a3f565b80156110e95780601f106110be576101008083540402835291602001916110e9565b820191906000526020600020905b8154815290600101906020018083116110cc57829003601f168201915b505050918352505060028201546001600160a01b0316602082015260038201805460409092019161111990611a3f565b80601f016020809104026020016040519081016040528092919081815260200182805461114590611a3f565b80156111925780601f1061116757610100808354040283529160200191611192565b820191906000526020600020905b81548152906001019060200180831161117557829003601f168201915b50505050508152505091505092915050565b600060016000546111b59190611d48565b905090565b6005546000906001600160a01b03166111d557506000919050565b6005546040516389370d8b60e01b8152600481018490526001600160a01b03909116906389370d8b90602401602060405180830381865afa15801561121e573d6000803e3d6000fd5b505050506040513d601f19601f820116820180604052508101906112429190611a79565b92915050565b600084810361126a576040516375893cc160e11b815260040160405180910390fd5b6001600160a01b0384166112915760405163e6c4247b60e01b815260040160405180910390fd5b600286866040516112a3929190611aec565b9081526020016040518091039020546000146112d257604051637b857a6b60e01b815260040160405180910390fd5b6001600160a01b03841660009081526003602052604090205415611309576040516316a163b960e11b815260040160405180910390fd5b6611c37937e080003410156113305760405162976f7560e21b815260040160405180910390fd5b60008054908061133f83611d5b565b919050559050604051806080016040528082815260200187878080601f0160208091040260200160405190810160405280939291908181526020018383808284376000920191909152505050908252506001600160a01b03861660208083019190915260408051601f87018390048302810183018252868152920191908690869081908401838280828437600092018290525093909452505083815260016020818152604090922084518155918401519192508201906113ff9082611d74565b5060408201516002820180546001600160a01b0319166001600160a01b039092169190911790556060820151600382019061143a9082611d74565b509050508060028787604051611451929190611aec565b9081526040805160209281900383019020929092556001600160a01b038616600090815260039091529081208290556004805460018101825591527f8a35acfbc15ff81a39ae7d344fd709f28e8600b4aa8c65c6b64bfe7fe36bd19b016114b9868883611bd7565b50807faef1fcdf962a03943b677ae3b92ef1b34c972aeef794ed6e9ba5f599b461883b8787876040516114ee93929190611e34565b60405180910390a295945050505050565b60045460609080841061153f576040805160008082526020820190925290611537565b60608152602001906001900390816115225790505b5091506116a3565b600061154b8486611e76565b9050818111156115585750805b60006115648683611d48565b90508067ffffffffffffffff81111561157f5761157f611b72565b6040519080825280602002602001820160405280156115b257816020015b606081526020019060019003908161159d5790505b50935060005b8181101561169f5760046115cc8289611e76565b815481106115dc576115dc611e89565b9060005260206000200180546115f190611a3f565b80601f016020809104026020016040519081016040528092919081815260200182805461161d90611a3f565b801561166a5780601f1061163f5761010080835404028352916020019161166a565b820191906000526020600020905b81548152906001019060200180831161164d57829003601f168201915b505050505085828151811061168157611681611e89565b6020026020010181905250808061169790611d5b565b9150506115b8565b5050505b9250929050565b80356001600160a01b0381168114610b0d57600080fd5b6000602082840312156116d357600080fd5b610e59826116aa565b6000815180845260005b81811015611702576020818501810151868301820152016116e6565b506000602082860101526020601f19601f83011685010191505092915050565b80518252600060208201516080602085015261174160808501826116dc565b90506001600160a01b0360408401511660408501526060830151848203606086015261176d82826116dc565b95945050505050565b602081526000610e596020830184611722565b60006020828403121561179b57600080fd5b5035919050565b60c0815260006117b560c0830189611722565b60208301979097525060408101949094526060840192909252608083015260ff1660a090910152919050565b60008083601f8401126117f357600080fd5b50813567ffffffffffffffff81111561180b57600080fd5b6020830191508360208285010111156116a357600080fd5b6000806000806060858703121561183957600080fd5b84359350602085013567ffffffffffffffff81111561185757600080fd5b611863878288016117e1565b90945092506118769050604086016116aa565b905092959194509250565b60008060006040848603121561189657600080fd5b83359250602084013567ffffffffffffffff8111156118b457600080fd5b6118c0868287016117e1565b9497909650939450505050565b600081518084526020808501808196508360051b8101915082860160005b858110156119155782840389526119038483516116dc565b988501989350908401906001016118eb565b5091979650505050505050565b602081526000610e5960208301846118cd565b6000806020838503121561194857600080fd5b823567ffffffffffffffff81111561195f57600080fd5b61196b858286016117e1565b90969095509350505050565b60008060008060006060868803121561198f57600080fd5b853567ffffffffffffffff808211156119a757600080fd5b6119b389838a016117e1565b90975095508591506119c7602089016116aa565b945060408801359150808211156119dd57600080fd5b506119ea888289016117e1565b969995985093965092949392505050565b60008060408385031215611a0e57600080fd5b50508035926020909101359150565b604081526000611a3060408301856118cd565b90508260208301529392505050565b600181811c90821680611a5357607f821691505b602082108103611a7357634e487b7160e01b600052602260045260246000fd5b50919050565b600060208284031215611a8b57600080fd5b5051919050565b60008060408385031215611aa557600080fd5b505080516020909101519092909150565b60008060408385031215611ac957600080fd5b82519150602083015160ff81168114611ae157600080fd5b809150509250929050565b8183823760009101908152919050565b6000808354611b0a81611a3f565b60018281168015611b225760018114611b3757611b66565b60ff1984168752821515830287019450611b66565b8760005260208060002060005b85811015611b5d5781548a820152908401908201611b44565b50505082870194505b50929695505050505050565b634e487b7160e01b600052604160045260246000fd5b601f821115611bd257600081815260208120601f850160051c81016020861015611baf5750805b601f850160051c820191505b81811015611bce57828155600101611bbb565b5050505b505050565b67ffffffffffffffff831115611bef57611bef611b72565b611c0383611bfd8354611a3f565b83611b88565b6000601f841160018114611c375760008515611c1f5750838201355b600019600387901b1c1916600186901b178355611c91565b600083815260209020601f19861690835b82811015611c685786850135825560209485019460019092019101611c48565b5086821015611c855760001960f88860031b161c19848701351681555b505060018560011b0183555b5050505050565b604081526000808454611caa81611a3f565b8060408601526060600180841660008114611ccc5760018114611ce657611d17565b60ff1985168884015283151560051b880183019550611d17565b8960005260208060002060005b86811015611d0e5781548b8201870152908401908201611cf3565b8a018501975050505b505050506001600160a01b0385166020850152509050610e59565b634e487b7160e01b600052601160045260246000fd5b8181038181111561124257611242611d32565b600060018201611d6d57611d6d611d32565b5060010190565b815167ffffffffffffffff811115611d8e57611d8e611b72565b611da281611d9c8454611a3f565b84611b88565b602080601f831160018114611dd75760008415611dbf5750858301515b600019600386901b1c1916600185901b178555611bce565b600085815260208120601f198616915b82811015611e0657888601518255948401946001909101908401611de7565b5085821015611e245787850151600019600388901b60f8161c191681555b5050505050600190811b01905550565b604081528260408201528284606083013760006060848301015260006060601f19601f86011683010190506001600160a01b0383166020830152949350505050565b8082018082111561124257611242611d32565b634e487b7160e01b600052603260045260246000fdfea2646970667358221220872091997a67445d245579e3c11de2163521d339db0a6eaa64d975916944a83864736f6c63430008130033","opcodes":"PUSH1 0x80 PUSH1 0x40 MSTORE CALLVALUE DUP1 ISZERO PUSH3 0x11 JUMPI PUSH1 0x0 DUP1 REVERT JUMPDEST POP PUSH1 0x40 MLOAD PUSH3 0x1FD3 CODESIZE SUB DUP1 PUSH3 0x1FD3 DUP4 CODECOPY DUP2 ADD PUSH1 0x40 DUP2 SWAP1 MSTORE PUSH3 0x34 SWAP2 PUSH3 0xB6 JUMP JUMPDEST PUSH1 0x1 PUSH1 0x0 SSTORE PUSH1 0x1 PUSH1 0x1 PUSH1 0xA0 SHL SUB DUP3 AND ISZERO PUSH3 0x65 JUMPI PUSH1 0x5 DUP1 SLOAD PUSH1 0x1 PUSH1 0x1 PUSH1 0xA0 SHL SUB NOT AND PUSH1 0x1 PUSH1 0x1 PUSH1 0xA0 SHL SUB DUP5 AND OR SWAP1 SSTORE JUMPDEST PUSH1 0x1 PUSH1 0x1 PUSH1 0xA0 SHL SUB DUP2 AND ISZERO PUSH3 0x91 JUMPI PUSH1 0x6 DUP1 SLOAD PUSH1 0x1 PUSH1 0x1 PUSH1 0xA0 SHL SUB NOT AND PUSH1 0x1 PUSH1 0x1 PUSH1 0xA0 SHL SUB DUP4 AND OR SWAP1 SSTORE JUMPDEST POP POP PUSH3 0xEE JUMP JUMPDEST DUP1 MLOAD PUSH1 0x1 PUSH1 0x1 PUSH1 0xA0 SHL SUB DUP2 AND DUP2 EQ PUSH3 0xB1 JUMPI PUSH1 0x0 DUP1 REVERT JUMPDEST SWAP2 SWAP1 POP JUMP JUMPDEST PUSH1 0x0 DUP1 PUSH1 0x40 DUP4 DUP6 SUB SLT ISZERO PUSH3 0xCA JUMPI PUSH1 0x0 DUP1 REVERT JUMPDEST PUSH3 0xD5 DUP4 PUSH3 0x99 JUMP JUMPDEST SWAP2 POP PUSH3 0xE5 PUSH1 0x20 DUP5 ADD PUSH3 0x99 JUMP JUMPDEST SWAP1 POP SWAP3 POP SWAP3 SWAP1 POP JUMP JUMPDEST PUSH2 0x1ED5 DUP1 PUSH3 0xFE PUSH1 0x0 CODECOPY PUSH1 0x0 RETURN INVALID PUSH1 0x80 PUSH1 0x40 MSTORE PUSH1 0x4 CALLDATASIZE LT PUSH2 0x114 JUMPI PUSH1 0x0 CALLDATALOAD PUSH1 0xE0 SHR DUP1 PUSH4 0x57518309 GT PUSH2 0xA0 JUMPI DUP1 PUSH4 0xC8DB44E3 GT PUSH2 0x64 JUMPI DUP1 PUSH4 0xC8DB44E3 EQ PUSH2 0x391 JUMPI DUP1 PUSH4 0xCB43091F EQ PUSH2 0x3B1 JUMPI DUP1 PUSH4 0xD9F0F470 EQ PUSH2 0x3D1 JUMPI DUP1 PUSH4 0xDE99F157 EQ PUSH2 0x3E4 JUMPI DUP1 PUSH4 0xE777CE72 EQ PUSH2 0x413 JUMPI PUSH1 0x0 DUP1 REVERT JUMPDEST DUP1 PUSH4 0x57518309 EQ PUSH2 0x2DA JUMPI DUP1 PUSH4 0x5A018E6A EQ PUSH2 0x311 JUMPI DUP1 PUSH4 0x64B4F751 EQ PUSH2 0x333 JUMPI DUP1 PUSH4 0x78DDAD12 EQ PUSH2 0x35C JUMPI DUP1 PUSH4 0x91CAB63E EQ PUSH2 0x37C JUMPI PUSH1 0x0 DUP1 REVERT JUMPDEST DUP1 PUSH4 0x3F0CE714 GT PUSH2 0xE7 JUMPI DUP1 PUSH4 0x3F0CE714 EQ PUSH2 0x1D1 JUMPI DUP1 PUSH4 0x3F252E00 EQ PUSH2 0x210 JUMPI DUP1 PUSH4 0x4C6B993A EQ PUSH2 0x24D JUMPI DUP1 PUSH4 0x4EE4ECA8 EQ PUSH2 0x285 JUMPI DUP1 PUSH4 0x53C8388E EQ PUSH2 0x2BA JUMPI PUSH1 0x0 DUP1 REVERT JUMPDEST DUP1 PUSH4 0xC638107 EQ PUSH2 0x119 JUMPI DUP1 PUSH4 0x1154C3FE EQ PUSH2 0x14F JUMPI DUP1 PUSH4 0x2DE5AAF7 EQ PUSH2 0x181 JUMPI DUP1 PUSH4 0x3BFBBAD7 EQ PUSH2 0x1A1 JUMPI JUMPDEST PUSH1 0x0 DUP1 REVERT JUMPDEST CALLVALUE DUP1 ISZERO PUSH2 0x125 JUMPI PUSH1 0x0 DUP1 REVERT JUMPDEST POP PUSH2 0x139 PUSH2 0x134 CALLDATASIZE PUSH1 0x4 PUSH2 0x16C1 JUMP JUMPDEST PUSH2 0x441 JUMP JUMPDEST PUSH1 0x40 MLOAD PUSH2 0x146 SWAP2 SWAP1 PUSH2 0x1776 JUMP JUMPDEST PUSH1 0x40 MLOAD DUP1 SWAP2 SUB SWAP1 RETURN JUMPDEST CALLVALUE DUP1 ISZERO PUSH2 0x15B JUMPI PUSH1 0x0 DUP1 REVERT JUMPDEST POP PUSH2 0x16F PUSH2 0x16A CALLDATASIZE PUSH1 0x4 PUSH2 0x1789 JUMP JUMPDEST PUSH2 0x613 JUMP JUMPDEST PUSH1 0x40 MLOAD PUSH2 0x146 SWAP7 SWAP6 SWAP5 SWAP4 SWAP3 SWAP2 SWAP1 PUSH2 0x17A2 JUMP JUMPDEST CALLVALUE DUP1 ISZERO PUSH2 0x18D JUMPI PUSH1 0x0 DUP1 REVERT JUMPDEST POP PUSH2 0x139 PUSH2 0x19C CALLDATASIZE PUSH1 0x4 PUSH2 0x1789 JUMP JUMPDEST PUSH2 0x956 JUMP JUMPDEST CALLVALUE DUP1 ISZERO PUSH2 0x1AD JUMPI PUSH1 0x0 DUP1 REVERT JUMPDEST POP PUSH2 0x1C1 PUSH2 0x1BC CALLDATASIZE PUSH1 0x4 PUSH2 0x1823 JUMP JUMPDEST PUSH2 0xB12 JUMP JUMPDEST PUSH1 0x40 MLOAD SWAP1 ISZERO ISZERO DUP2 MSTORE PUSH1 0x20 ADD PUSH2 0x146 JUMP JUMPDEST CALLVALUE DUP1 ISZERO PUSH2 0x1DD JUMPI PUSH1 0x0 DUP1 REVERT JUMPDEST POP PUSH2 0x20E PUSH2 0x1EC CALLDATASIZE PUSH1 0x4 PUSH2 0x16C1 JUMP JUMPDEST PUSH1 0x5 DUP1 SLOAD PUSH1 0x1 PUSH1 0x1 PUSH1 0xA0 SHL SUB NOT AND PUSH1 0x1 PUSH1 0x1 PUSH1 0xA0 SHL SUB SWAP3 SWAP1 SWAP3 AND SWAP2 SWAP1 SWAP2 OR SWAP1 SSTORE JUMP JUMPDEST STOP JUMPDEST CALLVALUE DUP1 ISZERO PUSH2 0x21C JUMPI PUSH1 0x0 DUP1 REVERT JUMPDEST POP PUSH2 0x20E PUSH2 0x22B CALLDATASIZE PUSH1 0x4 PUSH2 0x16C1 JUMP JUMPDEST PUSH1 0x6 DUP1 SLOAD PUSH1 0x1 PUSH1 0x1 PUSH1 0xA0 SHL SUB NOT AND PUSH1 0x1 PUSH1 0x1 PUSH1 0xA0 SHL SUB SWAP3 SWAP1 SWAP3 AND SWAP2 SWAP1 SWAP2 OR SWAP1 SSTORE JUMP JUMPDEST CALLVALUE DUP1 ISZERO PUSH2 0x259 JUMPI PUSH1 0x0 DUP1 REVERT JUMPDEST POP PUSH1 0x6 SLOAD PUSH2 0x26D SWAP1 PUSH1 0x1 PUSH1 0x1 PUSH1 0xA0 SHL SUB AND DUP2 JUMP JUMPDEST PUSH1 0x40 MLOAD PUSH1 0x1 PUSH1 0x1 PUSH1 0xA0 SHL SUB SWAP1 SWAP2 AND DUP2 MSTORE PUSH1 0x20 ADD PUSH2 0x146 JUMP JUMPDEST CALLVALUE DUP1 ISZERO PUSH2 0x291 JUMPI PUSH1 0x0 DUP1 REVERT JUMPDEST POP PUSH2 0x2A5 PUSH2 0x2A0 CALLDATASIZE PUSH1 0x4 PUSH2 0x1789 JUMP JUMPDEST PUSH2 0xD04 JUMP JUMPDEST PUSH1 0x40 DUP1 MLOAD SWAP3 DUP4 MSTORE PUSH1 0x20 DUP4 ADD SWAP2 SWAP1 SWAP2 MSTORE ADD PUSH2 0x146 JUMP JUMPDEST CALLVALUE DUP1 ISZERO PUSH2 0x2C6 JUMPI PUSH1 0x0 DUP1 REVERT JUMPDEST POP PUSH2 0x1C1 PUSH2 0x2D5 CALLDATASIZE PUSH1 0x4 PUSH2 0x1881 JUMP JUMPDEST PUSH2 0xD99 JUMP JUMPDEST CALLVALUE DUP1 ISZERO PUSH2 0x2E6 JUMPI PUSH1 0x0 DUP1 REVERT JUMPDEST POP PUSH2 0x2FA PUSH2 0x2F5 CALLDATASIZE PUSH1 0x4 PUSH2 0x1789 JUMP JUMPDEST PUSH2 0xE60 JUMP JUMPDEST PUSH1 0x40 DUP1 MLOAD SWAP3 DUP4 MSTORE PUSH1 0xFF SWAP1 SWAP2 AND PUSH1 0x20 DUP4 ADD MSTORE ADD PUSH2 0x146 JUMP JUMPDEST CALLVALUE DUP1 ISZERO PUSH2 0x31D JUMPI PUSH1 0x0 DUP1 REVERT JUMPDEST POP PUSH2 0x326 PUSH2 0xEEC JUMP JUMPDEST PUSH1 0x40 MLOAD PUSH2 0x146 SWAP2 SWAP1 PUSH2 0x1922 JUMP JUMPDEST CALLVALUE DUP1 ISZERO PUSH2 0x33F JUMPI PUSH1 0x0 DUP1 REVERT JUMPDEST POP PUSH2 0x34E PUSH7 0x11C37937E08000 DUP2 JUMP JUMPDEST PUSH1 0x40 MLOAD SWAP1 DUP2 MSTORE PUSH1 0x20 ADD PUSH2 0x146 JUMP JUMPDEST CALLVALUE DUP1 ISZERO PUSH2 0x368 JUMPI PUSH1 0x0 DUP1 REVERT JUMPDEST POP PUSH2 0x139 PUSH2 0x377 CALLDATASIZE PUSH1 0x4 PUSH2 0x1935 JUMP JUMPDEST PUSH2 0xFC5 JUMP JUMPDEST CALLVALUE DUP1 ISZERO PUSH2 0x388 JUMPI PUSH1 0x0 DUP1 REVERT JUMPDEST POP PUSH2 0x34E PUSH2 0x11A4 JUMP JUMPDEST CALLVALUE DUP1 ISZERO PUSH2 0x39D JUMPI PUSH1 0x0 DUP1 REVERT JUMPDEST POP PUSH1 0x5 SLOAD PUSH2 0x26D SWAP1 PUSH1 0x1 PUSH1 0x1 PUSH1 0xA0 SHL SUB AND DUP2 JUMP JUMPDEST CALLVALUE DUP1 ISZERO PUSH2 0x3BD JUMPI PUSH1 0x0 DUP1 REVERT JUMPDEST POP PUSH2 0x34E PUSH2 0x3CC CALLDATASIZE PUSH1 0x4 PUSH2 0x1789 JUMP JUMPDEST PUSH2 0x11BA JUMP JUMPDEST PUSH2 0x34E PUSH2 0x3DF CALLDATASIZE PUSH1 0x4 PUSH2 0x1977 JUMP JUMPDEST PUSH2 0x1248 JUMP JUMPDEST CALLVALUE DUP1 ISZERO PUSH2 0x3F0 JUMPI PUSH1 0x0 DUP1 REVERT JUMPDEST POP PUSH2 0x1C1 PUSH2 0x3FF CALLDATASIZE PUSH1 0x4 PUSH2 0x1789 JUMP JUMPDEST PUSH1 0x0 SWAP1 DUP2 MSTORE PUSH1 0x1 PUSH1 0x20 MSTORE PUSH1 0x40 SWAP1 KECCAK256 SLOAD ISZERO ISZERO SWAP1 JUMP JUMPDEST CALLVALUE DUP1 ISZERO PUSH2 0x41F JUMPI PUSH1 0x0 DUP1 REVERT JUMPDEST POP PUSH2 0x433 PUSH2 0x42E CALLDATASIZE PUSH1 0x4 PUSH2 0x19FB JUMP JUMPDEST PUSH2 0x14FF JUMP JUMPDEST PUSH1 0x40 MLOAD PUSH2 0x146 SWAP3 SWAP2 SWAP1 PUSH2 0x1A1D JUMP JUMPDEST PUSH2 0x475 PUSH1 0x40 MLOAD DUP1 PUSH1 0x80 ADD PUSH1 0x40 MSTORE DUP1 PUSH1 0x0 DUP2 MSTORE PUSH1 0x20 ADD PUSH1 0x60 DUP2 MSTORE PUSH1 0x20 ADD PUSH1 0x0 PUSH1 0x1 PUSH1 0x1 PUSH1 0xA0 SHL SUB AND DUP2 MSTORE PUSH1 0x20 ADD PUSH1 0x60 DUP2 MSTORE POP SWAP1 JUMP JUMPDEST PUSH1 0x1 PUSH1 0x1 PUSH1 0xA0 SHL SUB DUP3 AND PUSH1 0x0 SWAP1 DUP2 MSTORE PUSH1 0x3 PUSH1 0x20 MSTORE PUSH1 0x40 DUP2 KECCAK256 SLOAD SWAP1 DUP2 SWAP1 SUB PUSH2 0x4AF JUMPI PUSH1 0x40 MLOAD PUSH4 0xE93BA223 PUSH1 0xE0 SHL DUP2 MSTORE PUSH1 0x4 ADD PUSH1 0x40 MLOAD DUP1 SWAP2 SUB SWAP1 REVERT JUMPDEST PUSH1 0x0 DUP2 DUP2 MSTORE PUSH1 0x1 PUSH1 0x20 DUP2 DUP2 MSTORE PUSH1 0x40 SWAP3 DUP4 SWAP1 KECCAK256 DUP4 MLOAD PUSH1 0x80 DUP2 ADD SWAP1 SWAP5 MSTORE DUP1 SLOAD DUP5 MSTORE SWAP2 DUP3 ADD DUP1 SLOAD SWAP2 DUP5 ADD SWAP2 PUSH2 0x4E0 SWAP1 PUSH2 0x1A3F JUMP JUMPDEST DUP1 PUSH1 0x1F ADD PUSH1 0x20 DUP1 SWAP2 DIV MUL PUSH1 0x20 ADD PUSH1 0x40 MLOAD SWAP1 DUP2 ADD PUSH1 0x40 MSTORE DUP1 SWAP3 SWAP2 SWAP1 DUP2 DUP2 MSTORE PUSH1 0x20 ADD DUP3 DUP1 SLOAD PUSH2 0x50C SWAP1 PUSH2 0x1A3F JUMP JUMPDEST DUP1 ISZERO PUSH2 0x559 JUMPI DUP1 PUSH1 0x1F LT PUSH2 0x52E JUMPI PUSH2 0x100 DUP1 DUP4 SLOAD DIV MUL DUP4 MSTORE SWAP2 PUSH1 0x20 ADD SWAP2 PUSH2 0x559 JUMP JUMPDEST DUP3 ADD SWAP2 SWAP1 PUSH1 0x0 MSTORE PUSH1 0x20 PUSH1 0x0 KECCAK256 SWAP1 JUMPDEST DUP2 SLOAD DUP2 MSTORE SWAP1 PUSH1 0x1 ADD SWAP1 PUSH1 0x20 ADD DUP1 DUP4 GT PUSH2 0x53C JUMPI DUP3 SWAP1 SUB PUSH1 0x1F AND DUP3 ADD SWAP2 JUMPDEST POP POP POP SWAP2 DUP4 MSTORE POP POP PUSH1 0x2 DUP3 ADD SLOAD PUSH1 0x1 PUSH1 0x1 PUSH1 0xA0 SHL SUB AND PUSH1 0x20 DUP3 ADD MSTORE PUSH1 0x3 DUP3 ADD DUP1 SLOAD PUSH1 0x40 SWAP1 SWAP3 ADD SWAP2 PUSH2 0x589 SWAP1 PUSH2 0x1A3F JUMP JUMPDEST DUP1 PUSH1 0x1F ADD PUSH1 0x20 DUP1 SWAP2 DIV MUL PUSH1 0x20 ADD PUSH1 0x40 MLOAD SWAP1 DUP2 ADD PUSH1 0x40 MSTORE DUP1 SWAP3 SWAP2 SWAP1 DUP2 DUP2 MSTORE PUSH1 0x20 ADD DUP3 DUP1 SLOAD PUSH2 0x5B5 SWAP1 PUSH2 0x1A3F JUMP JUMPDEST DUP1 ISZERO PUSH2 0x602 JUMPI DUP1 PUSH1 0x1F LT PUSH2 0x5D7 JUMPI PUSH2 0x100 DUP1 DUP4 SLOAD DIV MUL DUP4 MSTORE SWAP2 PUSH1 0x20 ADD SWAP2 PUSH2 0x602 JUMP JUMPDEST DUP3 ADD SWAP2 SWAP1 PUSH1 0x0 MSTORE PUSH1 0x20 PUSH1 0x0 KECCAK256 SWAP1 JUMPDEST DUP2 SLOAD DUP2 MSTORE SWAP1 PUSH1 0x1 ADD SWAP1 PUSH1 0x20 ADD DUP1 DUP4 GT PUSH2 0x5E5 JUMPI DUP3 SWAP1 SUB PUSH1 0x1F AND DUP3 ADD SWAP2 JUMPDEST POP POP POP POP POP DUP2 MSTORE POP POP SWAP2 POP POP SWAP2 SWAP1 POP JUMP JUMPDEST PUSH2 0x647 PUSH1 0x40 MLOAD DUP1 PUSH1 0x80 ADD PUSH1 0x40 MSTORE DUP1 PUSH1 0x0 DUP2 MSTORE PUSH1 0x20 ADD PUSH1 0x60 DUP2 MSTORE PUSH1 0x20 ADD PUSH1 0x0 PUSH1 0x1 PUSH1 0x1 PUSH1 0xA0 SHL SUB AND DUP2 MSTORE PUSH1 0x20 ADD PUSH1 0x60 DUP2 MSTORE POP SWAP1 JUMP JUMPDEST PUSH1 0x0 DUP1 PUSH1 0x0 DUP1 PUSH1 0x0 PUSH1 0x1 PUSH1 0x0 DUP9 DUP2 MSTORE PUSH1 0x20 ADD SWAP1 DUP2 MSTORE PUSH1 0x20 ADD PUSH1 0x0 KECCAK256 PUSH1 0x40 MLOAD DUP1 PUSH1 0x80 ADD PUSH1 0x40 MSTORE SWAP1 DUP2 PUSH1 0x0 DUP3 ADD SLOAD DUP2 MSTORE PUSH1 0x20 ADD PUSH1 0x1 DUP3 ADD DUP1 SLOAD PUSH2 0x687 SWAP1 PUSH2 0x1A3F JUMP JUMPDEST DUP1 PUSH1 0x1F ADD PUSH1 0x20 DUP1 SWAP2 DIV MUL PUSH1 0x20 ADD PUSH1 0x40 MLOAD SWAP1 DUP2 ADD PUSH1 0x40 MSTORE DUP1 SWAP3 SWAP2 SWAP1 DUP2 DUP2 MSTORE PUSH1 0x20 ADD DUP3 DUP1 SLOAD PUSH2 0x6B3 SWAP1 PUSH2 0x1A3F JUMP JUMPDEST DUP1 ISZERO PUSH2 0x700 JUMPI DUP1 PUSH1 0x1F LT PUSH2 0x6D5 JUMPI PUSH2 0x100 DUP1 DUP4 SLOAD DIV MUL DUP4 MSTORE SWAP2 PUSH1 0x20 ADD SWAP2 PUSH2 0x700 JUMP JUMPDEST DUP3 ADD SWAP2 SWAP1 PUSH1 0x0 MSTORE PUSH1 0x20 PUSH1 0x0 KECCAK256 SWAP1 JUMPDEST DUP2 SLOAD DUP2 MSTORE SWAP1 PUSH1 0x1 ADD SWAP1 PUSH1 0x20 ADD DUP1 DUP4 GT PUSH2 0x6E3 JUMPI DUP3 SWAP1 SUB PUSH1 0x1F AND DUP3 ADD SWAP2 JUMPDEST POP POP POP SWAP2 DUP4 MSTORE POP POP PUSH1 0x2 DUP3 ADD SLOAD PUSH1 0x1 PUSH1 0x1 PUSH1 0xA0 SHL SUB AND PUSH1 0x20 DUP3 ADD MSTORE PUSH1 0x3 DUP3 ADD DUP1 SLOAD PUSH1 0x40 SWAP1 SWAP3 ADD SWAP2 PUSH2 0x730 SWAP1 PUSH2 0x1A3F JUMP JUMPDEST DUP1 PUSH1 0x1F ADD PUSH1 0x20 DUP1 SWAP2 DIV MUL PUSH1 0x20 ADD PUSH1 0x40 MLOAD SWAP1 DUP2 ADD PUSH1 0x40 MSTORE DUP1 SWAP3 SWAP2 SWAP1 DUP2 DUP2 MSTORE PUSH1 0x20 ADD DUP3 DUP1 SLOAD PUSH2 0x75C SWAP1 PUSH2 0x1A3F JUMP JUMPDEST DUP1 ISZERO PUSH2 0x7A9 JUMPI DUP1 PUSH1 0x1F LT PUSH2 0x77E JUMPI PUSH2 0x100 DUP1 DUP4 SLOAD DIV MUL DUP4 MSTORE SWAP2 PUSH1 0x20 ADD SWAP2 PUSH2 0x7A9 JUMP JUMPDEST DUP3 ADD SWAP2 SWAP1 PUSH1 0x0 MSTORE PUSH1 0x20 PUSH1 0x0 KECCAK256 SWAP1 JUMPDEST DUP2 SLOAD DUP2 MSTORE SWAP1 PUSH1 0x1 ADD SWAP1 PUSH1 0x20 ADD DUP1 DUP4 GT PUSH2 0x78C JUMPI DUP3 SWAP1 SUB PUSH1 0x1F AND DUP3 ADD SWAP2 JUMPDEST POP POP POP POP POP DUP2 MSTORE POP POP SWAP6 POP DUP6 PUSH1 0x0 ADD MLOAD PUSH1 0x0 SUB PUSH2 0x7D9 JUMPI PUSH1 0x40 MLOAD PUSH4 0xE93BA223 PUSH1 0xE0 SHL DUP2 MSTORE PUSH1 0x4 ADD PUSH1 0x40 MLOAD DUP1 SWAP2 SUB SWAP1 REVERT JUMPDEST PUSH1 0x5 SLOAD PUSH1 0x1 PUSH1 0x1 PUSH1 0xA0 SHL SUB AND ISZERO PUSH2 0x8CA JUMPI PUSH1 0x5 SLOAD PUSH1 0x40 MLOAD PUSH4 0x89370D8B PUSH1 0xE0 SHL DUP2 MSTORE PUSH1 0x4 DUP2 ADD DUP10 SWAP1 MSTORE PUSH1 0x1 PUSH1 0x1 PUSH1 0xA0 SHL SUB SWAP1 SWAP2 AND SWAP1 PUSH4 0x89370D8B SWAP1 PUSH1 0x24 ADD PUSH1 0x20 PUSH1 0x40 MLOAD DUP1 DUP4 SUB DUP2 DUP7 GAS STATICCALL ISZERO DUP1 ISZERO PUSH2 0x833 JUMPI RETURNDATASIZE PUSH1 0x0 DUP1 RETURNDATACOPY RETURNDATASIZE PUSH1 0x0 REVERT JUMPDEST POP POP POP POP PUSH1 0x40 MLOAD RETURNDATASIZE PUSH1 0x1F NOT PUSH1 0x1F DUP3 ADD AND DUP3 ADD DUP1 PUSH1 0x40 MSTORE POP DUP2 ADD SWAP1 PUSH2 0x857 SWAP2 SWAP1 PUSH2 0x1A79 JUMP JUMPDEST PUSH1 0x5 SLOAD PUSH1 0x40 MLOAD PUSH4 0x228907D3 PUSH1 0xE2 SHL DUP2 MSTORE PUSH1 0x4 DUP2 ADD DUP11 SWAP1 MSTORE SWAP2 SWAP7 POP PUSH1 0x1 PUSH1 0x1 PUSH1 0xA0 SHL SUB AND SWAP1 PUSH4 0x8A241F4C SWAP1 PUSH1 0x24 ADD PUSH1 0x40 DUP1 MLOAD DUP1 DUP4 SUB DUP2 DUP7 GAS STATICCALL ISZERO DUP1 ISZERO PUSH2 0x8A0 JUMPI RETURNDATASIZE PUSH1 0x0 DUP1 RETURNDATACOPY RETURNDATASIZE PUSH1 0x0 REVERT JUMPDEST POP POP POP POP PUSH1 0x40 MLOAD RETURNDATASIZE PUSH1 0x1F NOT PUSH1 0x1F DUP3 ADD AND DUP3 ADD DUP1 PUSH1 0x40 MSTORE POP DUP2 ADD SWAP1 PUSH2 0x8C4 SWAP2 SWAP1 PUSH2 0x1A92 JUMP JUMPDEST SWAP1 SWAP5 POP SWAP3 POP JUMPDEST PUSH1 0x6 SLOAD PUSH1 0x1 PUSH1 0x1 PUSH1 0xA0 SHL SUB AND ISZERO PUSH2 0x94D JUMPI PUSH1 0x6 SLOAD PUSH1 0x40 MLOAD PUSH4 0x20E4AB97 PUSH1 0xE2 SHL DUP2 MSTORE PUSH1 0x4 DUP2 ADD DUP10 SWAP1 MSTORE PUSH1 0x1 PUSH1 0x1 PUSH1 0xA0 SHL SUB SWAP1 SWAP2 AND SWAP1 PUSH4 0x8392AE5C SWAP1 PUSH1 0x24 ADD PUSH1 0x40 DUP1 MLOAD DUP1 DUP4 SUB DUP2 DUP7 GAS STATICCALL ISZERO DUP1 ISZERO PUSH2 0x923 JUMPI RETURNDATASIZE PUSH1 0x0 DUP1 RETURNDATACOPY RETURNDATASIZE PUSH1 0x0 REVERT JUMPDEST POP POP POP POP PUSH1 0x40 MLOAD RETURNDATASIZE PUSH1 0x1F NOT PUSH1 0x1F DUP3 ADD AND DUP3 ADD DUP1 PUSH1 0x40 MSTORE POP DUP2 ADD SWAP1 PUSH2 0x947 SWAP2 SWAP1 PUSH2 0x1AB6 JUMP JUMPDEST SWAP1 SWAP3 POP SWAP1 POP JUMPDEST SWAP2 SWAP4 SWAP6 POP SWAP2 SWAP4 SWAP6 JUMP JUMPDEST PUSH2 0x98A PUSH1 0x40 MLOAD DUP1 PUSH1 0x80 ADD PUSH1 0x40 MSTORE DUP1 PUSH1 0x0 DUP2 MSTORE PUSH1 0x20 ADD PUSH1 0x60 DUP2 MSTORE PUSH1 0x20 ADD PUSH1 0x0 PUSH1 0x1 PUSH1 0x1 PUSH1 0xA0 SHL SUB AND DUP2 MSTORE PUSH1 0x20 ADD PUSH1 0x60 DUP2 MSTORE POP SWAP1 JUMP JUMPDEST PUSH1 0x0 DUP3 DUP2 MSTORE PUSH1 0x1 PUSH1 0x20 DUP2 DUP2 MSTORE PUSH1 0x40 SWAP3 DUP4 SWAP1 KECCAK256 DUP4 MLOAD PUSH1 0x80 DUP2 ADD SWAP1 SWAP5 MSTORE DUP1 SLOAD DUP5 MSTORE SWAP2 DUP3 ADD DUP1 SLOAD SWAP2 DUP5 ADD SWAP2 PUSH2 0x9BB SWAP1 PUSH2 0x1A3F JUMP JUMPDEST DUP1 PUSH1 0x1F ADD PUSH1 0x20 DUP1 SWAP2 DIV MUL PUSH1 0x20 ADD PUSH1 0x40 MLOAD SWAP1 DUP2 ADD PUSH1 0x40 MSTORE DUP1 SWAP3 SWAP2 SWAP1 DUP2 DUP2 MSTORE PUSH1 0x20 ADD DUP3 DUP1 SLOAD PUSH2 0x9E7 SWAP1 PUSH2 0x1A3F JUMP JUMPDEST DUP1 ISZERO PUSH2 0xA34 JUMPI DUP1 PUSH1 0x1F LT PUSH2 0xA09 JUMPI PUSH2 0x100 DUP1 DUP4 SLOAD DIV MUL DUP4 MSTORE SWAP2 PUSH1 0x20 ADD SWAP2 PUSH2 0xA34 JUMP JUMPDEST DUP3 ADD SWAP2 SWAP1 PUSH1 0x0 MSTORE PUSH1 0x20 PUSH1 0x0 KECCAK256 SWAP1 JUMPDEST DUP2 SLOAD DUP2 MSTORE SWAP1 PUSH1 0x1 ADD SWAP1 PUSH1 0x20 ADD DUP1 DUP4 GT PUSH2 0xA17 JUMPI DUP3 SWAP1 SUB PUSH1 0x1F AND DUP3 ADD SWAP2 JUMPDEST POP POP POP SWAP2 DUP4 MSTORE POP POP PUSH1 0x2 DUP3 ADD SLOAD PUSH1 0x1 PUSH1 0x1 PUSH1 0xA0 SHL SUB AND PUSH1 0x20 DUP3 ADD MSTORE PUSH1 0x3 DUP3 ADD DUP1 SLOAD PUSH1 0x40 SWAP1 SWAP3 ADD SWAP2 PUSH2 0xA64 SWAP1 PUSH2 0x1A3F JUMP JUMPDEST DUP1 PUSH1 0x1F ADD PUSH1 0x20 DUP1 SWAP2 DIV MUL PUSH1 0x20 ADD PUSH1 0x40 MLOAD SWAP1 DUP2 ADD PUSH1 0x40 MSTORE DUP1 SWAP3 SWAP2 SWAP1 DUP2 DUP2 MSTORE PUSH1 0x20 ADD DUP3 DUP1 SLOAD PUSH2 0xA90 SWAP1 PUSH2 0x1A3F JUMP JUMPDEST DUP1 ISZERO PUSH2 0xADD JUMPI DUP1 PUSH1 0x1F LT PUSH2 0xAB2 JUMPI PUSH2 0x100 DUP1 DUP4 SLOAD DIV MUL DUP4 MSTORE SWAP2 PUSH1 0x20 ADD SWAP2 PUSH2 0xADD JUMP JUMPDEST DUP3 ADD SWAP2 SWAP1 PUSH1 0x0 MSTORE PUSH1 0x20 PUSH1 0x0 KECCAK256 SWAP1 JUMPDEST DUP2 SLOAD DUP2 MSTORE SWAP1 PUSH1 0x1 ADD SWAP1 PUSH1 0x20 ADD DUP1 DUP4 GT PUSH2 0xAC0 JUMPI DUP3 SWAP1 SUB PUSH1 0x1F AND DUP3 ADD SWAP2 JUMPDEST POP POP POP POP POP DUP2 MSTORE POP POP SWAP1 POP DUP1 PUSH1 0x0 ADD MLOAD PUSH1 0x0 SUB PUSH2 0xB0D JUMPI PUSH1 0x40 MLOAD PUSH4 0xE93BA223 PUSH1 0xE0 SHL DUP2 MSTORE PUSH1 0x4 ADD PUSH1 0x40 MLOAD DUP1 SWAP2 SUB SWAP1 REVERT JUMPDEST SWAP2 SWAP1 POP JUMP JUMPDEST PUSH1 0x0 DUP5 DUP2 MSTORE PUSH1 0x1 PUSH1 0x20 MSTORE PUSH1 0x40 DUP2 KECCAK256 DUP1 SLOAD DUP3 SUB PUSH2 0xB41 JUMPI PUSH1 0x40 MLOAD PUSH4 0xE93BA223 PUSH1 0xE0 SHL DUP2 MSTORE PUSH1 0x4 ADD PUSH1 0x40 MLOAD DUP1 SWAP2 SUB SWAP1 REVERT JUMPDEST PUSH1 0x2 DUP2 ADD SLOAD PUSH1 0x1 PUSH1 0x1 PUSH1 0xA0 SHL SUB AND CALLER EQ PUSH2 0xB6E JUMPI PUSH1 0x40 MLOAD PUSH4 0x4F1F2147 PUSH1 0xE0 SHL DUP2 MSTORE PUSH1 0x4 ADD PUSH1 0x40 MLOAD DUP1 SWAP2 SUB SWAP1 REVERT JUMPDEST DUP4 ISZERO DUP1 ISZERO SWAP1 PUSH1 0x1 PUSH1 0x1 PUSH1 0xA0 SHL SUB DUP6 AND ISZERO ISZERO SWAP1 PUSH2 0xBC5 JUMPI PUSH1 0x2 DUP8 DUP8 PUSH1 0x40 MLOAD PUSH2 0xB96 SWAP3 SWAP2 SWAP1 PUSH2 0x1AEC JUMP JUMPDEST SWAP1 DUP2 MSTORE PUSH1 0x20 ADD PUSH1 0x40 MLOAD DUP1 SWAP2 SUB SWAP1 KECCAK256 SLOAD PUSH1 0x0 EQ PUSH2 0xBC5 JUMPI PUSH1 0x40 MLOAD PUSH4 0x7B857A6B PUSH1 0xE0 SHL DUP2 MSTORE PUSH1 0x4 ADD PUSH1 0x40 MLOAD DUP1 SWAP2 SUB SWAP1 REVERT JUMPDEST DUP1 ISZERO PUSH2 0xC02 JUMPI PUSH1 0x1 PUSH1 0x1 PUSH1 0xA0 SHL SUB DUP6 AND PUSH1 0x0 SWAP1 DUP2 MSTORE PUSH1 0x3 PUSH1 0x20 MSTORE PUSH1 0x40 SWAP1 KECCAK256 SLOAD ISZERO PUSH2 0xC02 JUMPI PUSH1 0x40 MLOAD PUSH4 0x16A163B9 PUSH1 0xE1 SHL DUP2 MSTORE PUSH1 0x4 ADD PUSH1 0x40 MLOAD DUP1 SWAP2 SUB SWAP1 REVERT JUMPDEST DUP2 ISZERO PUSH2 0xC62 JUMPI PUSH1 0x2 DUP4 PUSH1 0x1 ADD PUSH1 0x40 MLOAD PUSH2 0xC1B SWAP2 SWAP1 PUSH2 0x1AFC JUMP JUMPDEST SWAP1 DUP2 MSTORE PUSH1 0x40 MLOAD SWAP1 DUP2 SWAP1 SUB PUSH1 0x20 ADD SWAP1 KECCAK256 PUSH1 0x0 SWAP1 SSTORE PUSH1 0x1 DUP4 ADD PUSH2 0xC3D DUP8 DUP10 DUP4 PUSH2 0x1BD7 JUMP JUMPDEST POP DUP8 PUSH1 0x2 DUP9 DUP9 PUSH1 0x40 MLOAD PUSH2 0xC51 SWAP3 SWAP2 SWAP1 PUSH2 0x1AEC JUMP JUMPDEST SWAP1 DUP2 MSTORE PUSH1 0x40 MLOAD SWAP1 DUP2 SWAP1 SUB PUSH1 0x20 ADD SWAP1 KECCAK256 SSTORE JUMPDEST DUP1 ISZERO PUSH2 0xCA8 JUMPI PUSH1 0x2 DUP4 ADD DUP1 SLOAD PUSH1 0x1 PUSH1 0x1 PUSH1 0xA0 SHL SUB SWAP1 DUP2 AND PUSH1 0x0 SWAP1 DUP2 MSTORE PUSH1 0x3 PUSH1 0x20 MSTORE PUSH1 0x40 DUP1 DUP3 KECCAK256 DUP3 SWAP1 SSTORE DUP4 SLOAD PUSH1 0x1 PUSH1 0x1 PUSH1 0xA0 SHL SUB NOT AND SWAP3 DUP10 AND SWAP3 DUP4 OR SWAP1 SWAP4 SSTORE SWAP1 DUP2 MSTORE KECCAK256 DUP9 SWAP1 SSTORE JUMPDEST PUSH1 0x2 DUP4 ADD SLOAD PUSH1 0x40 MLOAD DUP10 SWAP2 PUSH32 0x1B37DB56C92268433E33FDA6783791CB9E5F8FFABABD3952AB40716443F1BF89 SWAP2 PUSH2 0xCEE SWAP2 PUSH1 0x1 DUP9 ADD SWAP2 PUSH1 0x1 PUSH1 0x1 PUSH1 0xA0 SHL SUB SWAP1 SWAP2 AND SWAP1 PUSH2 0x1C98 JUMP JUMPDEST PUSH1 0x40 MLOAD DUP1 SWAP2 SUB SWAP1 LOG2 POP PUSH1 0x1 SWAP8 SWAP7 POP POP POP POP POP POP POP JUMP JUMPDEST PUSH1 0x5 SLOAD PUSH1 0x0 SWAP1 DUP2 SWAP1 PUSH1 0x1 PUSH1 0x1 PUSH1 0xA0 SHL SUB AND PUSH2 0xD24 JUMPI POP PUSH1 0x0 SWAP3 DUP4 SWAP3 POP SWAP1 POP JUMP JUMPDEST PUSH1 0x5 SLOAD PUSH1 0x40 MLOAD PUSH4 0x228907D3 PUSH1 0xE2 SHL DUP2 MSTORE PUSH1 0x4 DUP2 ADD DUP6 SWAP1 MSTORE PUSH1 0x1 PUSH1 0x1 PUSH1 0xA0 SHL SUB SWAP1 SWAP2 AND SWAP1 PUSH4 0x8A241F4C SWAP1 PUSH1 0x24 ADD PUSH1 0x40 DUP1 MLOAD DUP1 DUP4 SUB DUP2 DUP7 GAS STATICCALL ISZERO DUP1 ISZERO PUSH2 0xD6C JUMPI RETURNDATASIZE PUSH1 0x0 DUP1 RETURNDATACOPY RETURNDATASIZE PUSH1 0x0 REVERT JUMPDEST POP POP POP POP PUSH1 0x40 MLOAD RETURNDATASIZE PUSH1 0x1F NOT PUSH1 0x1F DUP3 ADD AND DUP3 ADD DUP1 PUSH1 0x40 MSTORE POP DUP2 ADD SWAP1 PUSH2 0xD90 SWAP2 SWAP1 PUSH2 0x1A92 JUMP JUMPDEST SWAP2 POP SWAP2 POP SWAP2 POP SWAP2 JUMP JUMPDEST PUSH1 0x0 DUP4 DUP2 MSTORE PUSH1 0x1 PUSH1 0x20 MSTORE PUSH1 0x40 DUP2 KECCAK256 DUP1 SLOAD DUP3 SUB PUSH2 0xDC8 JUMPI PUSH1 0x40 MLOAD PUSH4 0xE93BA223 PUSH1 0xE0 SHL DUP2 MSTORE PUSH1 0x4 ADD PUSH1 0x40 MLOAD DUP1 SWAP2 SUB SWAP1 REVERT JUMPDEST PUSH1 0x2 DUP2 ADD SLOAD PUSH1 0x1 PUSH1 0x1 PUSH1 0xA0 SHL SUB AND CALLER EQ PUSH2 0xDF5 JUMPI PUSH1 0x40 MLOAD PUSH4 0x4F1F2147 PUSH1 0xE0 SHL DUP2 MSTORE PUSH1 0x4 ADD PUSH1 0x40 MLOAD DUP1 SWAP2 SUB SWAP1 REVERT JUMPDEST PUSH1 0x3 DUP2 ADD PUSH2 0xE04 DUP5 DUP7 DUP4 PUSH2 0x1BD7 JUMP JUMPDEST POP PUSH1 0x2 DUP2 ADD SLOAD PUSH1 0x40 MLOAD DUP7 SWAP2 PUSH32 0x1B37DB56C92268433E33FDA6783791CB9E5F8FFABABD3952AB40716443F1BF89 SWAP2 PUSH2 0xE4B SWAP2 PUSH1 0x1 DUP7 ADD SWAP2 PUSH1 0x1 PUSH1 0x1 PUSH1 0xA0 SHL SUB SWAP1 SWAP2 AND SWAP1 PUSH2 0x1C98 JUMP JUMPDEST PUSH1 0x40 MLOAD DUP1 SWAP2 SUB SWAP1 LOG2 PUSH1 0x1 SWAP2 POP POP JUMPDEST SWAP4 SWAP3 POP POP POP JUMP JUMPDEST PUSH1 0x6 SLOAD PUSH1 0x0 SWAP1 DUP2 SWAP1 PUSH1 0x1 PUSH1 0x1 PUSH1 0xA0 SHL SUB AND PUSH2 0xE80 JUMPI POP PUSH1 0x0 SWAP3 DUP4 SWAP3 POP SWAP1 POP JUMP JUMPDEST PUSH1 0x6 SLOAD PUSH1 0x40 MLOAD PUSH4 0x20E4AB97 PUSH1 0xE2 SHL DUP2 MSTORE PUSH1 0x4 DUP2 ADD DUP6 SWAP1 MSTORE PUSH1 0x1 PUSH1 0x1 PUSH1 0xA0 SHL SUB SWAP1 SWAP2 AND SWAP1 PUSH4 0x8392AE5C SWAP1 PUSH1 0x24 ADD PUSH1 0x40 DUP1 MLOAD DUP1 DUP4 SUB DUP2 DUP7 GAS STATICCALL ISZERO DUP1 ISZERO PUSH2 0xEC8 JUMPI RETURNDATASIZE PUSH1 0x0 DUP1 RETURNDATACOPY RETURNDATASIZE PUSH1 0x0 REVERT JUMPDEST POP POP POP POP PUSH1 0x40 MLOAD RETURNDATASIZE PUSH1 0x1F NOT PUSH1 0x1F DUP3 ADD AND DUP3 ADD DUP1 PUSH1 0x40 MSTORE POP DUP2 ADD SWAP1 PUSH2 0xD90 SWAP2 SWAP1 PUSH2 0x1AB6 JUMP JUMPDEST PUSH1 0x60 PUSH1 0x4 DUP1 SLOAD DUP1 PUSH1 0x20 MUL PUSH1 0x20 ADD PUSH1 0x40 MLOAD SWAP1 DUP2 ADD PUSH1 0x40 MSTORE DUP1 SWAP3 SWAP2 SWAP1 DUP2 DUP2 MSTORE PUSH1 0x20 ADD PUSH1 0x0 SWAP1 JUMPDEST DUP3 DUP3 LT ISZERO PUSH2 0xFBC JUMPI DUP4 DUP3 SWAP1 PUSH1 0x0 MSTORE PUSH1 0x20 PUSH1 0x0 KECCAK256 ADD DUP1 SLOAD PUSH2 0xF2F SWAP1 PUSH2 0x1A3F JUMP JUMPDEST DUP1 PUSH1 0x1F ADD PUSH1 0x20 DUP1 SWAP2 DIV MUL PUSH1 0x20 ADD PUSH1 0x40 MLOAD SWAP1 DUP2 ADD PUSH1 0x40 MSTORE DUP1 SWAP3 SWAP2 SWAP1 DUP2 DUP2 MSTORE PUSH1 0x20 ADD DUP3 DUP1 SLOAD PUSH2 0xF5B SWAP1 PUSH2 0x1A3F JUMP JUMPDEST DUP1 ISZERO PUSH2 0xFA8 JUMPI DUP1 PUSH1 0x1F LT PUSH2 0xF7D JUMPI PUSH2 0x100 DUP1 DUP4 SLOAD DIV MUL DUP4 MSTORE SWAP2 PUSH1 0x20 ADD SWAP2 PUSH2 0xFA8 JUMP JUMPDEST DUP3 ADD SWAP2 SWAP1 PUSH1 0x0 MSTORE PUSH1 0x20 PUSH1 0x0 KECCAK256 SWAP1 JUMPDEST DUP2 SLOAD DUP2 MSTORE SWAP1 PUSH1 0x1 ADD SWAP1 PUSH1 0x20 ADD DUP1 DUP4 GT PUSH2 0xF8B JUMPI DUP3 SWAP1 SUB PUSH1 0x1F AND DUP3 ADD SWAP2 JUMPDEST POP POP POP POP POP DUP2 MSTORE PUSH1 0x20 ADD SWAP1 PUSH1 0x1 ADD SWAP1 PUSH2 0xF10 JUMP JUMPDEST POP POP POP POP SWAP1 POP SWAP1 JUMP JUMPDEST PUSH2 0xFF9 PUSH1 0x40 MLOAD DUP1 PUSH1 0x80 ADD PUSH1 0x40 MSTORE DUP1 PUSH1 0x0 DUP2 MSTORE PUSH1 0x20 ADD PUSH1 0x60 DUP2 MSTORE PUSH1 0x20 ADD PUSH1 0x0 PUSH1 0x1 PUSH1 0x1 PUSH1 0xA0 SHL SUB AND DUP2 MSTORE PUSH1 0x20 ADD PUSH1 0x60 DUP2 MSTORE POP SWAP1 JUMP JUMPDEST PUSH1 0x0 PUSH1 0x2 DUP5 DUP5 PUSH1 0x40 MLOAD PUSH2 0x100D SWAP3 SWAP2 SWAP1 PUSH2 0x1AEC JUMP JUMPDEST SWAP1 DUP2 MSTORE PUSH1 0x20 ADD PUSH1 0x40 MLOAD DUP1 SWAP2 SUB SWAP1 KECCAK256 SLOAD SWAP1 POP DUP1 PUSH1 0x0 SUB PUSH2 0x103F JUMPI PUSH1 0x40 MLOAD PUSH4 0xE93BA223 PUSH1 0xE0 SHL DUP2 MSTORE PUSH1 0x4 ADD PUSH1 0x40 MLOAD DUP1 SWAP2 SUB SWAP1 REVERT JUMPDEST PUSH1 0x0 DUP2 DUP2 MSTORE PUSH1 0x1 PUSH1 0x20 DUP2 DUP2 MSTORE PUSH1 0x40 SWAP3 DUP4 SWAP1 KECCAK256 DUP4 MLOAD PUSH1 0x80 DUP2 ADD SWAP1 SWAP5 MSTORE DUP1 SLOAD DUP5 MSTORE SWAP2 DUP3 ADD DUP1 SLOAD SWAP2 DUP5 ADD SWAP2 PUSH2 0x1070 SWAP1 PUSH2 0x1A3F JUMP JUMPDEST DUP1 PUSH1 0x1F ADD PUSH1 0x20 DUP1 SWAP2 DIV MUL PUSH1 0x20 ADD PUSH1 0x40 MLOAD SWAP1 DUP2 ADD PUSH1 0x40 MSTORE DUP1 SWAP3 SWAP2 SWAP1 DUP2 DUP2 MSTORE PUSH1 0x20 ADD DUP3 DUP1 SLOAD PUSH2 0x109C SWAP1 PUSH2 0x1A3F JUMP JUMPDEST DUP1 ISZERO PUSH2 0x10E9 JUMPI DUP1 PUSH1 0x1F LT PUSH2 0x10BE JUMPI PUSH2 0x100 DUP1 DUP4 SLOAD DIV MUL DUP4 MSTORE SWAP2 PUSH1 0x20 ADD SWAP2 PUSH2 0x10E9 JUMP JUMPDEST DUP3 ADD SWAP2 SWAP1 PUSH1 0x0 MSTORE PUSH1 0x20 PUSH1 0x0 KECCAK256 SWAP1 JUMPDEST DUP2 SLOAD DUP2 MSTORE SWAP1 PUSH1 0x1 ADD SWAP1 PUSH1 0x20 ADD DUP1 DUP4 GT PUSH2 0x10CC JUMPI DUP3 SWAP1 SUB PUSH1 0x1F AND DUP3 ADD SWAP2 JUMPDEST POP POP POP SWAP2 DUP4 MSTORE POP POP PUSH1 0x2 DUP3 ADD SLOAD PUSH1 0x1 PUSH1 0x1 PUSH1 0xA0 SHL SUB AND PUSH1 0x20 DUP3 ADD MSTORE PUSH1 0x3 DUP3 ADD DUP1 SLOAD PUSH1 0x40 SWAP1 SWAP3 ADD SWAP2 PUSH2 0x1119 SWAP1 PUSH2 0x1A3F JUMP JUMPDEST DUP1 PUSH1 0x1F ADD PUSH1 0x20 DUP1 SWAP2 DIV MUL PUSH1 0x20 ADD PUSH1 0x40 MLOAD SWAP1 DUP2 ADD PUSH1 0x40 MSTORE DUP1 SWAP3 SWAP2 SWAP1 DUP2 DUP2 MSTORE PUSH1 0x20 ADD DUP3 DUP1 SLOAD PUSH2 0x1145 SWAP1 PUSH2 0x1A3F JUMP JUMPDEST DUP1 ISZERO PUSH2 0x1192 JUMPI DUP1 PUSH1 0x1F LT PUSH2 0x1167 JUMPI PUSH2 0x100 DUP1 DUP4 SLOAD DIV MUL DUP4 MSTORE SWAP2 PUSH1 0x20 ADD SWAP2 PUSH2 0x1192 JUMP JUMPDEST DUP3 ADD SWAP2 SWAP1 PUSH1 0x0 MSTORE PUSH1 0x20 PUSH1 0x0 KECCAK256 SWAP1 JUMPDEST DUP2 SLOAD DUP2 MSTORE SWAP1 PUSH1 0x1 ADD SWAP1 PUSH1 0x20 ADD DUP1 DUP4 GT PUSH2 0x1175 JUMPI DUP3 SWAP1 SUB PUSH1 0x1F AND DUP3 ADD SWAP2 JUMPDEST POP POP POP POP POP DUP2 MSTORE POP POP SWAP2 POP POP SWAP3 SWAP2 POP POP JUMP JUMPDEST PUSH1 0x0 PUSH1 0x1 PUSH1 0x0 SLOAD PUSH2 0x11B5 SWAP2 SWAP1 PUSH2 0x1D48 JUMP JUMPDEST SWAP1 POP SWAP1 JUMP JUMPDEST PUSH1 0x5 SLOAD PUSH1 0x0 SWAP1 PUSH1 0x1 PUSH1 0x1 PUSH1 0xA0 SHL SUB AND PUSH2 0x11D5 JUMPI POP PUSH1 0x0 SWAP2 SWAP1 POP JUMP JUMPDEST PUSH1 0x5 SLOAD PUSH1 0x40 MLOAD PUSH4 0x89370D8B PUSH1 0xE0 SHL DUP2 MSTORE PUSH1 0x4 DUP2 ADD DUP5 SWAP1 MSTORE PUSH1 0x1 PUSH1 0x1 PUSH1 0xA0 SHL SUB SWAP1 SWAP2 AND SWAP1 PUSH4 0x89370D8B SWAP1 PUSH1 0x24 ADD PUSH1 0x20 PUSH1 0x40 MLOAD DUP1 DUP4 SUB DUP2 DUP7 GAS STATICCALL ISZERO DUP1 ISZERO PUSH2 0x121E JUMPI RETURNDATASIZE PUSH1 0x0 DUP1 RETURNDATACOPY RETURNDATASIZE PUSH1 0x0 REVERT JUMPDEST POP POP POP POP PUSH1 0x40 MLOAD RETURNDATASIZE PUSH1 0x1F NOT PUSH1 0x1F DUP3 ADD AND DUP3 ADD DUP1 PUSH1 0x40 MSTORE POP DUP2 ADD SWAP1 PUSH2 0x1242 SWAP2 SWAP1 PUSH2 0x1A79 JUMP JUMPDEST SWAP3 SWAP2 POP POP JUMP JUMPDEST PUSH1 0x0 DUP5 DUP2 SUB PUSH2 0x126A JUMPI PUSH1 0x40 MLOAD PUSH4 0x75893CC1 PUSH1 0xE1 SHL DUP2 MSTORE PUSH1 0x4 ADD PUSH1 0x40 MLOAD DUP1 SWAP2 SUB SWAP1 REVERT JUMPDEST PUSH1 0x1 PUSH1 0x1 PUSH1 0xA0 SHL SUB DUP5 AND PUSH2 0x1291 JUMPI PUSH1 0x40 MLOAD PUSH4 0xE6C4247B PUSH1 0xE0 SHL DUP2 MSTORE PUSH1 0x4 ADD PUSH1 0x40 MLOAD DUP1 SWAP2 SUB SWAP1 REVERT JUMPDEST PUSH1 0x2 DUP7 DUP7 PUSH1 0x40 MLOAD PUSH2 0x12A3 SWAP3 SWAP2 SWAP1 PUSH2 0x1AEC JUMP JUMPDEST SWAP1 DUP2 MSTORE PUSH1 0x20 ADD PUSH1 0x40 MLOAD DUP1 SWAP2 SUB SWAP1 KECCAK256 SLOAD PUSH1 0x0 EQ PUSH2 0x12D2 JUMPI PUSH1 0x40 MLOAD PUSH4 0x7B857A6B PUSH1 0xE0 SHL DUP2 MSTORE PUSH1 0x4 ADD PUSH1 0x40 MLOAD DUP1 SWAP2 SUB SWAP1 REVERT JUMPDEST PUSH1 0x1 PUSH1 0x1 PUSH1 0xA0 SHL SUB DUP5 AND PUSH1 0x0 SWAP1 DUP2 MSTORE PUSH1 0x3 PUSH1 0x20 MSTORE PUSH1 0x40 SWAP1 KECCAK256 SLOAD ISZERO PUSH2 0x1309 JUMPI PUSH1 0x40 MLOAD PUSH4 0x16A163B9 PUSH1 0xE1 SHL DUP2 MSTORE PUSH1 0x4 ADD PUSH1 0x40 MLOAD DUP1 SWAP2 SUB SWAP1 REVERT JUMPDEST PUSH7 0x11C37937E08000 CALLVALUE LT ISZERO PUSH2 0x1330 JUMPI PUSH1 0x40 MLOAD PUSH3 0x976F75 PUSH1 0xE2 SHL DUP2 MSTORE PUSH1 0x4 ADD PUSH1 0x40 MLOAD DUP1 SWAP2 SUB SWAP1 REVERT JUMPDEST PUSH1 0x0 DUP1 SLOAD SWAP1 DUP1 PUSH2 0x133F DUP4 PUSH2 0x1D5B JUMP JUMPDEST SWAP2 SWAP1 POP SSTORE SWAP1 POP PUSH1 0x40 MLOAD DUP1 PUSH1 0x80 ADD PUSH1 0x40 MSTORE DUP1 DUP3 DUP2 MSTORE PUSH1 0x20 ADD DUP8 DUP8 DUP1 DUP1 PUSH1 0x1F ADD PUSH1 0x20 DUP1 SWAP2 DIV MUL PUSH1 0x20 ADD PUSH1 0x40 MLOAD SWAP1 DUP2 ADD PUSH1 0x40 MSTORE DUP1 SWAP4 SWAP3 SWAP2 SWAP1 DUP2 DUP2 MSTORE PUSH1 0x20 ADD DUP4 DUP4 DUP1 DUP3 DUP5 CALLDATACOPY PUSH1 0x0 SWAP3 ADD SWAP2 SWAP1 SWAP2 MSTORE POP POP POP SWAP1 DUP3 MSTORE POP PUSH1 0x1 PUSH1 0x1 PUSH1 0xA0 SHL SUB DUP7 AND PUSH1 0x20 DUP1 DUP4 ADD SWAP2 SWAP1 SWAP2 MSTORE PUSH1 0x40 DUP1 MLOAD PUSH1 0x1F DUP8 ADD DUP4 SWAP1 DIV DUP4 MUL DUP2 ADD DUP4 ADD DUP3 MSTORE DUP7 DUP2 MSTORE SWAP3 ADD SWAP2 SWAP1 DUP7 SWAP1 DUP7 SWAP1 DUP2 SWAP1 DUP5 ADD DUP4 DUP3 DUP1 DUP3 DUP5 CALLDATACOPY PUSH1 0x0 SWAP3 ADD DUP3 SWAP1 MSTORE POP SWAP4 SWAP1 SWAP5 MSTORE POP POP DUP4 DUP2 MSTORE PUSH1 0x1 PUSH1 0x20 DUP2 DUP2 MSTORE PUSH1 0x40 SWAP1 SWAP3 KECCAK256 DUP5 MLOAD DUP2 SSTORE SWAP2 DUP5 ADD MLOAD SWAP2 SWAP3 POP DUP3 ADD SWAP1 PUSH2 0x13FF SWAP1 DUP3 PUSH2 0x1D74 JUMP JUMPDEST POP PUSH1 0x40 DUP3 ADD MLOAD PUSH1 0x2 DUP3 ADD DUP1 SLOAD PUSH1 0x1 PUSH1 0x1 PUSH1 0xA0 SHL SUB NOT AND PUSH1 0x1 PUSH1 0x1 PUSH1 0xA0 SHL SUB SWAP1 SWAP3 AND SWAP2 SWAP1 SWAP2 OR SWAP1 SSTORE PUSH1 0x60 DUP3 ADD MLOAD PUSH1 0x3 DUP3 ADD SWAP1 PUSH2 0x143A SWAP1 DUP3 PUSH2 0x1D74 JUMP JUMPDEST POP SWAP1 POP POP DUP1 PUSH1 0x2 DUP8 DUP8 PUSH1 0x40 MLOAD PUSH2 0x1451 SWAP3 SWAP2 SWAP1 PUSH2 0x1AEC JUMP JUMPDEST SWAP1 DUP2 MSTORE PUSH1 0x40 DUP1 MLOAD PUSH1 0x20 SWAP3 DUP2 SWAP1 SUB DUP4 ADD SWAP1 KECCAK256 SWAP3 SWAP1 SWAP3 SSTORE PUSH1 0x1 PUSH1 0x1 PUSH1 0xA0 SHL SUB DUP7 AND PUSH1 0x0 SWAP1 DUP2 MSTORE PUSH1 0x3 SWAP1 SWAP2 MSTORE SWAP1 DUP2 KECCAK256 DUP3 SWAP1 SSTORE PUSH1 0x4 DUP1 SLOAD PUSH1 0x1 DUP2 ADD DUP3 SSTORE SWAP2 MSTORE PUSH32 0x8A35ACFBC15FF81A39AE7D344FD709F28E8600B4AA8C65C6B64BFE7FE36BD19B ADD PUSH2 0x14B9 DUP7 DUP9 DUP4 PUSH2 0x1BD7 JUMP JUMPDEST POP DUP1 PUSH32 0xAEF1FCDF962A03943B677AE3B92EF1B34C972AEEF794ED6E9BA5F599B461883B DUP8 DUP8 DUP8 PUSH1 0x40 MLOAD PUSH2 0x14EE SWAP4 SWAP3 SWAP2 SWAP1 PUSH2 0x1E34 JUMP JUMPDEST PUSH1 0x40 MLOAD DUP1 SWAP2 SUB SWAP1 LOG2 SWAP6 SWAP5 POP POP POP POP POP JUMP JUMPDEST PUSH1 0x4 SLOAD PUSH1 0x60 SWAP1 DUP1 DUP5 LT PUSH2 0x153F JUMPI PUSH1 0x40 DUP1 MLOAD PUSH1 0x0 DUP1 DUP3 MSTORE PUSH1 0x20 DUP3 ADD SWAP1 SWAP3 MSTORE SWAP1 PUSH2 0x1537 JUMP JUMPDEST PUSH1 0x60 DUP2 MSTORE PUSH1 0x20 ADD SWAP1 PUSH1 0x1 SWAP1 SUB SWAP1 DUP2 PUSH2 0x1522 JUMPI SWAP1 POP JUMPDEST POP SWAP2 POP PUSH2 0x16A3 JUMP JUMPDEST PUSH1 0x0 PUSH2 0x154B DUP5 DUP7 PUSH2 0x1E76 JUMP JUMPDEST SWAP1 POP DUP2 DUP2 GT ISZERO PUSH2 0x1558 JUMPI POP DUP1 JUMPDEST PUSH1 0x0 PUSH2 0x1564 DUP7 DUP4 PUSH2 0x1D48 JUMP JUMPDEST SWAP1 POP DUP1 PUSH8 0xFFFFFFFFFFFFFFFF DUP2 GT ISZERO PUSH2 0x157F JUMPI PUSH2 0x157F PUSH2 0x1B72 JUMP JUMPDEST PUSH1 0x40 MLOAD SWAP1 DUP1 DUP3 MSTORE DUP1 PUSH1 0x20 MUL PUSH1 0x20 ADD DUP3 ADD PUSH1 0x40 MSTORE DUP1 ISZERO PUSH2 0x15B2 JUMPI DUP2 PUSH1 0x20 ADD JUMPDEST PUSH1 0x60 DUP2 MSTORE PUSH1 0x20 ADD SWAP1 PUSH1 0x1 SWAP1 SUB SWAP1 DUP2 PUSH2 0x159D JUMPI SWAP1 POP JUMPDEST POP SWAP4 POP PUSH1 0x0 JUMPDEST DUP2 DUP2 LT ISZERO PUSH2 0x169F JUMPI PUSH1 0x4 PUSH2 0x15CC DUP3 DUP10 PUSH2 0x1E76 JUMP JUMPDEST DUP2 SLOAD DUP2 LT PUSH2 0x15DC JUMPI PUSH2 0x15DC PUSH2 0x1E89 JUMP JUMPDEST SWAP1 PUSH1 0x0 MSTORE PUSH1 0x20 PUSH1 0x0 KECCAK256 ADD DUP1 SLOAD PUSH2 0x15F1 SWAP1 PUSH2 0x1A3F JUMP JUMPDEST DUP1 PUSH1 0x1F ADD PUSH1 0x20 DUP1 SWAP2 DIV MUL PUSH1 0x20 ADD PUSH1 0x40 MLOAD SWAP1 DUP2 ADD PUSH1 0x40 MSTORE DUP1 SWAP3 SWAP2 SWAP1 DUP2 DUP2 MSTORE PUSH1 0x20 ADD DUP3 DUP1 SLOAD PUSH2 0x161D SWAP1 PUSH2 0x1A3F JUMP JUMPDEST DUP1 ISZERO PUSH2 0x166A JUMPI DUP1 PUSH1 0x1F LT PUSH2 0x163F JUMPI PUSH2 0x100 DUP1 DUP4 SLOAD DIV MUL DUP4 MSTORE SWAP2 PUSH1 0x20 ADD SWAP2 PUSH2 0x166A JUMP JUMPDEST DUP3 ADD SWAP2 SWAP1 PUSH1 0x0 MSTORE PUSH1 0x20 PUSH1 0x0 KECCAK256 SWAP1 JUMPDEST DUP2 SLOAD DUP2 MSTORE SWAP1 PUSH1 0x1 ADD SWAP1 PUSH1 0x20 ADD DUP1 DUP4 GT PUSH2 0x164D JUMPI DUP3 SWAP1 SUB PUSH1 0x1F AND DUP3 ADD SWAP2 JUMPDEST POP POP POP POP POP DUP6 DUP3 DUP2 MLOAD DUP2 LT PUSH2 0x1681 JUMPI PUSH2 0x1681 PUSH2 0x1E89 JUMP JUMPDEST PUSH1 0x20 MUL PUSH1 0x20 ADD ADD DUP2 SWAP1 MSTORE POP DUP1 DUP1 PUSH2 0x1697 SWAP1 PUSH2 0x1D5B JUMP JUMPDEST SWAP2 POP POP PUSH2 0x15B8 JUMP JUMPDEST POP POP POP JUMPDEST SWAP3 POP SWAP3 SWAP1 POP JUMP JUMPDEST DUP1 CALLDATALOAD PUSH1 0x1 PUSH1 0x1 PUSH1 0xA0 SHL SUB DUP2 AND DUP2 EQ PUSH2 0xB0D JUMPI PUSH1 0x0 DUP1 REVERT JUMPDEST PUSH1 0x0 PUSH1 0x20 DUP3 DUP5 SUB SLT ISZERO PUSH2 0x16D3 JUMPI PUSH1 0x0 DUP1 REVERT JUMPDEST PUSH2 0xE59 DUP3 PUSH2 0x16AA JUMP JUMPDEST PUSH1 0x0 DUP2 MLOAD DUP1 DUP5 MSTORE PUSH1 0x0 JUMPDEST DUP2 DUP2 LT ISZERO PUSH2 0x1702 JUMPI PUSH1 0x20 DUP2 DUP6 ADD DUP2 ADD MLOAD DUP7 DUP4 ADD DUP3 ADD MSTORE ADD PUSH2 0x16E6 JUMP JUMPDEST POP PUSH1 0x0 PUSH1 0x20 DUP3 DUP7 ADD ADD MSTORE PUSH1 0x20 PUSH1 0x1F NOT PUSH1 0x1F DUP4 ADD AND DUP6 ADD ADD SWAP2 POP POP SWAP3 SWAP2 POP POP JUMP JUMPDEST DUP1 MLOAD DUP3 MSTORE PUSH1 0x0 PUSH1 0x20 DUP3 ADD MLOAD PUSH1 0x80 PUSH1 0x20 DUP6 ADD MSTORE PUSH2 0x1741 PUSH1 0x80 DUP6 ADD DUP3 PUSH2 0x16DC JUMP JUMPDEST SWAP1 POP PUSH1 0x1 PUSH1 0x1 PUSH1 0xA0 SHL SUB PUSH1 0x40 DUP5 ADD MLOAD AND PUSH1 0x40 DUP6 ADD MSTORE PUSH1 0x60 DUP4 ADD MLOAD DUP5 DUP3 SUB PUSH1 0x60 DUP7 ADD MSTORE PUSH2 0x176D DUP3 DUP3 PUSH2 0x16DC JUMP JUMPDEST SWAP6 SWAP5 POP POP POP POP POP JUMP JUMPDEST PUSH1 0x20 DUP2 MSTORE PUSH1 0x0 PUSH2 0xE59 PUSH1 0x20 DUP4 ADD DUP5 PUSH2 0x1722 JUMP JUMPDEST PUSH1 0x0 PUSH1 0x20 DUP3 DUP5 SUB SLT ISZERO PUSH2 0x179B JUMPI PUSH1 0x0 DUP1 REVERT JUMPDEST POP CALLDATALOAD SWAP2 SWAP1 POP JUMP JUMPDEST PUSH1 0xC0 DUP2 MSTORE PUSH1 0x0 PUSH2 0x17B5 PUSH1 0xC0 DUP4 ADD DUP10 PUSH2 0x1722 JUMP JUMPDEST PUSH1 0x20 DUP4 ADD SWAP8 SWAP1 SWAP8 MSTORE POP PUSH1 0x40 DUP2 ADD SWAP5 SWAP1 SWAP5 MSTORE PUSH1 0x60 DUP5 ADD SWAP3 SWAP1 SWAP3 MSTORE PUSH1 0x80 DUP4 ADD MSTORE PUSH1 0xFF AND PUSH1 0xA0 SWAP1 SWAP2 ADD MSTORE SWAP2 SWAP1 POP JUMP JUMPDEST PUSH1 0x0 DUP1 DUP4 PUSH1 0x1F DUP5 ADD SLT PUSH2 0x17F3 JUMPI PUSH1 0x0 DUP1 REVERT JUMPDEST POP DUP2 CALLDATALOAD PUSH8 0xFFFFFFFFFFFFFFFF DUP2 GT ISZERO PUSH2 0x180B JUMPI PUSH1 0x0 DUP1 REVERT JUMPDEST PUSH1 0x20 DUP4 ADD SWAP2 POP DUP4 PUSH1 0x20 DUP3 DUP6 ADD ADD GT ISZERO PUSH2 0x16A3 JUMPI PUSH1 0x0 DUP1 REVERT JUMPDEST PUSH1 0x0 DUP1 PUSH1 0x0 DUP1 PUSH1 0x60 DUP6 DUP8 SUB SLT ISZERO PUSH2 0x1839 JUMPI PUSH1 0x0 DUP1 REVERT JUMPDEST DUP5 CALLDATALOAD SWAP4 POP PUSH1 0x20 DUP6 ADD CALLDATALOAD PUSH8 0xFFFFFFFFFFFFFFFF DUP2 GT ISZERO PUSH2 0x1857 JUMPI PUSH1 0x0 DUP1 REVERT JUMPDEST PUSH2 0x1863 DUP8 DUP3 DUP9 ADD PUSH2 0x17E1 JUMP JUMPDEST SWAP1 SWAP5 POP SWAP3 POP PUSH2 0x1876 SWAP1 POP PUSH1 0x40 DUP7 ADD PUSH2 0x16AA JUMP JUMPDEST SWAP1 POP SWAP3 SWAP6 SWAP2 SWAP5 POP SWAP3 POP JUMP JUMPDEST PUSH1 0x0 DUP1 PUSH1 0x0 PUSH1 0x40 DUP5 DUP7 SUB SLT ISZERO PUSH2 0x1896 JUMPI PUSH1 0x0 DUP1 REVERT JUMPDEST DUP4 CALLDATALOAD SWAP3 POP PUSH1 0x20 DUP5 ADD CALLDATALOAD PUSH8 0xFFFFFFFFFFFFFFFF DUP2 GT ISZERO PUSH2 0x18B4 JUMPI PUSH1 0x0 DUP1 REVERT JUMPDEST PUSH2 0x18C0 DUP7 DUP3 DUP8 ADD PUSH2 0x17E1 JUMP JUMPDEST SWAP5 SWAP8 SWAP1 SWAP7 POP SWAP4 SWAP5 POP POP POP POP JUMP JUMPDEST PUSH1 0x0 DUP2 MLOAD DUP1 DUP5 MSTORE PUSH1 0x20 DUP1 DUP6 ADD DUP1 DUP2 SWAP7 POP DUP4 PUSH1 0x5 SHL DUP2 ADD SWAP2 POP DUP3 DUP7 ADD PUSH1 0x0 JUMPDEST DUP6 DUP2 LT ISZERO PUSH2 0x1915 JUMPI DUP3 DUP5 SUB DUP10 MSTORE PUSH2 0x1903 DUP5 DUP4 MLOAD PUSH2 0x16DC JUMP JUMPDEST SWAP9 DUP6 ADD SWAP9 SWAP4 POP SWAP1 DUP5 ADD SWAP1 PUSH1 0x1 ADD PUSH2 0x18EB JUMP JUMPDEST POP SWAP2 SWAP8 SWAP7 POP POP POP POP POP POP POP JUMP JUMPDEST PUSH1 0x20 DUP2 MSTORE PUSH1 0x0 PUSH2 0xE59 PUSH1 0x20 DUP4 ADD DUP5 PUSH2 0x18CD JUMP JUMPDEST PUSH1 0x0 DUP1 PUSH1 0x20 DUP4 DUP6 SUB SLT ISZERO PUSH2 0x1948 JUMPI PUSH1 0x0 DUP1 REVERT JUMPDEST DUP3 CALLDATALOAD PUSH8 0xFFFFFFFFFFFFFFFF DUP2 GT ISZERO PUSH2 0x195F JUMPI PUSH1 0x0 DUP1 REVERT JUMPDEST PUSH2 0x196B DUP6 DUP3 DUP7 ADD PUSH2 0x17E1 JUMP JUMPDEST SWAP1 SWAP7 SWAP1 SWAP6 POP SWAP4 POP POP POP POP JUMP JUMPDEST PUSH1 0x0 DUP1 PUSH1 0x0 DUP1 PUSH1 0x0 PUSH1 0x60 DUP7 DUP9 SUB SLT ISZERO PUSH2 0x198F JUMPI PUSH1 0x0 DUP1 REVERT JUMPDEST DUP6 CALLDATALOAD PUSH8 0xFFFFFFFFFFFFFFFF DUP1 DUP3 GT ISZERO PUSH2 0x19A7 JUMPI PUSH1 0x0 DUP1 REVERT JUMPDEST PUSH2 0x19B3 DUP10 DUP4 DUP11 ADD PUSH2 0x17E1 JUMP JUMPDEST SWAP1 SWAP8 POP SWAP6 POP DUP6 SWAP2 POP PUSH2 0x19C7 PUSH1 0x20 DUP10 ADD PUSH2 0x16AA JUMP JUMPDEST SWAP5 POP PUSH1 0x40 DUP9 ADD CALLDATALOAD SWAP2 POP DUP1 DUP3 GT ISZERO PUSH2 0x19DD JUMPI PUSH1 0x0 DUP1 REVERT JUMPDEST POP PUSH2 0x19EA DUP9 DUP3 DUP10 ADD PUSH2 0x17E1 JUMP JUMPDEST SWAP7 SWAP10 SWAP6 SWAP9 POP SWAP4 SWAP7 POP SWAP3 SWAP5 SWAP4 SWAP3 POP POP POP JUMP JUMPDEST PUSH1 0x0 DUP1 PUSH1 0x40 DUP4 DUP6 SUB SLT ISZERO PUSH2 0x1A0E JUMPI PUSH1 0x0 DUP1 REVERT JUMPDEST POP POP DUP1 CALLDATALOAD SWAP3 PUSH1 0x20 SWAP1 SWAP2 ADD CALLDATALOAD SWAP2 POP JUMP JUMPDEST PUSH1 0x40 DUP2 MSTORE PUSH1 0x0 PUSH2 0x1A30 PUSH1 0x40 DUP4 ADD DUP6 PUSH2 0x18CD JUMP JUMPDEST SWAP1 POP DUP3 PUSH1 0x20 DUP4 ADD MSTORE SWAP4 SWAP3 POP POP POP JUMP JUMPDEST PUSH1 0x1 DUP2 DUP2 SHR SWAP1 DUP3 AND DUP1 PUSH2 0x1A53 JUMPI PUSH1 0x7F DUP3 AND SWAP2 POP JUMPDEST PUSH1 0x20 DUP3 LT DUP2 SUB PUSH2 0x1A73 JUMPI PUSH4 0x4E487B71 PUSH1 0xE0 SHL PUSH1 0x0 MSTORE PUSH1 0x22 PUSH1 0x4 MSTORE PUSH1 0x24 PUSH1 0x0 REVERT JUMPDEST POP SWAP2 SWAP1 POP JUMP JUMPDEST PUSH1 0x0 PUSH1 0x20 DUP3 DUP5 SUB SLT ISZERO PUSH2 0x1A8B JUMPI PUSH1 0x0 DUP1 REVERT JUMPDEST POP MLOAD SWAP2 SWAP1 POP JUMP JUMPDEST PUSH1 0x0 DUP1 PUSH1 0x40 DUP4 DUP6 SUB SLT ISZERO PUSH2 0x1AA5 JUMPI PUSH1 0x0 DUP1 REVERT JUMPDEST POP POP DUP1 MLOAD PUSH1 0x20 SWAP1 SWAP2 ADD MLOAD SWAP1 SWAP3 SWAP1 SWAP2 POP JUMP JUMPDEST PUSH1 0x0 DUP1 PUSH1 0x40 DUP4 DUP6 SUB SLT ISZERO PUSH2 0x1AC9 JUMPI PUSH1 0x0 DUP1 REVERT JUMPDEST DUP3 MLOAD SWAP2 POP PUSH1 0x20 DUP4 ADD MLOAD PUSH1 0xFF DUP2 AND DUP2 EQ PUSH2 0x1AE1 JUMPI PUSH1 0x0 DUP1 REVERT JUMPDEST DUP1 SWAP2 POP POP SWAP3 POP SWAP3 SWAP1 POP JUMP JUMPDEST DUP2 DUP4 DUP3 CALLDATACOPY PUSH1 0x0 SWAP2 ADD SWAP1 DUP2 MSTORE SWAP2 SWAP1 POP JUMP JUMPDEST PUSH1 0x0 DUP1 DUP4 SLOAD PUSH2 0x1B0A DUP2 PUSH2 0x1A3F JUMP JUMPDEST PUSH1 0x1 DUP3 DUP2 AND DUP1 ISZERO PUSH2 0x1B22 JUMPI PUSH1 0x1 DUP2 EQ PUSH2 0x1B37 JUMPI PUSH2 0x1B66 JUMP JUMPDEST PUSH1 0xFF NOT DUP5 AND DUP8 MSTORE DUP3 ISZERO ISZERO DUP4 MUL DUP8 ADD SWAP5 POP PUSH2 0x1B66 JUMP JUMPDEST DUP8 PUSH1 0x0 MSTORE PUSH1 0x20 DUP1 PUSH1 0x0 KECCAK256 PUSH1 0x0 JUMPDEST DUP6 DUP2 LT ISZERO PUSH2 0x1B5D JUMPI DUP2 SLOAD DUP11 DUP3 ADD MSTORE SWAP1 DUP5 ADD SWAP1 DUP3 ADD PUSH2 0x1B44 JUMP JUMPDEST POP POP POP DUP3 DUP8 ADD SWAP5 POP JUMPDEST POP SWAP3 SWAP7 SWAP6 POP POP POP POP POP POP JUMP JUMPDEST PUSH4 0x4E487B71 PUSH1 0xE0 SHL PUSH1 0x0 MSTORE PUSH1 0x41 PUSH1 0x4 MSTORE PUSH1 0x24 PUSH1 0x0 REVERT JUMPDEST PUSH1 0x1F DUP3 GT ISZERO PUSH2 0x1BD2 JUMPI PUSH1 0x0 DUP2 DUP2 MSTORE PUSH1 0x20 DUP2 KECCAK256 PUSH1 0x1F DUP6 ADD PUSH1 0x5 SHR DUP2 ADD PUSH1 0x20 DUP7 LT ISZERO PUSH2 0x1BAF JUMPI POP DUP1 JUMPDEST PUSH1 0x1F DUP6 ADD PUSH1 0x5 SHR DUP3 ADD SWAP2 POP JUMPDEST DUP2 DUP2 LT ISZERO PUSH2 0x1BCE JUMPI DUP3 DUP2 SSTORE PUSH1 0x1 ADD PUSH2 0x1BBB JUMP JUMPDEST POP POP POP JUMPDEST POP POP POP JUMP JUMPDEST PUSH8 0xFFFFFFFFFFFFFFFF DUP4 GT ISZERO PUSH2 0x1BEF JUMPI PUSH2 0x1BEF PUSH2 0x1B72 JUMP JUMPDEST PUSH2 0x1C03 DUP4 PUSH2 0x1BFD DUP4 SLOAD PUSH2 0x1A3F JUMP JUMPDEST DUP4 PUSH2 0x1B88 JUMP JUMPDEST PUSH1 0x0 PUSH1 0x1F DUP5 GT PUSH1 0x1 DUP2 EQ PUSH2 0x1C37 JUMPI PUSH1 0x0 DUP6 ISZERO PUSH2 0x1C1F JUMPI POP DUP4 DUP3 ADD CALLDATALOAD JUMPDEST PUSH1 0x0 NOT PUSH1 0x3 DUP8 SWAP1 SHL SHR NOT AND PUSH1 0x1 DUP7 SWAP1 SHL OR DUP4 SSTORE PUSH2 0x1C91 JUMP JUMPDEST PUSH1 0x0 DUP4 DUP2 MSTORE PUSH1 0x20 SWAP1 KECCAK256 PUSH1 0x1F NOT DUP7 AND SWAP1 DUP4 JUMPDEST DUP3 DUP2 LT ISZERO PUSH2 0x1C68 JUMPI DUP7 DUP6 ADD CALLDATALOAD DUP3 SSTORE PUSH1 0x20 SWAP5 DUP6 ADD SWAP5 PUSH1 0x1 SWAP1 SWAP3 ADD SWAP2 ADD PUSH2 0x1C48 JUMP JUMPDEST POP DUP7 DUP3 LT ISZERO PUSH2 0x1C85 JUMPI PUSH1 0x0 NOT PUSH1 0xF8 DUP9 PUSH1 0x3 SHL AND SHR NOT DUP5 DUP8 ADD CALLDATALOAD AND DUP2 SSTORE JUMPDEST POP POP PUSH1 0x1 DUP6 PUSH1 0x1 SHL ADD DUP4 SSTORE JUMPDEST POP POP POP POP POP JUMP JUMPDEST PUSH1 0x40 DUP2 MSTORE PUSH1 0x0 DUP1 DUP5 SLOAD PUSH2 0x1CAA DUP2 PUSH2 0x1A3F JUMP JUMPDEST DUP1 PUSH1 0x40 DUP7 ADD MSTORE PUSH1 0x60 PUSH1 0x1 DUP1 DUP5 AND PUSH1 0x0 DUP2 EQ PUSH2 0x1CCC JUMPI PUSH1 0x1 DUP2 EQ PUSH2 0x1CE6 JUMPI PUSH2 0x1D17 JUMP JUMPDEST PUSH1 0xFF NOT DUP6 AND DUP9 DUP5 ADD MSTORE DUP4 ISZERO ISZERO PUSH1 0x5 SHL DUP9 ADD DUP4 ADD SWAP6 POP PUSH2 0x1D17 JUMP JUMPDEST DUP10 PUSH1 0x0 MSTORE PUSH1 0x20 DUP1 PUSH1 0x0 KECCAK256 PUSH1 0x0 JUMPDEST DUP7 DUP2 LT ISZERO PUSH2 0x1D0E JUMPI DUP2 SLOAD DUP12 DUP3 ADD DUP8 ADD MSTORE SWAP1 DUP5 ADD SWAP1 DUP3 ADD PUSH2 0x1CF3 JUMP JUMPDEST DUP11 ADD DUP6 ADD SWAP8 POP POP POP JUMPDEST POP POP POP POP PUSH1 0x1 PUSH1 0x1 PUSH1 0xA0 SHL SUB DUP6 AND PUSH1 0x20 DUP6 ADD MSTORE POP SWAP1 POP PUSH2 0xE59 JUMP JUMPDEST PUSH4 0x4E487B71 PUSH1 0xE0 SHL PUSH1 0x0 MSTORE PUSH1 0x11 PUSH1 0x4 MSTORE PUSH1 0x24 PUSH1 0x0 REVERT JUMPDEST DUP2 DUP2 SUB DUP2 DUP2 GT ISZERO PUSH2 0x1242 JUMPI PUSH2 0x1242 PUSH2 0x1D32 JUMP JUMPDEST PUSH1 0x0 PUSH1 0x1 DUP3 ADD PUSH2 0x1D6D JUMPI PUSH2 0x1D6D PUSH2 0x1D32 JUMP JUMPDEST POP PUSH1 0x1 ADD SWAP1 JUMP JUMPDEST DUP2 MLOAD PUSH8 0xFFFFFFFFFFFFFFFF DUP2 GT ISZERO PUSH2 0x1D8E JUMPI PUSH2 0x1D8E PUSH2 0x1B72 JUMP JUMPDEST PUSH2 0x1DA2 DUP2 PUSH2 0x1D9C DUP5 SLOAD PUSH2 0x1A3F JUMP JUMPDEST DUP5 PUSH2 0x1B88 JUMP JUMPDEST PUSH1 0x20 DUP1 PUSH1 0x1F DUP4 GT PUSH1 0x1 DUP2 EQ PUSH2 0x1DD7 JUMPI PUSH1 0x0 DUP5 ISZERO PUSH2 0x1DBF JUMPI POP DUP6 DUP4 ADD MLOAD JUMPDEST PUSH1 0x0 NOT PUSH1 0x3 DUP7 SWAP1 SHL SHR NOT AND PUSH1 0x1 DUP6 SWAP1 SHL OR DUP6 SSTORE PUSH2 0x1BCE JUMP JUMPDEST PUSH1 0x0 DUP6 DUP2 MSTORE PUSH1 0x20 DUP2 KECCAK256 PUSH1 0x1F NOT DUP7 AND SWAP2 JUMPDEST DUP3 DUP2 LT ISZERO PUSH2 0x1E06 JUMPI DUP9 DUP7 ADD MLOAD DUP3 SSTORE SWAP5 DUP5 ADD SWAP5 PUSH1 0x1 SWAP1 SWAP2 ADD SWAP1 DUP5 ADD PUSH2 0x1DE7 JUMP JUMPDEST POP DUP6 DUP3 LT ISZERO PUSH2 0x1E24 JUMPI DUP8 DUP6 ADD MLOAD PUSH1 0x0 NOT PUSH1 0x3 DUP9 SWAP1 SHL PUSH1 0xF8 AND SHR NOT AND DUP2 SSTORE JUMPDEST POP POP POP POP POP PUSH1 0x1 SWAP1 DUP2 SHL ADD SWAP1 SSTORE POP JUMP JUMPDEST PUSH1 0x40 DUP2 MSTORE DUP3 PUSH1 0x40 DUP3 ADD MSTORE DUP3 DUP5 PUSH1 0x60 DUP4 ADD CALLDATACOPY PUSH1 0x0 PUSH1 0x60 DUP5 DUP4 ADD ADD MSTORE PUSH1 0x0 PUSH1 0x60 PUSH1 0x1F NOT PUSH1 0x1F DUP7 ADD AND DUP4 ADD ADD SWAP1 POP PUSH1 0x1 PUSH1 0x1 PUSH1 0xA0 SHL SUB DUP4 AND PUSH1 0x20 DUP4 ADD MSTORE SWAP5 SWAP4 POP POP POP POP JUMP JUMPDEST DUP1 DUP3 ADD DUP1 DUP3 GT ISZERO PUSH2 0x1242 JUMPI PUSH2 0x1242 PUSH2 0x1D32 JUMP JUMPDEST PUSH4 0x4E487B71 PUSH1 0xE0 SHL PUSH1 0x0 MSTORE PUSH1 0x32 PUSH1 0x4 MSTORE PUSH1 0x24 PUSH1 0x0 REVERT INVALID LOG2 PUSH5 0x6970667358 0x22 SLT KECCAK256 DUP8 KECCAK256 SWAP2 SWAP10 PUSH27 0x67445D245579E3C11DE2163521D339DB0A6EAA64D975916944A838 PUSH5 0x736F6C6343 STOP ADDMOD SGT STOP CALLER "},"methodIdentifiers":{"REGISTRATION_FEE()":"64b4f751","agentExists(uint256)":"de99f157","getAgent(uint256)":"2de5aaf7","getAgentCount()":"91cab63e","getAgentFullInfo(uint256)":"1154c3fe","getAgentReputation(uint256)":"cb43091f","getAgentValidation(uint256)":"57518309","getAgentVoteCounts(uint256)":"4ee4eca8","getAllDomains()":"5a018e6a","getDomainsPaginated(uint256,uint256)":"e777ce72","newAgent(string,address,string)":"d9f0f470","reputationRegistry()":"c8db44e3","resolveByAddress(address)":"0c638107","resolveByDomain(string)":"78ddad12","setReputationRegistry(address)":"3f0ce714","setValidationRegistry(address)":"3f252e00","updateAgent(uint256,string,address)":"3bfbbad7","updateMetadata(uint256,string)":"53c8388e","validationRegistry()":"4c6b993a"}}}}}