{"contracts/TaskEscrow.sol":{"TaskEscrow":{"abi":[{"inputs":[{"internalType":"address payable","name":"treasury","type":"address"}],"stateMutability":"nonpayable","type":"constructor"},{"inputs":[],"name":"AlreadyApproved","type":"error"},{"inputs":[{"internalType":"address","name":"verifier","type":"address"}],"name":"DuplicateVerifier","type":"error"},{"inputs":[],"name":"EscrowAlreadyExists","type":"error"},{"inputs":[],"name":"InvalidAmount","type":"error"},{"inputs":[],"name":"InvalidEscrowState","type":"error"},{"inputs":[],"name":"InvalidFeeConfiguration","type":"error"},{"inputs":[],"name":"InvalidVerifierConfiguration","type":"error"},{"inputs":[],"name":"ReentrancyGuardActive","type":"error"},{"inputs":[{"internalType":"address","name":"recipient","type":"address"}],"name":"TransferFailed","type":"error"},{"inputs":[],"name":"Unauthorized","type":"error"},{"inputs":[],"name":"ZeroAddress","type":"error"},{"anonymous":false,"inputs":[{"indexed":true,"internalType":"bytes32","name":"taskId","type":"bytes32"},{"indexed":true,"internalType":"address","name":"client","type":"address"},{"indexed":true,"internalType":"address","name":"worker","type":"address"},{"indexed":false,"internalType":"uint256","name":"amount","type":"uint256"},{"indexed":false,"internalType":"uint16","name":"marketplaceFeeBps","type":"uint16"},{"indexed":false,"internalType":"uint16","name":"verifierFeeBps","type":"uint16"},{"indexed":false,"internalType":"uint8","name":"approvalsRequired","type":"uint8"},{"indexed":false,"internalType":"uint8","name":"verifierCount","type":"uint8"}],"name":"EscrowCreated","type":"event"},{"anonymous":false,"inputs":[{"indexed":true,"internalType":"bytes32","name":"taskId","type":"bytes32"},{"indexed":true,"internalType":"address","name":"client","type":"address"},{"indexed":false,"internalType":"uint256","name":"refundedAmount","type":"uint256"},{"indexed":false,"internalType":"uint256","name":"verifierFee","type":"uint256"},{"indexed":false,"internalType":"uint8","name":"approvalsUsed","type":"uint8"}],"name":"EscrowRefunded","type":"event"},{"anonymous":false,"inputs":[{"indexed":true,"internalType":"bytes32","name":"taskId","type":"bytes32"},{"indexed":true,"internalType":"address","name":"worker","type":"address"},{"indexed":false,"internalType":"uint256","name":"workerAmount","type":"uint256"},{"indexed":false,"internalType":"uint256","name":"marketplaceFee","type":"uint256"},{"indexed":false,"internalType":"uint256","name":"verifierFee","type":"uint256"},{"indexed":false,"internalType":"uint8","name":"approvalsUsed","type":"uint8"}],"name":"EscrowReleased","type":"event"},{"anonymous":false,"inputs":[{"indexed":true,"internalType":"bytes32","name":"taskId","type":"bytes32"},{"indexed":true,"internalType":"address","name":"verifier","type":"address"},{"indexed":false,"internalType":"uint8","name":"approvals","type":"uint8"},{"indexed":false,"internalType":"uint8","name":"approvalsRequired","type":"uint8"}],"name":"RefundApprovalSubmitted","type":"event"},{"anonymous":false,"inputs":[{"indexed":true,"internalType":"bytes32","name":"taskId","type":"bytes32"},{"indexed":true,"internalType":"address","name":"verifier","type":"address"},{"indexed":false,"internalType":"uint8","name":"approvals","type":"uint8"},{"indexed":false,"internalType":"uint8","name":"approvalsRequired","type":"uint8"}],"name":"ReleaseApprovalSubmitted","type":"event"},{"inputs":[],"name":"BPS_DENOMINATOR","outputs":[{"internalType":"uint256","name":"","type":"uint256"}],"stateMutability":"view","type":"function"},{"inputs":[{"internalType":"bytes32","name":"taskId","type":"bytes32"}],"name":"approveRefund","outputs":[],"stateMutability":"nonpayable","type":"function"},{"inputs":[{"internalType":"bytes32","name":"taskId","type":"bytes32"}],"name":"approveRelease","outputs":[],"stateMutability":"nonpayable","type":"function"},{"inputs":[{"internalType":"bytes32","name":"taskId","type":"bytes32"},{"internalType":"address","name":"worker","type":"address"},{"internalType":"address[]","name":"verifiers","type":"address[]"},{"internalType":"uint8","name":"approvalsRequired","type":"uint8"},{"internalType":"uint16","name":"marketplaceFeeBps","type":"uint16"},{"internalType":"uint16","name":"verifierFeeBps","type":"uint16"}],"name":"createEscrow","outputs":[],"stateMutability":"payable","type":"function"},{"inputs":[{"internalType":"bytes32","name":"taskId","type":"bytes32"}],"name":"getEscrow","outputs":[{"components":[{"internalType":"address","name":"client","type":"address"},{"internalType":"address","name":"worker","type":"address"},{"internalType":"uint256","name":"amount","type":"uint256"},{"internalType":"uint16","name":"marketplaceFeeBps","type":"uint16"},{"internalType":"uint16","name":"verifierFeeBps","type":"uint16"},{"internalType":"enum TaskEscrow.Status","name":"status","type":"uint8"},{"internalType":"uint8","name":"approvalsRequired","type":"uint8"},{"internalType":"uint8","name":"releaseApprovalCount","type":"uint8"},{"internalType":"uint8","name":"refundApprovalCount","type":"uint8"}],"internalType":"struct TaskEscrow.Escrow","name":"","type":"tuple"}],"stateMutability":"view","type":"function"},{"inputs":[{"internalType":"bytes32","name":"taskId","type":"bytes32"}],"name":"getVerifiers","outputs":[{"internalType":"address[]","name":"","type":"address[]"}],"stateMutability":"view","type":"function"},{"inputs":[],"name":"marketplaceTreasury","outputs":[{"internalType":"address payable","name":"","type":"address"}],"stateMutability":"view","type":"function"}],"evm":{"bytecode":{"linkReferences":{},"object":"60a060405234801561001057600080fd5b5060405161148638038061148683398101604081905261002f9161006c565b6001600160a01b0381166100565760405163d92e233d60e01b815260040160405180910390fd5b6001600160a01b0316608052600160005561009c565b60006020828403121561007e57600080fd5b81516001600160a01b038116811461009557600080fd5b9392505050565b6080516113c16100c56000396000818161011201528181610bdb0152610e0401526113c16000f3fe6080604052600436106100705760003560e01c80637ee09b361161004e5780637ee09b36146100ed57806382421b0514610100578063e1a452181461014c578063f023b8111461017057600080fd5b80632f6b29dc1461007557806336f672741461009757806379bf1a37146100b7575b600080fd5b34801561008157600080fd5b50610095610090366004611041565b61019d565b005b3480156100a357600080fd5b506100956100b2366004611041565b610372565b3480156100c357600080fd5b506100d76100d2366004611041565b610547565b6040516100e4919061105a565b60405180910390f35b6100956100fb3660046110e6565b6105b3565b34801561010c57600080fd5b506101347f000000000000000000000000000000000000000000000000000000000000000081565b6040516001600160a01b0390911681526020016100e4565b34801561015857600080fd5b5061016261271081565b6040519081526020016100e4565b34801561017c57600080fd5b5061019061018b366004611041565b61090c565b6040516100e491906111e0565b6000546002036101c057604051631762c6f360e01b815260040160405180910390fd5b6002600090815581815260016020819052604090912090600382810154640100000000900460ff16908111156101f8576101f86111a8565b1461021657604051635448814d60e11b815260040160405180910390fd5b600082815260036020908152604080832033845290915290205460ff1661024f576040516282b42960e81b815260040160405180910390fd5b600082815260056020908152604080832033845290915290205460ff161561028a5760405163080fc0bd60e11b815260040160405180910390fd5b60008281526005602090815260408083203384529091529020805460ff191660019081179091556003820180546007906102cf908490600160381b900460ff1661129f565b82546101009290920a60ff818102199093169183160217909155600383015460408051600160381b83048416815265010000000000909204909216602082015233925084917f3da21e4e6f0cfbfe652639d6343cbff61aa0144241374e18ef7a011166a50866910160405180910390a3600381015460ff6501000000000082048116600160381b9092041610610369576103698282610a2c565b50506001600055565b60005460020361039557604051631762c6f360e01b815260040160405180910390fd5b6002600090815581815260016020819052604090912090600382810154640100000000900460ff16908111156103cd576103cd6111a8565b146103eb57604051635448814d60e11b815260040160405180910390fd5b600082815260036020908152604080832033845290915290205460ff16610424576040516282b42960e81b815260040160405180910390fd5b600082815260046020908152604080832033845290915290205460ff161561045f5760405163080fc0bd60e11b815260040160405180910390fd5b60008281526004602090815260408083203384529091529020805460ff191660019081179091556003820180546006906104a79084906601000000000000900460ff1661129f565b82546101009290920a60ff818102199093169183160217909155600383015460408051660100000000000083048416815265010000000000909204909216602082015233925084917f536977f11f71d562b7e708b68861fd788b51d353ea1130d7b21a191dd69e1c96910160405180910390a3600381015460ff650100000000008204811666010000000000009092041610610369576103698282610b23565b6000818152600260209081526040918290208054835181840281018401909452808452606093928301828280156105a757602002820191906000526020600020905b81546001600160a01b03168152600190910190602001808311610589575b50505050509050919050565b6001600160a01b0386166105da5760405163d92e233d60e01b815260040160405180910390fd5b346000036105fb5760405163162908e360e11b815260040160405180910390fd5b600080888152600160205260409020600390810154640100000000900460ff169081111561062b5761062b6111a8565b146106495760405163ed77877960e01b815260040160405180910390fd5b600061065c61ffff8084169085166112be565b90506127108163ffffffff1611156106875760405163369276d760e11b815260040160405180910390fd5b84801580610696575060ff8516155b806106a35750808560ff16115b156106c157604051631b468f0160e11b815260040160405180910390fd5b60ff8111156106e357604051631b468f0160e11b815260040160405180910390fd5b6000898152600160208181526040808420805473ffffffffffffffffffffffffffffffffffffffff199081163317825593810180546001600160a01b038f169516949094179093553460028085019190915560038401805464010000000061ffff8b8116620100000263ffffffff19909316908d16179190911765ffff0000000019166501000000000060ff8e160217179055909152822090915b838110156108995760008a8a8381811061079a5761079a6112e2565b90506020020160208101906107af91906112f8565b90506001600160a01b0381166107d85760405163d92e233d60e01b815260040160405180910390fd5b60008d81526003602090815260408083206001600160a01b038516845290915290205460ff161561082c57604051633a71368960e11b81526001600160a01b03821660048201526024015b60405180910390fd5b60008d81526003602090815260408083206001600160a01b039094168084529382528220805460ff1916600190811790915585549081018655858352912001805473ffffffffffffffffffffffffffffffffffffffff1916909117905561089281611313565b905061077e565b506040805134815261ffff888116602083015287168183015260ff89811660608301528516608082015290516001600160a01b038c169133918e917ffd7face0ceb1713feaff7150876e1287974bf0ac03ad76b113e09e57cd714c09919081900360a00190a45050505050505050505050565b6040805161012081018252600080825260208201819052918101829052606081018290526080810182905260a0810182905260c0810182905260e0810182905261010081019190915260008281526001602081815260409283902083516101208101855281546001600160a01b039081168252938201549093169183019190915260028101549282019290925260038083015461ffff808216606085015262010000820416608084015291929160a084019164010000000090910460ff16908111156109da576109da6111a8565b60038111156109eb576109eb6111a8565b81526003919091015460ff650100000000008204811660208401526601000000000000820481166040840152600160381b9091041660609091015292915050565b6002810154600382015460009061271090610a519062010000900461ffff168461132c565b610a5b9190611343565b90506000610a698284611365565b60038501805464ff0000000019166403000000001790556000600286015590508015610aa4578354610aa4906001600160a01b031682610c8d565b6000610ab286846000610d1d565b855460038701546040805186815260208101859052600160381b90920460ff16908201529192506001600160a01b03169087907f201ffa666f22724d1a1878648fbcdaf923ce78bf2f2267ce5473bc904079a09e9060600160405180910390a3610b1b86610f4e565b505050505050565b6002810154600382015460009061271090610b429061ffff168461132c565b610b4c9190611343565b600384015490915060009061271090610b6f9062010000900461ffff168561132c565b610b799190611343565b9050600081610b888486611365565b610b929190611365565b60038601805464ff0000000019166402000000001790556000600287015590508015610bd0576001850154610bd0906001600160a01b031682610c8d565b8215610c0057610c007f000000000000000000000000000000000000000000000000000000000000000084610c8d565b6000610c0e87846001610d1d565b600187015460038801546040805186815260208101899052908101849052660100000000000090910460ff1660608201529192506001600160a01b03169088907f85f6252ba48e2cac79312ea002438939472ba44a476b0a7ec92c39d68ae4abc69060800160405180910390a3610c8487610f4e565b50505050505050565b80600003610c99575050565b6000826001600160a01b03168260405160006040518083038185875af1925050503d8060008114610ce6576040519150601f19603f3d011682016040523d82523d6000602084013e610ceb565b606091505b5050905080610d18576040516339f1c8d960e01b81526001600160a01b0384166004820152602401610823565b505050565b600082600003610d2f57506000610f47565b60008481526002602052604081208054909190815b81811015610df6576000848281548110610d6057610d606112e2565b60009182526020822001546001600160a01b0316915087610da65760008a81526005602090815260408083206001600160a01b038616845290915290205460ff16610dcd565b60008a81526004602090815260408083206001600160a01b038616845290915290205460ff165b90508015610de357610de0600186611378565b94505b505080610def90611313565b9050610d44565b5081600003610e3457610e297f000000000000000000000000000000000000000000000000000000000000000087610c8d565b859350505050610f47565b6000610e408388611343565b90506000610e4e848361132c565b610e589089611365565b905060005b83811015610f40576000868281548110610e7957610e796112e2565b60009182526020822001546001600160a01b0316915089610ebf5760008c81526005602090815260408083206001600160a01b038616845290915290205460ff16610ee6565b60008c81526004602090815260408083206001600160a01b038616845290915290205460ff165b905080610ef4575050610f30565b848415610f1657610f06600182611378565b9050610f13600186611365565b94505b610f208382610c8d565b610f2a818b611378565b99505050505b610f3981611313565b9050610e5d565b5050505050505b9392505050565b6000818152600260205260408120805490915b81811015610ff9576000838281548110610f7d57610f7d6112e2565b60009182526020808320909101548783526003825260408084206001600160a01b03909216808552918352808420805460ff19908116909155898552600484528185208386528452818520805482169055898552600584528185209285529190925291208054909116905550610ff281611313565b9050610f61565b506000838152600260209081526040822080548382559083529120610d18916110259190810190611028565b50565b5b8082111561103d5760008155600101611029565b5090565b60006020828403121561105357600080fd5b5035919050565b6020808252825182820181905260009190848201906040850190845b8181101561109b5783516001600160a01b031683529284019291840191600101611076565b50909695505050505050565b80356001600160a01b03811681146110be57600080fd5b919050565b803560ff811681146110be57600080fd5b803561ffff811681146110be57600080fd5b600080600080600080600060c0888a03121561110157600080fd5b87359650611111602089016110a7565b9550604088013567ffffffffffffffff8082111561112e57600080fd5b818a0191508a601f83011261114257600080fd5b81358181111561115157600080fd5b8b60208260051b850101111561116657600080fd5b60208301975080965050505061117e606089016110c3565b925061118c608089016110d4565b915061119a60a089016110d4565b905092959891949750929550565b634e487b7160e01b600052602160045260246000fd5b600481106111dc57634e487b7160e01b600052602160045260246000fd5b9052565b6000610120820190506001600160a01b0380845116835280602085015116602084015250604083015160408301526060830151611223606084018261ffff169052565b506080830151611239608084018261ffff169052565b5060a083015161124c60a08401826111be565b5060c083015161126160c084018260ff169052565b5060e083015161127660e084018260ff169052565b506101009283015160ff16919092015290565b634e487b7160e01b600052601160045260246000fd5b60ff81811683821601908111156112b8576112b8611289565b92915050565b63ffffffff8181168382160190808211156112db576112db611289565b5092915050565b634e487b7160e01b600052603260045260246000fd5b60006020828403121561130a57600080fd5b610f47826110a7565b60006001820161132557611325611289565b5060010190565b80820281158282048414176112b8576112b8611289565b60008261136057634e487b7160e01b600052601260045260246000fd5b500490565b818103818111156112b8576112b8611289565b808201808211156112b8576112b861128956fea264697066735822122057ab4b9f48439b3ef9be34dd7b12c62427bc1101ce1ac8bf72a8c1322242ae9f64736f6c63430008130033","opcodes":"PUSH1 0xA0 PUSH1 0x40 MSTORE CALLVALUE DUP1 ISZERO PUSH2 0x10 JUMPI PUSH1 0x0 DUP1 REVERT JUMPDEST POP PUSH1 0x40 MLOAD PUSH2 0x1486 CODESIZE SUB DUP1 PUSH2 0x1486 DUP4 CODECOPY DUP2 ADD PUSH1 0x40 DUP2 SWAP1 MSTORE PUSH2 0x2F SWAP2 PUSH2 0x6C JUMP JUMPDEST PUSH1 0x1 PUSH1 0x1 PUSH1 0xA0 SHL SUB DUP2 AND PUSH2 0x56 JUMPI PUSH1 0x40 MLOAD PUSH4 0xD92E233D PUSH1 0xE0 SHL DUP2 MSTORE PUSH1 0x4 ADD PUSH1 0x40 MLOAD DUP1 SWAP2 SUB SWAP1 REVERT JUMPDEST PUSH1 0x1 PUSH1 0x1 PUSH1 0xA0 SHL SUB AND PUSH1 0x80 MSTORE PUSH1 0x1 PUSH1 0x0 SSTORE PUSH2 0x9C JUMP JUMPDEST PUSH1 0x0 PUSH1 0x20 DUP3 DUP5 SUB SLT ISZERO PUSH2 0x7E JUMPI PUSH1 0x0 DUP1 REVERT JUMPDEST DUP2 MLOAD PUSH1 0x1 PUSH1 0x1 PUSH1 0xA0 SHL SUB DUP2 AND DUP2 EQ PUSH2 0x95 JUMPI PUSH1 0x0 DUP1 REVERT JUMPDEST SWAP4 SWAP3 POP POP POP JUMP JUMPDEST PUSH1 0x80 MLOAD PUSH2 0x13C1 PUSH2 0xC5 PUSH1 0x0 CODECOPY PUSH1 0x0 DUP2 DUP2 PUSH2 0x112 ADD MSTORE DUP2 DUP2 PUSH2 0xBDB ADD MSTORE PUSH2 0xE04 ADD MSTORE PUSH2 0x13C1 PUSH1 0x0 RETURN INVALID PUSH1 0x80 PUSH1 0x40 MSTORE PUSH1 0x4 CALLDATASIZE LT PUSH2 0x70 JUMPI PUSH1 0x0 CALLDATALOAD PUSH1 0xE0 SHR DUP1 PUSH4 0x7EE09B36 GT PUSH2 0x4E JUMPI DUP1 PUSH4 0x7EE09B36 EQ PUSH2 0xED JUMPI DUP1 PUSH4 0x82421B05 EQ PUSH2 0x100 JUMPI DUP1 PUSH4 0xE1A45218 EQ PUSH2 0x14C JUMPI DUP1 PUSH4 0xF023B811 EQ PUSH2 0x170 JUMPI PUSH1 0x0 DUP1 REVERT JUMPDEST DUP1 PUSH4 0x2F6B29DC EQ PUSH2 0x75 JUMPI DUP1 PUSH4 0x36F67274 EQ PUSH2 0x97 JUMPI DUP1 PUSH4 0x79BF1A37 EQ PUSH2 0xB7 JUMPI JUMPDEST PUSH1 0x0 DUP1 REVERT JUMPDEST CALLVALUE DUP1 ISZERO PUSH2 0x81 JUMPI PUSH1 0x0 DUP1 REVERT JUMPDEST POP PUSH2 0x95 PUSH2 0x90 CALLDATASIZE PUSH1 0x4 PUSH2 0x1041 JUMP JUMPDEST PUSH2 0x19D JUMP JUMPDEST STOP JUMPDEST CALLVALUE DUP1 ISZERO PUSH2 0xA3 JUMPI PUSH1 0x0 DUP1 REVERT JUMPDEST POP PUSH2 0x95 PUSH2 0xB2 CALLDATASIZE PUSH1 0x4 PUSH2 0x1041 JUMP JUMPDEST PUSH2 0x372 JUMP JUMPDEST CALLVALUE DUP1 ISZERO PUSH2 0xC3 JUMPI PUSH1 0x0 DUP1 REVERT JUMPDEST POP PUSH2 0xD7 PUSH2 0xD2 CALLDATASIZE PUSH1 0x4 PUSH2 0x1041 JUMP JUMPDEST PUSH2 0x547 JUMP JUMPDEST PUSH1 0x40 MLOAD PUSH2 0xE4 SWAP2 SWAP1 PUSH2 0x105A JUMP JUMPDEST PUSH1 0x40 MLOAD DUP1 SWAP2 SUB SWAP1 RETURN JUMPDEST PUSH2 0x95 PUSH2 0xFB CALLDATASIZE PUSH1 0x4 PUSH2 0x10E6 JUMP JUMPDEST PUSH2 0x5B3 JUMP JUMPDEST CALLVALUE DUP1 ISZERO PUSH2 0x10C JUMPI PUSH1 0x0 DUP1 REVERT JUMPDEST POP PUSH2 0x134 PUSH32 0x0 DUP2 JUMP JUMPDEST PUSH1 0x40 MLOAD PUSH1 0x1 PUSH1 0x1 PUSH1 0xA0 SHL SUB SWAP1 SWAP2 AND DUP2 MSTORE PUSH1 0x20 ADD PUSH2 0xE4 JUMP JUMPDEST CALLVALUE DUP1 ISZERO PUSH2 0x158 JUMPI PUSH1 0x0 DUP1 REVERT JUMPDEST POP PUSH2 0x162 PUSH2 0x2710 DUP2 JUMP JUMPDEST PUSH1 0x40 MLOAD SWAP1 DUP2 MSTORE PUSH1 0x20 ADD PUSH2 0xE4 JUMP JUMPDEST CALLVALUE DUP1 ISZERO PUSH2 0x17C JUMPI PUSH1 0x0 DUP1 REVERT JUMPDEST POP PUSH2 0x190 PUSH2 0x18B CALLDATASIZE PUSH1 0x4 PUSH2 0x1041 JUMP JUMPDEST PUSH2 0x90C JUMP JUMPDEST PUSH1 0x40 MLOAD PUSH2 0xE4 SWAP2 SWAP1 PUSH2 0x11E0 JUMP JUMPDEST PUSH1 0x0 SLOAD PUSH1 0x2 SUB PUSH2 0x1C0 JUMPI PUSH1 0x40 MLOAD PUSH4 0x1762C6F3 PUSH1 0xE0 SHL DUP2 MSTORE PUSH1 0x4 ADD PUSH1 0x40 MLOAD DUP1 SWAP2 SUB SWAP1 REVERT JUMPDEST PUSH1 0x2 PUSH1 0x0 SWAP1 DUP2 SSTORE DUP2 DUP2 MSTORE PUSH1 0x1 PUSH1 0x20 DUP2 SWAP1 MSTORE PUSH1 0x40 SWAP1 SWAP2 KECCAK256 SWAP1 PUSH1 0x3 DUP3 DUP2 ADD SLOAD PUSH5 0x100000000 SWAP1 DIV PUSH1 0xFF AND SWAP1 DUP2 GT ISZERO PUSH2 0x1F8 JUMPI PUSH2 0x1F8 PUSH2 0x11A8 JUMP JUMPDEST EQ PUSH2 0x216 JUMPI PUSH1 0x40 MLOAD PUSH4 0x5448814D PUSH1 0xE1 SHL DUP2 MSTORE PUSH1 0x4 ADD PUSH1 0x40 MLOAD DUP1 SWAP2 SUB SWAP1 REVERT JUMPDEST PUSH1 0x0 DUP3 DUP2 MSTORE PUSH1 0x3 PUSH1 0x20 SWAP1 DUP2 MSTORE PUSH1 0x40 DUP1 DUP4 KECCAK256 CALLER DUP5 MSTORE SWAP1 SWAP2 MSTORE SWAP1 KECCAK256 SLOAD PUSH1 0xFF AND PUSH2 0x24F JUMPI PUSH1 0x40 MLOAD PUSH3 0x82B429 PUSH1 0xE8 SHL DUP2 MSTORE PUSH1 0x4 ADD PUSH1 0x40 MLOAD DUP1 SWAP2 SUB SWAP1 REVERT JUMPDEST PUSH1 0x0 DUP3 DUP2 MSTORE PUSH1 0x5 PUSH1 0x20 SWAP1 DUP2 MSTORE PUSH1 0x40 DUP1 DUP4 KECCAK256 CALLER DUP5 MSTORE SWAP1 SWAP2 MSTORE SWAP1 KECCAK256 SLOAD PUSH1 0xFF AND ISZERO PUSH2 0x28A JUMPI PUSH1 0x40 MLOAD PUSH4 0x80FC0BD PUSH1 0xE1 SHL DUP2 MSTORE PUSH1 0x4 ADD PUSH1 0x40 MLOAD DUP1 SWAP2 SUB SWAP1 REVERT JUMPDEST PUSH1 0x0 DUP3 DUP2 MSTORE PUSH1 0x5 PUSH1 0x20 SWAP1 DUP2 MSTORE PUSH1 0x40 DUP1 DUP4 KECCAK256 CALLER DUP5 MSTORE SWAP1 SWAP2 MSTORE SWAP1 KECCAK256 DUP1 SLOAD PUSH1 0xFF NOT AND PUSH1 0x1 SWAP1 DUP2 OR SWAP1 SWAP2 SSTORE PUSH1 0x3 DUP3 ADD DUP1 SLOAD PUSH1 0x7 SWAP1 PUSH2 0x2CF SWAP1 DUP5 SWAP1 PUSH1 0x1 PUSH1 0x38 SHL SWAP1 DIV PUSH1 0xFF AND PUSH2 0x129F JUMP JUMPDEST DUP3 SLOAD PUSH2 0x100 SWAP3 SWAP1 SWAP3 EXP PUSH1 0xFF DUP2 DUP2 MUL NOT SWAP1 SWAP4 AND SWAP2 DUP4 AND MUL OR SWAP1 SWAP2 SSTORE PUSH1 0x3 DUP4 ADD SLOAD PUSH1 0x40 DUP1 MLOAD PUSH1 0x1 PUSH1 0x38 SHL DUP4 DIV DUP5 AND DUP2 MSTORE PUSH6 0x10000000000 SWAP1 SWAP3 DIV SWAP1 SWAP3 AND PUSH1 0x20 DUP3 ADD MSTORE CALLER SWAP3 POP DUP5 SWAP2 PUSH32 0x3DA21E4E6F0CFBFE652639D6343CBFF61AA0144241374E18EF7A011166A50866 SWAP2 ADD PUSH1 0x40 MLOAD DUP1 SWAP2 SUB SWAP1 LOG3 PUSH1 0x3 DUP2 ADD SLOAD PUSH1 0xFF PUSH6 0x10000000000 DUP3 DIV DUP2 AND PUSH1 0x1 PUSH1 0x38 SHL SWAP1 SWAP3 DIV AND LT PUSH2 0x369 JUMPI PUSH2 0x369 DUP3 DUP3 PUSH2 0xA2C JUMP JUMPDEST POP POP PUSH1 0x1 PUSH1 0x0 SSTORE JUMP JUMPDEST PUSH1 0x0 SLOAD PUSH1 0x2 SUB PUSH2 0x395 JUMPI PUSH1 0x40 MLOAD PUSH4 0x1762C6F3 PUSH1 0xE0 SHL DUP2 MSTORE PUSH1 0x4 ADD PUSH1 0x40 MLOAD DUP1 SWAP2 SUB SWAP1 REVERT JUMPDEST PUSH1 0x2 PUSH1 0x0 SWAP1 DUP2 SSTORE DUP2 DUP2 MSTORE PUSH1 0x1 PUSH1 0x20 DUP2 SWAP1 MSTORE PUSH1 0x40 SWAP1 SWAP2 KECCAK256 SWAP1 PUSH1 0x3 DUP3 DUP2 ADD SLOAD PUSH5 0x100000000 SWAP1 DIV PUSH1 0xFF AND SWAP1 DUP2 GT ISZERO PUSH2 0x3CD JUMPI PUSH2 0x3CD PUSH2 0x11A8 JUMP JUMPDEST EQ PUSH2 0x3EB JUMPI PUSH1 0x40 MLOAD PUSH4 0x5448814D PUSH1 0xE1 SHL DUP2 MSTORE PUSH1 0x4 ADD PUSH1 0x40 MLOAD DUP1 SWAP2 SUB SWAP1 REVERT JUMPDEST PUSH1 0x0 DUP3 DUP2 MSTORE PUSH1 0x3 PUSH1 0x20 SWAP1 DUP2 MSTORE PUSH1 0x40 DUP1 DUP4 KECCAK256 CALLER DUP5 MSTORE SWAP1 SWAP2 MSTORE SWAP1 KECCAK256 SLOAD PUSH1 0xFF AND PUSH2 0x424 JUMPI PUSH1 0x40 MLOAD PUSH3 0x82B429 PUSH1 0xE8 SHL DUP2 MSTORE PUSH1 0x4 ADD PUSH1 0x40 MLOAD DUP1 SWAP2 SUB SWAP1 REVERT JUMPDEST PUSH1 0x0 DUP3 DUP2 MSTORE PUSH1 0x4 PUSH1 0x20 SWAP1 DUP2 MSTORE PUSH1 0x40 DUP1 DUP4 KECCAK256 CALLER DUP5 MSTORE SWAP1 SWAP2 MSTORE SWAP1 KECCAK256 SLOAD PUSH1 0xFF AND ISZERO PUSH2 0x45F JUMPI PUSH1 0x40 MLOAD PUSH4 0x80FC0BD PUSH1 0xE1 SHL DUP2 MSTORE PUSH1 0x4 ADD PUSH1 0x40 MLOAD DUP1 SWAP2 SUB SWAP1 REVERT JUMPDEST PUSH1 0x0 DUP3 DUP2 MSTORE PUSH1 0x4 PUSH1 0x20 SWAP1 DUP2 MSTORE PUSH1 0x40 DUP1 DUP4 KECCAK256 CALLER DUP5 MSTORE SWAP1 SWAP2 MSTORE SWAP1 KECCAK256 DUP1 SLOAD PUSH1 0xFF NOT AND PUSH1 0x1 SWAP1 DUP2 OR SWAP1 SWAP2 SSTORE PUSH1 0x3 DUP3 ADD DUP1 SLOAD PUSH1 0x6 SWAP1 PUSH2 0x4A7 SWAP1 DUP5 SWAP1 PUSH7 0x1000000000000 SWAP1 DIV PUSH1 0xFF AND PUSH2 0x129F JUMP JUMPDEST DUP3 SLOAD PUSH2 0x100 SWAP3 SWAP1 SWAP3 EXP PUSH1 0xFF DUP2 DUP2 MUL NOT SWAP1 SWAP4 AND SWAP2 DUP4 AND MUL OR SWAP1 SWAP2 SSTORE PUSH1 0x3 DUP4 ADD SLOAD PUSH1 0x40 DUP1 MLOAD PUSH7 0x1000000000000 DUP4 DIV DUP5 AND DUP2 MSTORE PUSH6 0x10000000000 SWAP1 SWAP3 DIV SWAP1 SWAP3 AND PUSH1 0x20 DUP3 ADD MSTORE CALLER SWAP3 POP DUP5 SWAP2 PUSH32 0x536977F11F71D562B7E708B68861FD788B51D353EA1130D7B21A191DD69E1C96 SWAP2 ADD PUSH1 0x40 MLOAD DUP1 SWAP2 SUB SWAP1 LOG3 PUSH1 0x3 DUP2 ADD SLOAD PUSH1 0xFF PUSH6 0x10000000000 DUP3 DIV DUP2 AND PUSH7 0x1000000000000 SWAP1 SWAP3 DIV AND LT PUSH2 0x369 JUMPI PUSH2 0x369 DUP3 DUP3 PUSH2 0xB23 JUMP JUMPDEST PUSH1 0x0 DUP2 DUP2 MSTORE PUSH1 0x2 PUSH1 0x20 SWAP1 DUP2 MSTORE PUSH1 0x40 SWAP2 DUP3 SWAP1 KECCAK256 DUP1 SLOAD DUP4 MLOAD DUP2 DUP5 MUL DUP2 ADD DUP5 ADD SWAP1 SWAP5 MSTORE DUP1 DUP5 MSTORE PUSH1 0x60 SWAP4 SWAP3 DUP4 ADD DUP3 DUP3 DUP1 ISZERO PUSH2 0x5A7 JUMPI PUSH1 0x20 MUL DUP3 ADD SWAP2 SWAP1 PUSH1 0x0 MSTORE PUSH1 0x20 PUSH1 0x0 KECCAK256 SWAP1 JUMPDEST DUP2 SLOAD PUSH1 0x1 PUSH1 0x1 PUSH1 0xA0 SHL SUB AND DUP2 MSTORE PUSH1 0x1 SWAP1 SWAP2 ADD SWAP1 PUSH1 0x20 ADD DUP1 DUP4 GT PUSH2 0x589 JUMPI JUMPDEST POP POP POP POP POP SWAP1 POP SWAP2 SWAP1 POP JUMP JUMPDEST PUSH1 0x1 PUSH1 0x1 PUSH1 0xA0 SHL SUB DUP7 AND PUSH2 0x5DA JUMPI PUSH1 0x40 MLOAD PUSH4 0xD92E233D PUSH1 0xE0 SHL DUP2 MSTORE PUSH1 0x4 ADD PUSH1 0x40 MLOAD DUP1 SWAP2 SUB SWAP1 REVERT JUMPDEST CALLVALUE PUSH1 0x0 SUB PUSH2 0x5FB JUMPI PUSH1 0x40 MLOAD PUSH4 0x162908E3 PUSH1 0xE1 SHL DUP2 MSTORE PUSH1 0x4 ADD PUSH1 0x40 MLOAD DUP1 SWAP2 SUB SWAP1 REVERT JUMPDEST PUSH1 0x0 DUP1 DUP9 DUP2 MSTORE PUSH1 0x1 PUSH1 0x20 MSTORE PUSH1 0x40 SWAP1 KECCAK256 PUSH1 0x3 SWAP1 DUP2 ADD SLOAD PUSH5 0x100000000 SWAP1 DIV PUSH1 0xFF AND SWAP1 DUP2 GT ISZERO PUSH2 0x62B JUMPI PUSH2 0x62B PUSH2 0x11A8 JUMP JUMPDEST EQ PUSH2 0x649 JUMPI PUSH1 0x40 MLOAD PUSH4 0xED778779 PUSH1 0xE0 SHL DUP2 MSTORE PUSH1 0x4 ADD PUSH1 0x40 MLOAD DUP1 SWAP2 SUB SWAP1 REVERT JUMPDEST PUSH1 0x0 PUSH2 0x65C PUSH2 0xFFFF DUP1 DUP5 AND SWAP1 DUP6 AND PUSH2 0x12BE JUMP JUMPDEST SWAP1 POP PUSH2 0x2710 DUP2 PUSH4 0xFFFFFFFF AND GT ISZERO PUSH2 0x687 JUMPI PUSH1 0x40 MLOAD PUSH4 0x369276D7 PUSH1 0xE1 SHL DUP2 MSTORE PUSH1 0x4 ADD PUSH1 0x40 MLOAD DUP1 SWAP2 SUB SWAP1 REVERT JUMPDEST DUP5 DUP1 ISZERO DUP1 PUSH2 0x696 JUMPI POP PUSH1 0xFF DUP6 AND ISZERO JUMPDEST DUP1 PUSH2 0x6A3 JUMPI POP DUP1 DUP6 PUSH1 0xFF AND GT JUMPDEST ISZERO PUSH2 0x6C1 JUMPI PUSH1 0x40 MLOAD PUSH4 0x1B468F01 PUSH1 0xE1 SHL DUP2 MSTORE PUSH1 0x4 ADD PUSH1 0x40 MLOAD DUP1 SWAP2 SUB SWAP1 REVERT JUMPDEST PUSH1 0xFF DUP2 GT ISZERO PUSH2 0x6E3 JUMPI PUSH1 0x40 MLOAD PUSH4 0x1B468F01 PUSH1 0xE1 SHL DUP2 MSTORE PUSH1 0x4 ADD PUSH1 0x40 MLOAD DUP1 SWAP2 SUB SWAP1 REVERT JUMPDEST PUSH1 0x0 DUP10 DUP2 MSTORE PUSH1 0x1 PUSH1 0x20 DUP2 DUP2 MSTORE PUSH1 0x40 DUP1 DUP5 KECCAK256 DUP1 SLOAD PUSH20 0xFFFFFFFFFFFFFFFFFFFFFFFFFFFFFFFFFFFFFFFF NOT SWAP1 DUP2 AND CALLER OR DUP3 SSTORE SWAP4 DUP2 ADD DUP1 SLOAD PUSH1 0x1 PUSH1 0x1 PUSH1 0xA0 SHL SUB DUP16 AND SWAP6 AND SWAP5 SWAP1 SWAP5 OR SWAP1 SWAP4 SSTORE CALLVALUE PUSH1 0x2 DUP1 DUP6 ADD SWAP2 SWAP1 SWAP2 SSTORE PUSH1 0x3 DUP5 ADD DUP1 SLOAD PUSH5 0x100000000 PUSH2 0xFFFF DUP12 DUP2 AND PUSH3 0x10000 MUL PUSH4 0xFFFFFFFF NOT SWAP1 SWAP4 AND SWAP1 DUP14 AND OR SWAP2 SWAP1 SWAP2 OR PUSH6 0xFFFF00000000 NOT AND PUSH6 0x10000000000 PUSH1 0xFF DUP15 AND MUL OR OR SWAP1 SSTORE SWAP1 SWAP2 MSTORE DUP3 KECCAK256 SWAP1 SWAP2 JUMPDEST DUP4 DUP2 LT ISZERO PUSH2 0x899 JUMPI PUSH1 0x0 DUP11 DUP11 DUP4 DUP2 DUP2 LT PUSH2 0x79A JUMPI PUSH2 0x79A PUSH2 0x12E2 JUMP JUMPDEST SWAP1 POP PUSH1 0x20 MUL ADD PUSH1 0x20 DUP2 ADD SWAP1 PUSH2 0x7AF SWAP2 SWAP1 PUSH2 0x12F8 JUMP JUMPDEST SWAP1 POP PUSH1 0x1 PUSH1 0x1 PUSH1 0xA0 SHL SUB DUP2 AND PUSH2 0x7D8 JUMPI PUSH1 0x40 MLOAD PUSH4 0xD92E233D PUSH1 0xE0 SHL DUP2 MSTORE PUSH1 0x4 ADD PUSH1 0x40 MLOAD DUP1 SWAP2 SUB SWAP1 REVERT JUMPDEST PUSH1 0x0 DUP14 DUP2 MSTORE PUSH1 0x3 PUSH1 0x20 SWAP1 DUP2 MSTORE PUSH1 0x40 DUP1 DUP4 KECCAK256 PUSH1 0x1 PUSH1 0x1 PUSH1 0xA0 SHL SUB DUP6 AND DUP5 MSTORE SWAP1 SWAP2 MSTORE SWAP1 KECCAK256 SLOAD PUSH1 0xFF AND ISZERO PUSH2 0x82C JUMPI PUSH1 0x40 MLOAD PUSH4 0x3A713689 PUSH1 0xE1 SHL DUP2 MSTORE PUSH1 0x1 PUSH1 0x1 PUSH1 0xA0 SHL SUB DUP3 AND PUSH1 0x4 DUP3 ADD MSTORE PUSH1 0x24 ADD JUMPDEST PUSH1 0x40 MLOAD DUP1 SWAP2 SUB SWAP1 REVERT JUMPDEST PUSH1 0x0 DUP14 DUP2 MSTORE PUSH1 0x3 PUSH1 0x20 SWAP1 DUP2 MSTORE PUSH1 0x40 DUP1 DUP4 KECCAK256 PUSH1 0x1 PUSH1 0x1 PUSH1 0xA0 SHL SUB SWAP1 SWAP5 AND DUP1 DUP5 MSTORE SWAP4 DUP3 MSTORE DUP3 KECCAK256 DUP1 SLOAD PUSH1 0xFF NOT AND PUSH1 0x1 SWAP1 DUP2 OR SWAP1 SWAP2 SSTORE DUP6 SLOAD SWAP1 DUP2 ADD DUP7 SSTORE DUP6 DUP4 MSTORE SWAP2 KECCAK256 ADD DUP1 SLOAD PUSH20 0xFFFFFFFFFFFFFFFFFFFFFFFFFFFFFFFFFFFFFFFF NOT AND SWAP1 SWAP2 OR SWAP1 SSTORE PUSH2 0x892 DUP2 PUSH2 0x1313 JUMP JUMPDEST SWAP1 POP PUSH2 0x77E JUMP JUMPDEST POP PUSH1 0x40 DUP1 MLOAD CALLVALUE DUP2 MSTORE PUSH2 0xFFFF DUP9 DUP2 AND PUSH1 0x20 DUP4 ADD MSTORE DUP8 AND DUP2 DUP4 ADD MSTORE PUSH1 0xFF DUP10 DUP2 AND PUSH1 0x60 DUP4 ADD MSTORE DUP6 AND PUSH1 0x80 DUP3 ADD MSTORE SWAP1 MLOAD PUSH1 0x1 PUSH1 0x1 PUSH1 0xA0 SHL SUB DUP13 AND SWAP2 CALLER SWAP2 DUP15 SWAP2 PUSH32 0xFD7FACE0CEB1713FEAFF7150876E1287974BF0AC03AD76B113E09E57CD714C09 SWAP2 SWAP1 DUP2 SWAP1 SUB PUSH1 0xA0 ADD SWAP1 LOG4 POP POP POP POP POP POP POP POP POP POP POP JUMP JUMPDEST PUSH1 0x40 DUP1 MLOAD PUSH2 0x120 DUP2 ADD DUP3 MSTORE PUSH1 0x0 DUP1 DUP3 MSTORE PUSH1 0x20 DUP3 ADD DUP2 SWAP1 MSTORE SWAP2 DUP2 ADD DUP3 SWAP1 MSTORE PUSH1 0x60 DUP2 ADD DUP3 SWAP1 MSTORE PUSH1 0x80 DUP2 ADD DUP3 SWAP1 MSTORE PUSH1 0xA0 DUP2 ADD DUP3 SWAP1 MSTORE PUSH1 0xC0 DUP2 ADD DUP3 SWAP1 MSTORE PUSH1 0xE0 DUP2 ADD DUP3 SWAP1 MSTORE PUSH2 0x100 DUP2 ADD SWAP2 SWAP1 SWAP2 MSTORE PUSH1 0x0 DUP3 DUP2 MSTORE PUSH1 0x1 PUSH1 0x20 DUP2 DUP2 MSTORE PUSH1 0x40 SWAP3 DUP4 SWAP1 KECCAK256 DUP4 MLOAD PUSH2 0x120 DUP2 ADD DUP6 MSTORE DUP2 SLOAD PUSH1 0x1 PUSH1 0x1 PUSH1 0xA0 SHL SUB SWAP1 DUP2 AND DUP3 MSTORE SWAP4 DUP3 ADD SLOAD SWAP1 SWAP4 AND SWAP2 DUP4 ADD SWAP2 SWAP1 SWAP2 MSTORE PUSH1 0x2 DUP2 ADD SLOAD SWAP3 DUP3 ADD SWAP3 SWAP1 SWAP3 MSTORE PUSH1 0x3 DUP1 DUP4 ADD SLOAD PUSH2 0xFFFF DUP1 DUP3 AND PUSH1 0x60 DUP6 ADD MSTORE PUSH3 0x10000 DUP3 DIV AND PUSH1 0x80 DUP5 ADD MSTORE SWAP2 SWAP3 SWAP2 PUSH1 0xA0 DUP5 ADD SWAP2 PUSH5 0x100000000 SWAP1 SWAP2 DIV PUSH1 0xFF AND SWAP1 DUP2 GT ISZERO PUSH2 0x9DA JUMPI PUSH2 0x9DA PUSH2 0x11A8 JUMP JUMPDEST PUSH1 0x3 DUP2 GT ISZERO PUSH2 0x9EB JUMPI PUSH2 0x9EB PUSH2 0x11A8 JUMP JUMPDEST DUP2 MSTORE PUSH1 0x3 SWAP2 SWAP1 SWAP2 ADD SLOAD PUSH1 0xFF PUSH6 0x10000000000 DUP3 DIV DUP2 AND PUSH1 0x20 DUP5 ADD MSTORE PUSH7 0x1000000000000 DUP3 DIV DUP2 AND PUSH1 0x40 DUP5 ADD MSTORE PUSH1 0x1 PUSH1 0x38 SHL SWAP1 SWAP2 DIV AND PUSH1 0x60 SWAP1 SWAP2 ADD MSTORE SWAP3 SWAP2 POP POP JUMP JUMPDEST PUSH1 0x2 DUP2 ADD SLOAD PUSH1 0x3 DUP3 ADD SLOAD PUSH1 0x0 SWAP1 PUSH2 0x2710 SWAP1 PUSH2 0xA51 SWAP1 PUSH3 0x10000 SWAP1 DIV PUSH2 0xFFFF AND DUP5 PUSH2 0x132C JUMP JUMPDEST PUSH2 0xA5B SWAP2 SWAP1 PUSH2 0x1343 JUMP JUMPDEST SWAP1 POP PUSH1 0x0 PUSH2 0xA69 DUP3 DUP5 PUSH2 0x1365 JUMP JUMPDEST PUSH1 0x3 DUP6 ADD DUP1 SLOAD PUSH5 0xFF00000000 NOT AND PUSH5 0x300000000 OR SWAP1 SSTORE PUSH1 0x0 PUSH1 0x2 DUP7 ADD SSTORE SWAP1 POP DUP1 ISZERO PUSH2 0xAA4 JUMPI DUP4 SLOAD PUSH2 0xAA4 SWAP1 PUSH1 0x1 PUSH1 0x1 PUSH1 0xA0 SHL SUB AND DUP3 PUSH2 0xC8D JUMP JUMPDEST PUSH1 0x0 PUSH2 0xAB2 DUP7 DUP5 PUSH1 0x0 PUSH2 0xD1D JUMP JUMPDEST DUP6 SLOAD PUSH1 0x3 DUP8 ADD SLOAD PUSH1 0x40 DUP1 MLOAD DUP7 DUP2 MSTORE PUSH1 0x20 DUP2 ADD DUP6 SWAP1 MSTORE PUSH1 0x1 PUSH1 0x38 SHL SWAP1 SWAP3 DIV PUSH1 0xFF AND SWAP1 DUP3 ADD MSTORE SWAP2 SWAP3 POP PUSH1 0x1 PUSH1 0x1 PUSH1 0xA0 SHL SUB AND SWAP1 DUP8 SWAP1 PUSH32 0x201FFA666F22724D1A1878648FBCDAF923CE78BF2F2267CE5473BC904079A09E SWAP1 PUSH1 0x60 ADD PUSH1 0x40 MLOAD DUP1 SWAP2 SUB SWAP1 LOG3 PUSH2 0xB1B DUP7 PUSH2 0xF4E JUMP JUMPDEST POP POP POP POP POP POP JUMP JUMPDEST PUSH1 0x2 DUP2 ADD SLOAD PUSH1 0x3 DUP3 ADD SLOAD PUSH1 0x0 SWAP1 PUSH2 0x2710 SWAP1 PUSH2 0xB42 SWAP1 PUSH2 0xFFFF AND DUP5 PUSH2 0x132C JUMP JUMPDEST PUSH2 0xB4C SWAP2 SWAP1 PUSH2 0x1343 JUMP JUMPDEST PUSH1 0x3 DUP5 ADD SLOAD SWAP1 SWAP2 POP PUSH1 0x0 SWAP1 PUSH2 0x2710 SWAP1 PUSH2 0xB6F SWAP1 PUSH3 0x10000 SWAP1 DIV PUSH2 0xFFFF AND DUP6 PUSH2 0x132C JUMP JUMPDEST PUSH2 0xB79 SWAP2 SWAP1 PUSH2 0x1343 JUMP JUMPDEST SWAP1 POP PUSH1 0x0 DUP2 PUSH2 0xB88 DUP5 DUP7 PUSH2 0x1365 JUMP JUMPDEST PUSH2 0xB92 SWAP2 SWAP1 PUSH2 0x1365 JUMP JUMPDEST PUSH1 0x3 DUP7 ADD DUP1 SLOAD PUSH5 0xFF00000000 NOT AND PUSH5 0x200000000 OR SWAP1 SSTORE PUSH1 0x0 PUSH1 0x2 DUP8 ADD SSTORE SWAP1 POP DUP1 ISZERO PUSH2 0xBD0 JUMPI PUSH1 0x1 DUP6 ADD SLOAD PUSH2 0xBD0 SWAP1 PUSH1 0x1 PUSH1 0x1 PUSH1 0xA0 SHL SUB AND DUP3 PUSH2 0xC8D JUMP JUMPDEST DUP3 ISZERO PUSH2 0xC00 JUMPI PUSH2 0xC00 PUSH32 0x0 DUP5 PUSH2 0xC8D JUMP JUMPDEST PUSH1 0x0 PUSH2 0xC0E DUP8 DUP5 PUSH1 0x1 PUSH2 0xD1D JUMP JUMPDEST PUSH1 0x1 DUP8 ADD SLOAD PUSH1 0x3 DUP9 ADD SLOAD PUSH1 0x40 DUP1 MLOAD DUP7 DUP2 MSTORE PUSH1 0x20 DUP2 ADD DUP10 SWAP1 MSTORE SWAP1 DUP2 ADD DUP5 SWAP1 MSTORE PUSH7 0x1000000000000 SWAP1 SWAP2 DIV PUSH1 0xFF AND PUSH1 0x60 DUP3 ADD MSTORE SWAP2 SWAP3 POP PUSH1 0x1 PUSH1 0x1 PUSH1 0xA0 SHL SUB AND SWAP1 DUP9 SWAP1 PUSH32 0x85F6252BA48E2CAC79312EA002438939472BA44A476B0A7EC92C39D68AE4ABC6 SWAP1 PUSH1 0x80 ADD PUSH1 0x40 MLOAD DUP1 SWAP2 SUB SWAP1 LOG3 PUSH2 0xC84 DUP8 PUSH2 0xF4E JUMP JUMPDEST POP POP POP POP POP POP POP JUMP JUMPDEST DUP1 PUSH1 0x0 SUB PUSH2 0xC99 JUMPI POP POP JUMP JUMPDEST PUSH1 0x0 DUP3 PUSH1 0x1 PUSH1 0x1 PUSH1 0xA0 SHL SUB AND DUP3 PUSH1 0x40 MLOAD PUSH1 0x0 PUSH1 0x40 MLOAD DUP1 DUP4 SUB DUP2 DUP6 DUP8 GAS CALL SWAP3 POP POP POP RETURNDATASIZE DUP1 PUSH1 0x0 DUP2 EQ PUSH2 0xCE6 JUMPI PUSH1 0x40 MLOAD SWAP2 POP PUSH1 0x1F NOT PUSH1 0x3F RETURNDATASIZE ADD AND DUP3 ADD PUSH1 0x40 MSTORE RETURNDATASIZE DUP3 MSTORE RETURNDATASIZE PUSH1 0x0 PUSH1 0x20 DUP5 ADD RETURNDATACOPY PUSH2 0xCEB JUMP JUMPDEST PUSH1 0x60 SWAP2 POP JUMPDEST POP POP SWAP1 POP DUP1 PUSH2 0xD18 JUMPI PUSH1 0x40 MLOAD PUSH4 0x39F1C8D9 PUSH1 0xE0 SHL DUP2 MSTORE PUSH1 0x1 PUSH1 0x1 PUSH1 0xA0 SHL SUB DUP5 AND PUSH1 0x4 DUP3 ADD MSTORE PUSH1 0x24 ADD PUSH2 0x823 JUMP JUMPDEST POP POP POP JUMP JUMPDEST PUSH1 0x0 DUP3 PUSH1 0x0 SUB PUSH2 0xD2F JUMPI POP PUSH1 0x0 PUSH2 0xF47 JUMP JUMPDEST PUSH1 0x0 DUP5 DUP2 MSTORE PUSH1 0x2 PUSH1 0x20 MSTORE PUSH1 0x40 DUP2 KECCAK256 DUP1 SLOAD SWAP1 SWAP2 SWAP1 DUP2 JUMPDEST DUP2 DUP2 LT ISZERO PUSH2 0xDF6 JUMPI PUSH1 0x0 DUP5 DUP3 DUP2 SLOAD DUP2 LT PUSH2 0xD60 JUMPI PUSH2 0xD60 PUSH2 0x12E2 JUMP JUMPDEST PUSH1 0x0 SWAP2 DUP3 MSTORE PUSH1 0x20 DUP3 KECCAK256 ADD SLOAD PUSH1 0x1 PUSH1 0x1 PUSH1 0xA0 SHL SUB AND SWAP2 POP DUP8 PUSH2 0xDA6 JUMPI PUSH1 0x0 DUP11 DUP2 MSTORE PUSH1 0x5 PUSH1 0x20 SWAP1 DUP2 MSTORE PUSH1 0x40 DUP1 DUP4 KECCAK256 PUSH1 0x1 PUSH1 0x1 PUSH1 0xA0 SHL SUB DUP7 AND DUP5 MSTORE SWAP1 SWAP2 MSTORE SWAP1 KECCAK256 SLOAD PUSH1 0xFF AND PUSH2 0xDCD JUMP JUMPDEST PUSH1 0x0 DUP11 DUP2 MSTORE PUSH1 0x4 PUSH1 0x20 SWAP1 DUP2 MSTORE PUSH1 0x40 DUP1 DUP4 KECCAK256 PUSH1 0x1 PUSH1 0x1 PUSH1 0xA0 SHL SUB DUP7 AND DUP5 MSTORE SWAP1 SWAP2 MSTORE SWAP1 KECCAK256 SLOAD PUSH1 0xFF AND JUMPDEST SWAP1 POP DUP1 ISZERO PUSH2 0xDE3 JUMPI PUSH2 0xDE0 PUSH1 0x1 DUP7 PUSH2 0x1378 JUMP JUMPDEST SWAP5 POP JUMPDEST POP POP DUP1 PUSH2 0xDEF SWAP1 PUSH2 0x1313 JUMP JUMPDEST SWAP1 POP PUSH2 0xD44 JUMP JUMPDEST POP DUP2 PUSH1 0x0 SUB PUSH2 0xE34 JUMPI PUSH2 0xE29 PUSH32 0x0 DUP8 PUSH2 0xC8D JUMP JUMPDEST DUP6 SWAP4 POP POP POP POP PUSH2 0xF47 JUMP JUMPDEST PUSH1 0x0 PUSH2 0xE40 DUP4 DUP9 PUSH2 0x1343 JUMP JUMPDEST SWAP1 POP PUSH1 0x0 PUSH2 0xE4E DUP5 DUP4 PUSH2 0x132C JUMP JUMPDEST PUSH2 0xE58 SWAP1 DUP10 PUSH2 0x1365 JUMP JUMPDEST SWAP1 POP PUSH1 0x0 JUMPDEST DUP4 DUP2 LT ISZERO PUSH2 0xF40 JUMPI PUSH1 0x0 DUP7 DUP3 DUP2 SLOAD DUP2 LT PUSH2 0xE79 JUMPI PUSH2 0xE79 PUSH2 0x12E2 JUMP JUMPDEST PUSH1 0x0 SWAP2 DUP3 MSTORE PUSH1 0x20 DUP3 KECCAK256 ADD SLOAD PUSH1 0x1 PUSH1 0x1 PUSH1 0xA0 SHL SUB AND SWAP2 POP DUP10 PUSH2 0xEBF JUMPI PUSH1 0x0 DUP13 DUP2 MSTORE PUSH1 0x5 PUSH1 0x20 SWAP1 DUP2 MSTORE PUSH1 0x40 DUP1 DUP4 KECCAK256 PUSH1 0x1 PUSH1 0x1 PUSH1 0xA0 SHL SUB DUP7 AND DUP5 MSTORE SWAP1 SWAP2 MSTORE SWAP1 KECCAK256 SLOAD PUSH1 0xFF AND PUSH2 0xEE6 JUMP JUMPDEST PUSH1 0x0 DUP13 DUP2 MSTORE PUSH1 0x4 PUSH1 0x20 SWAP1 DUP2 MSTORE PUSH1 0x40 DUP1 DUP4 KECCAK256 PUSH1 0x1 PUSH1 0x1 PUSH1 0xA0 SHL SUB DUP7 AND DUP5 MSTORE SWAP1 SWAP2 MSTORE SWAP1 KECCAK256 SLOAD PUSH1 0xFF AND JUMPDEST SWAP1 POP DUP1 PUSH2 0xEF4 JUMPI POP POP PUSH2 0xF30 JUMP JUMPDEST DUP5 DUP5 ISZERO PUSH2 0xF16 JUMPI PUSH2 0xF06 PUSH1 0x1 DUP3 PUSH2 0x1378 JUMP JUMPDEST SWAP1 POP PUSH2 0xF13 PUSH1 0x1 DUP7 PUSH2 0x1365 JUMP JUMPDEST SWAP5 POP JUMPDEST PUSH2 0xF20 DUP4 DUP3 PUSH2 0xC8D JUMP JUMPDEST PUSH2 0xF2A DUP2 DUP12 PUSH2 0x1378 JUMP JUMPDEST SWAP10 POP POP POP POP JUMPDEST PUSH2 0xF39 DUP2 PUSH2 0x1313 JUMP JUMPDEST SWAP1 POP PUSH2 0xE5D JUMP JUMPDEST POP POP POP POP POP POP JUMPDEST SWAP4 SWAP3 POP POP POP JUMP JUMPDEST PUSH1 0x0 DUP2 DUP2 MSTORE PUSH1 0x2 PUSH1 0x20 MSTORE PUSH1 0x40 DUP2 KECCAK256 DUP1 SLOAD SWAP1 SWAP2 JUMPDEST DUP2 DUP2 LT ISZERO PUSH2 0xFF9 JUMPI PUSH1 0x0 DUP4 DUP3 DUP2 SLOAD DUP2 LT PUSH2 0xF7D JUMPI PUSH2 0xF7D PUSH2 0x12E2 JUMP JUMPDEST PUSH1 0x0 SWAP2 DUP3 MSTORE PUSH1 0x20 DUP1 DUP4 KECCAK256 SWAP1 SWAP2 ADD SLOAD DUP8 DUP4 MSTORE PUSH1 0x3 DUP3 MSTORE PUSH1 0x40 DUP1 DUP5 KECCAK256 PUSH1 0x1 PUSH1 0x1 PUSH1 0xA0 SHL SUB SWAP1 SWAP3 AND DUP1 DUP6 MSTORE SWAP2 DUP4 MSTORE DUP1 DUP5 KECCAK256 DUP1 SLOAD PUSH1 0xFF NOT SWAP1 DUP2 AND SWAP1 SWAP2 SSTORE DUP10 DUP6 MSTORE PUSH1 0x4 DUP5 MSTORE DUP2 DUP6 KECCAK256 DUP4 DUP7 MSTORE DUP5 MSTORE DUP2 DUP6 KECCAK256 DUP1 SLOAD DUP3 AND SWAP1 SSTORE DUP10 DUP6 MSTORE PUSH1 0x5 DUP5 MSTORE DUP2 DUP6 KECCAK256 SWAP3 DUP6 MSTORE SWAP2 SWAP1 SWAP3 MSTORE SWAP2 KECCAK256 DUP1 SLOAD SWAP1 SWAP2 AND SWAP1 SSTORE POP PUSH2 0xFF2 DUP2 PUSH2 0x1313 JUMP JUMPDEST SWAP1 POP PUSH2 0xF61 JUMP JUMPDEST POP PUSH1 0x0 DUP4 DUP2 MSTORE PUSH1 0x2 PUSH1 0x20 SWAP1 DUP2 MSTORE PUSH1 0x40 DUP3 KECCAK256 DUP1 SLOAD DUP4 DUP3 SSTORE SWAP1 DUP4 MSTORE SWAP2 KECCAK256 PUSH2 0xD18 SWAP2 PUSH2 0x1025 SWAP2 SWAP1 DUP2 ADD SWAP1 PUSH2 0x1028 JUMP JUMPDEST POP JUMP JUMPDEST JUMPDEST DUP1 DUP3 GT ISZERO PUSH2 0x103D JUMPI PUSH1 0x0 DUP2 SSTORE PUSH1 0x1 ADD PUSH2 0x1029 JUMP JUMPDEST POP SWAP1 JUMP JUMPDEST PUSH1 0x0 PUSH1 0x20 DUP3 DUP5 SUB SLT ISZERO PUSH2 0x1053 JUMPI PUSH1 0x0 DUP1 REVERT JUMPDEST POP CALLDATALOAD SWAP2 SWAP1 POP JUMP JUMPDEST PUSH1 0x20 DUP1 DUP3 MSTORE DUP3 MLOAD DUP3 DUP3 ADD DUP2 SWAP1 MSTORE PUSH1 0x0 SWAP2 SWAP1 DUP5 DUP3 ADD SWAP1 PUSH1 0x40 DUP6 ADD SWAP1 DUP5 JUMPDEST DUP2 DUP2 LT ISZERO PUSH2 0x109B JUMPI DUP4 MLOAD PUSH1 0x1 PUSH1 0x1 PUSH1 0xA0 SHL SUB AND DUP4 MSTORE SWAP3 DUP5 ADD SWAP3 SWAP2 DUP5 ADD SWAP2 PUSH1 0x1 ADD PUSH2 0x1076 JUMP JUMPDEST POP SWAP1 SWAP7 SWAP6 POP POP POP POP POP POP JUMP JUMPDEST DUP1 CALLDATALOAD PUSH1 0x1 PUSH1 0x1 PUSH1 0xA0 SHL SUB DUP2 AND DUP2 EQ PUSH2 0x10BE JUMPI PUSH1 0x0 DUP1 REVERT JUMPDEST SWAP2 SWAP1 POP JUMP JUMPDEST DUP1 CALLDATALOAD PUSH1 0xFF DUP2 AND DUP2 EQ PUSH2 0x10BE JUMPI PUSH1 0x0 DUP1 REVERT JUMPDEST DUP1 CALLDATALOAD PUSH2 0xFFFF DUP2 AND DUP2 EQ PUSH2 0x10BE JUMPI PUSH1 0x0 DUP1 REVERT JUMPDEST PUSH1 0x0 DUP1 PUSH1 0x0 DUP1 PUSH1 0x0 DUP1 PUSH1 0x0 PUSH1 0xC0 DUP9 DUP11 SUB SLT ISZERO PUSH2 0x1101 JUMPI PUSH1 0x0 DUP1 REVERT JUMPDEST DUP8 CALLDATALOAD SWAP7 POP PUSH2 0x1111 PUSH1 0x20 DUP10 ADD PUSH2 0x10A7 JUMP JUMPDEST SWAP6 POP PUSH1 0x40 DUP9 ADD CALLDATALOAD PUSH8 0xFFFFFFFFFFFFFFFF DUP1 DUP3 GT ISZERO PUSH2 0x112E JUMPI PUSH1 0x0 DUP1 REVERT JUMPDEST DUP2 DUP11 ADD SWAP2 POP DUP11 PUSH1 0x1F DUP4 ADD SLT PUSH2 0x1142 JUMPI PUSH1 0x0 DUP1 REVERT JUMPDEST DUP2 CALLDATALOAD DUP2 DUP2 GT ISZERO PUSH2 0x1151 JUMPI PUSH1 0x0 DUP1 REVERT JUMPDEST DUP12 PUSH1 0x20 DUP3 PUSH1 0x5 SHL DUP6 ADD ADD GT ISZERO PUSH2 0x1166 JUMPI PUSH1 0x0 DUP1 REVERT JUMPDEST PUSH1 0x20 DUP4 ADD SWAP8 POP DUP1 SWAP7 POP POP POP POP PUSH2 0x117E PUSH1 0x60 DUP10 ADD PUSH2 0x10C3 JUMP JUMPDEST SWAP3 POP PUSH2 0x118C PUSH1 0x80 DUP10 ADD PUSH2 0x10D4 JUMP JUMPDEST SWAP2 POP PUSH2 0x119A PUSH1 0xA0 DUP10 ADD PUSH2 0x10D4 JUMP JUMPDEST SWAP1 POP SWAP3 SWAP6 SWAP9 SWAP2 SWAP5 SWAP8 POP SWAP3 SWAP6 POP JUMP JUMPDEST PUSH4 0x4E487B71 PUSH1 0xE0 SHL PUSH1 0x0 MSTORE PUSH1 0x21 PUSH1 0x4 MSTORE PUSH1 0x24 PUSH1 0x0 REVERT JUMPDEST PUSH1 0x4 DUP2 LT PUSH2 0x11DC JUMPI PUSH4 0x4E487B71 PUSH1 0xE0 SHL PUSH1 0x0 MSTORE PUSH1 0x21 PUSH1 0x4 MSTORE PUSH1 0x24 PUSH1 0x0 REVERT JUMPDEST SWAP1 MSTORE JUMP JUMPDEST PUSH1 0x0 PUSH2 0x120 DUP3 ADD SWAP1 POP PUSH1 0x1 PUSH1 0x1 PUSH1 0xA0 SHL SUB DUP1 DUP5 MLOAD AND DUP4 MSTORE DUP1 PUSH1 0x20 DUP6 ADD MLOAD AND PUSH1 0x20 DUP5 ADD MSTORE POP PUSH1 0x40 DUP4 ADD MLOAD PUSH1 0x40 DUP4 ADD MSTORE PUSH1 0x60 DUP4 ADD MLOAD PUSH2 0x1223 PUSH1 0x60 DUP5 ADD DUP3 PUSH2 0xFFFF AND SWAP1 MSTORE JUMP JUMPDEST POP PUSH1 0x80 DUP4 ADD MLOAD PUSH2 0x1239 PUSH1 0x80 DUP5 ADD DUP3 PUSH2 0xFFFF AND SWAP1 MSTORE JUMP JUMPDEST POP PUSH1 0xA0 DUP4 ADD MLOAD PUSH2 0x124C PUSH1 0xA0 DUP5 ADD DUP3 PUSH2 0x11BE JUMP JUMPDEST POP PUSH1 0xC0 DUP4 ADD MLOAD PUSH2 0x1261 PUSH1 0xC0 DUP5 ADD DUP3 PUSH1 0xFF AND SWAP1 MSTORE JUMP JUMPDEST POP PUSH1 0xE0 DUP4 ADD MLOAD PUSH2 0x1276 PUSH1 0xE0 DUP5 ADD DUP3 PUSH1 0xFF AND SWAP1 MSTORE JUMP JUMPDEST POP PUSH2 0x100 SWAP3 DUP4 ADD MLOAD PUSH1 0xFF AND SWAP2 SWAP1 SWAP3 ADD MSTORE SWAP1 JUMP JUMPDEST PUSH4 0x4E487B71 PUSH1 0xE0 SHL PUSH1 0x0 MSTORE PUSH1 0x11 PUSH1 0x4 MSTORE PUSH1 0x24 PUSH1 0x0 REVERT JUMPDEST PUSH1 0xFF DUP2 DUP2 AND DUP4 DUP3 AND ADD SWAP1 DUP2 GT ISZERO PUSH2 0x12B8 JUMPI PUSH2 0x12B8 PUSH2 0x1289 JUMP JUMPDEST SWAP3 SWAP2 POP POP JUMP JUMPDEST PUSH4 0xFFFFFFFF DUP2 DUP2 AND DUP4 DUP3 AND ADD SWAP1 DUP1 DUP3 GT ISZERO PUSH2 0x12DB JUMPI PUSH2 0x12DB PUSH2 0x1289 JUMP JUMPDEST POP SWAP3 SWAP2 POP POP JUMP JUMPDEST PUSH4 0x4E487B71 PUSH1 0xE0 SHL PUSH1 0x0 MSTORE PUSH1 0x32 PUSH1 0x4 MSTORE PUSH1 0x24 PUSH1 0x0 REVERT JUMPDEST PUSH1 0x0 PUSH1 0x20 DUP3 DUP5 SUB SLT ISZERO PUSH2 0x130A JUMPI PUSH1 0x0 DUP1 REVERT JUMPDEST PUSH2 0xF47 DUP3 PUSH2 0x10A7 JUMP JUMPDEST PUSH1 0x0 PUSH1 0x1 DUP3 ADD PUSH2 0x1325 JUMPI PUSH2 0x1325 PUSH2 0x1289 JUMP JUMPDEST POP PUSH1 0x1 ADD SWAP1 JUMP JUMPDEST DUP1 DUP3 MUL DUP2 ISZERO DUP3 DUP3 DIV DUP5 EQ OR PUSH2 0x12B8 JUMPI PUSH2 0x12B8 PUSH2 0x1289 JUMP JUMPDEST PUSH1 0x0 DUP3 PUSH2 0x1360 JUMPI PUSH4 0x4E487B71 PUSH1 0xE0 SHL PUSH1 0x0 MSTORE PUSH1 0x12 PUSH1 0x4 MSTORE PUSH1 0x24 PUSH1 0x0 REVERT JUMPDEST POP DIV SWAP1 JUMP JUMPDEST DUP2 DUP2 SUB DUP2 DUP2 GT ISZERO PUSH2 0x12B8 JUMPI PUSH2 0x12B8 PUSH2 0x1289 JUMP JUMPDEST DUP1 DUP3 ADD DUP1 DUP3 GT ISZERO PUSH2 0x12B8 JUMPI PUSH2 0x12B8 PUSH2 0x1289 JUMP INVALID LOG2 PUSH5 0x6970667358 0x22 SLT KECCAK256 JUMPI 0xAB 0x4B SWAP16 BASEFEE NUMBER SWAP12 RETURNDATACOPY 0xF9 0xBE CALLVALUE 0xDD PUSH28 0x12C62427BC1101CE1AC8BF72A8C1322242AE9F64736F6C6343000813 STOP CALLER "},"methodIdentifiers":{"BPS_DENOMINATOR()":"e1a45218","approveRefund(bytes32)":"2f6b29dc","approveRelease(bytes32)":"36f67274","createEscrow(bytes32,address,address[],uint8,uint16,uint16)":"7ee09b36","getEscrow(bytes32)":"f023b811","getVerifiers(bytes32)":"79bf1a37","marketplaceTreasury()":"82421b05"}}}}}