{
  "_format": "hh-sol-artifact-1",
  "contractName": "IdentityRegistry",
  "sourceName": "contracts/IdentityRegistry.sol",
  "abi": [
    {
      "inputs": [
        {
          "internalType": "address",
          "name": "_reputationRegistry",
          "type": "address"
        },
        {
          "internalType": "address",
          "name": "_validationRegistry",
          "type": "address"
        }
      ],
      "stateMutability": "nonpayable",
      "type": "constructor"
    },
    {
      "inputs": [],
      "name": "AddressAlreadyRegistered",
      "type": "error"
    },
    {
      "inputs": [],
      "name": "AgentNotFound",
      "type": "error"
    },
    {
      "inputs": [],
      "name": "DomainAlreadyRegistered",
      "type": "error"
    },
    {
      "inputs": [],
      "name": "InsufficientFee",
      "type": "error"
    },
    {
      "inputs": [],
      "name": "InvalidAddress",
      "type": "error"
    },
    {
      "inputs": [],
      "name": "InvalidDomain",
      "type": "error"
    },
    {
      "inputs": [],
      "name": "UnauthorizedUpdate",
      "type": "error"
    },
    {
      "anonymous": false,
      "inputs": [
        {
          "indexed": true,
          "internalType": "uint256",
          "name": "agentId",
          "type": "uint256"
        },
        {
          "indexed": false,
          "internalType": "string",
          "name": "agentDomain",
          "type": "string"
        },
        {
          "indexed": false,
          "internalType": "address",
          "name": "agentAddress",
          "type": "address"
        }
      ],
      "name": "AgentRegistered",
      "type": "event"
    },
    {
      "anonymous": false,
      "inputs": [
        {
          "indexed": true,
          "internalType": "uint256",
          "name": "agentId",
          "type": "uint256"
        },
        {
          "indexed": false,
          "internalType": "string",
          "name": "agentDomain",
          "type": "string"
        },
        {
          "indexed": false,
          "internalType": "address",
          "name": "agentAddress",
          "type": "address"
        }
      ],
      "name": "AgentUpdated",
      "type": "event"
    },
    {
      "inputs": [],
      "name": "REGISTRATION_FEE",
      "outputs": [
        {
          "internalType": "uint256",
          "name": "",
          "type": "uint256"
        }
      ],
      "stateMutability": "view",
      "type": "function"
    },
    {
      "inputs": [
        {
          "internalType": "uint256",
          "name": "agentId",
          "type": "uint256"
        }
      ],
      "name": "agentExists",
      "outputs": [
        {
          "internalType": "bool",
          "name": "exists",
          "type": "bool"
        }
      ],
      "stateMutability": "view",
      "type": "function"
    },
    {
      "inputs": [
        {
          "internalType": "uint256",
          "name": "agentId",
          "type": "uint256"
        }
      ],
      "name": "getAgent",
      "outputs": [
        {
          "components": [
            {
              "internalType": "uint256",
              "name": "agentId",
              "type": "uint256"
            },
            {
              "internalType": "string",
              "name": "agentDomain",
              "type": "string"
            },
            {
              "internalType": "address",
              "name": "agentAddress",
              "type": "address"
            }
          ],
          "internalType": "struct IIdentityRegistry.AgentInfo",
          "name": "agentInfo",
          "type": "tuple"
        }
      ],
      "stateMutability": "view",
      "type": "function"
    },
    {
      "inputs": [],
      "name": "getAgentCount",
      "outputs": [
        {
          "internalType": "uint256",
          "name": "count",
          "type": "uint256"
        }
      ],
      "stateMutability": "view",
      "type": "function"
    },
    {
      "inputs": [
        {
          "internalType": "uint256",
          "name": "agentId",
          "type": "uint256"
        }
      ],
      "name": "getAgentFullInfo",
      "outputs": [
        {
          "components": [
            {
              "internalType": "uint256",
              "name": "agentId",
              "type": "uint256"
            },
            {
              "internalType": "string",
              "name": "agentDomain",
              "type": "string"
            },
            {
              "internalType": "address",
              "name": "agentAddress",
              "type": "address"
            }
          ],
          "internalType": "struct IIdentityRegistry.AgentInfo",
          "name": "agentInfo",
          "type": "tuple"
        },
        {
          "internalType": "int256",
          "name": "reputationScore",
          "type": "int256"
        },
        {
          "internalType": "uint256",
          "name": "upVotes",
          "type": "uint256"
        },
        {
          "internalType": "uint256",
          "name": "downVotes",
          "type": "uint256"
        },
        {
          "internalType": "uint256",
          "name": "validationCount",
          "type": "uint256"
        },
        {
          "internalType": "uint8",
          "name": "validationScore",
          "type": "uint8"
        }
      ],
      "stateMutability": "view",
      "type": "function"
    },
    {
      "inputs": [
        {
          "internalType": "uint256",
          "name": "agentId",
          "type": "uint256"
        }
      ],
      "name": "getAgentReputation",
      "outputs": [
        {
          "internalType": "int256",
          "name": "score",
          "type": "int256"
        }
      ],
      "stateMutability": "view",
      "type": "function"
    },
    {
      "inputs": [
        {
          "internalType": "uint256",
          "name": "agentId",
          "type": "uint256"
        }
      ],
      "name": "getAgentValidation",
      "outputs": [
        {
          "internalType": "uint256",
          "name": "validationCount",
          "type": "uint256"
        },
        {
          "internalType": "uint8",
          "name": "averageScore",
          "type": "uint8"
        }
      ],
      "stateMutability": "view",
      "type": "function"
    },
    {
      "inputs": [
        {
          "internalType": "uint256",
          "name": "agentId",
          "type": "uint256"
        }
      ],
      "name": "getAgentVoteCounts",
      "outputs": [
        {
          "internalType": "uint256",
          "name": "upVotes",
          "type": "uint256"
        },
        {
          "internalType": "uint256",
          "name": "downVotes",
          "type": "uint256"
        }
      ],
      "stateMutability": "view",
      "type": "function"
    },
    {
      "inputs": [
        {
          "internalType": "string",
          "name": "agentDomain",
          "type": "string"
        },
        {
          "internalType": "address",
          "name": "agentAddress",
          "type": "address"
        }
      ],
      "name": "newAgent",
      "outputs": [
        {
          "internalType": "uint256",
          "name": "agentId",
          "type": "uint256"
        }
      ],
      "stateMutability": "payable",
      "type": "function"
    },
    {
      "inputs": [],
      "name": "reputationRegistry",
      "outputs": [
        {
          "internalType": "contract IReputationRegistry",
          "name": "",
          "type": "address"
        }
      ],
      "stateMutability": "view",
      "type": "function"
    },
    {
      "inputs": [
        {
          "internalType": "address",
          "name": "agentAddress",
          "type": "address"
        }
      ],
      "name": "resolveByAddress",
      "outputs": [
        {
          "components": [
            {
              "internalType": "uint256",
              "name": "agentId",
              "type": "uint256"
            },
            {
              "internalType": "string",
              "name": "agentDomain",
              "type": "string"
            },
            {
              "internalType": "address",
              "name": "agentAddress",
              "type": "address"
            }
          ],
          "internalType": "struct IIdentityRegistry.AgentInfo",
          "name": "agentInfo",
          "type": "tuple"
        }
      ],
      "stateMutability": "view",
      "type": "function"
    },
    {
      "inputs": [
        {
          "internalType": "string",
          "name": "agentDomain",
          "type": "string"
        }
      ],
      "name": "resolveByDomain",
      "outputs": [
        {
          "components": [
            {
              "internalType": "uint256",
              "name": "agentId",
              "type": "uint256"
            },
            {
              "internalType": "string",
              "name": "agentDomain",
              "type": "string"
            },
            {
              "internalType": "address",
              "name": "agentAddress",
              "type": "address"
            }
          ],
          "internalType": "struct IIdentityRegistry.AgentInfo",
          "name": "agentInfo",
          "type": "tuple"
        }
      ],
      "stateMutability": "view",
      "type": "function"
    },
    {
      "inputs": [
        {
          "internalType": "address",
          "name": "_reputationRegistry",
          "type": "address"
        }
      ],
      "name": "setReputationRegistry",
      "outputs": [],
      "stateMutability": "nonpayable",
      "type": "function"
    },
    {
      "inputs": [
        {
          "internalType": "address",
          "name": "_validationRegistry",
          "type": "address"
        }
      ],
      "name": "setValidationRegistry",
      "outputs": [],
      "stateMutability": "nonpayable",
      "type": "function"
    },
    {
      "inputs": [
        {
          "internalType": "uint256",
          "name": "agentId",
          "type": "uint256"
        },
        {
          "internalType": "string",
          "name": "newAgentDomain",
          "type": "string"
        },
        {
          "internalType": "address",
          "name": "newAgentAddress",
          "type": "address"
        }
      ],
      "name": "updateAgent",
      "outputs": [
        {
          "internalType": "bool",
          "name": "success",
          "type": "bool"
        }
      ],
      "stateMutability": "nonpayable",
      "type": "function"
    },
    {
      "inputs": [],
      "name": "validationRegistry",
      "outputs": [
        {
          "internalType": "contract IValidationRegistry",
          "name": "",
          "type": "address"
        }
      ],
      "stateMutability": "view",
      "type": "function"
    }
  ],
  "bytecode": "0x60806040523480156200001157600080fd5b5060405162001784380380620017848339810160408190526200003491620000b6565b60016000556001600160a01b038216156200006557600480546001600160a01b0319166001600160a01b0384161790555b6001600160a01b038116156200009157600580546001600160a01b0319166001600160a01b0383161790555b5050620000ee565b80516001600160a01b0381168114620000b157600080fd5b919050565b60008060408385031215620000ca57600080fd5b620000d58362000099565b9150620000e56020840162000099565b90509250929050565b61168680620000fe6000396000f3fe6080604052600436106100f35760003560e01c80634ee4eca81161008a57806391cab63e1161005957806391cab63e1461032c578063c8db44e314610341578063cb43091f14610361578063de99f1571461038157600080fd5b80634ee4eca81461028557806357518309146102ba57806364b4f751146102f157806378ddad121461030c57600080fd5b80633f0ce714116100c65780633f0ce714146101b05780633f252e00146101ef5780634750d0fa1461022c5780634c6b993a1461024d57600080fd5b80630c638107146100f85780631154c3fe1461012e5780632de5aaf7146101605780633bfbbad714610180575b600080fd5b34801561010457600080fd5b50610118610113366004610fe1565b6103b0565b6040516101259190611071565b60405180910390f35b34801561013a57600080fd5b5061014e610149366004611084565b6104e6565b6040516101259695949392919061109d565b34801561016c57600080fd5b5061011861017b366004611084565b610791565b34801561018c57600080fd5b506101a061019b366004611125565b6108b0565b6040519015158152602001610125565b3480156101bc57600080fd5b506101ed6101cb366004610fe1565b600480546001600160a01b0319166001600160a01b0392909216919091179055565b005b3480156101fb57600080fd5b506101ed61020a366004610fe1565b600580546001600160a01b0319166001600160a01b0392909216919091179055565b61023f61023a366004611183565b610aa2565b604051908152602001610125565b34801561025957600080fd5b5060055461026d906001600160a01b031681565b6040516001600160a01b039091168152602001610125565b34801561029157600080fd5b506102a56102a0366004611084565b610cc6565b60408051928352602083019190915201610125565b3480156102c657600080fd5b506102da6102d5366004611084565b610d59565b6040805192835260ff909116602083015201610125565b3480156102fd57600080fd5b5061023f6611c37937e0800081565b34801561031857600080fd5b506101186103273660046111d7565b610de5565b34801561033857600080fd5b5061023f610f28565b34801561034d57600080fd5b5060045461026d906001600160a01b031681565b34801561036d57600080fd5b5061023f61037c366004611084565b610f3e565b34801561038d57600080fd5b506101a061039c366004611084565b600090815260016020526040902054151590565b6103dd6040518060600160405280600081526020016060815260200160006001600160a01b031681525090565b6001600160a01b038216600090815260036020526040812054908190036104175760405163e93ba22360e01b815260040160405180910390fd5b6000818152600160208181526040928390208351606081019094528054845291820180549184019161044890611219565b80601f016020809104026020016040519081016040528092919081815260200182805461047490611219565b80156104c15780601f10610496576101008083540402835291602001916104c1565b820191906000526020600020905b8154815290600101906020018083116104a457829003601f168201915b5050509183525050600291909101546001600160a01b03166020909101529392505050565b6105136040518060600160405280600081526020016060815260200160006001600160a01b031681525090565b6000806000806000600160008881526020019081526020016000206040518060600160405290816000820154815260200160018201805461055390611219565b80601f016020809104026020016040519081016040528092919081815260200182805461057f90611219565b80156105cc5780601f106105a1576101008083540402835291602001916105cc565b820191906000526020600020905b8154815290600101906020018083116105af57829003601f168201915b5050509183525050600291909101546001600160a01b0316602090910152805190965060000361060f5760405163e93ba22360e01b815260040160405180910390fd5b6004546001600160a01b03161561070557600480546040516389370d8b60e01b81529182018990526001600160a01b0316906389370d8b90602401602060405180830381865afa158015610667573d6000803e3d6000fd5b505050506040513d601f19601f8201168201806040525081019061068b9190611253565b6004805460405163228907d360e21b81529297506001600160a01b031691638a241f4c916106bf918b910190815260200190565b6040805180830381865afa1580156106db573d6000803e3d6000fd5b505050506040513d601f19601f820116820180604052508101906106ff919061126c565b90945092505b6005546001600160a01b031615610788576005546040516320e4ab9760e21b8152600481018990526001600160a01b0390911690638392ae5c906024016040805180830381865afa15801561075e573d6000803e3d6000fd5b505050506040513d601f19601f820116820180604052508101906107829190611290565b90925090505b91939550919395565b6107be6040518060600160405280600081526020016060815260200160006001600160a01b031681525090565b600082815260016020818152604092839020835160608101909452805484529182018054918401916107ef90611219565b80601f016020809104026020016040519081016040528092919081815260200182805461081b90611219565b80156108685780601f1061083d57610100808354040283529160200191610868565b820191906000526020600020905b81548152906001019060200180831161084b57829003601f168201915b5050509183525050600291909101546001600160a01b031660209091015280519091506000036108ab5760405163e93ba22360e01b815260040160405180910390fd5b919050565b6000848152600160205260408120805482036108df5760405163e93ba22360e01b815260040160405180910390fd5b60028101546001600160a01b0316331461090c57604051634f1f214760e01b815260040160405180910390fd5b83158015906001600160a01b03851615159061096357600287876040516109349291906112c6565b90815260200160405180910390205460001461096357604051637b857a6b60e01b815260040160405180910390fd5b80156109a0576001600160a01b038516600090815260036020526040902054156109a0576040516316a163b960e11b815260040160405180910390fd5b8115610a00576002836001016040516109b991906112d6565b90815260405190819003602001902060009055600183016109db8789836113b1565b5087600288886040516109ef9291906112c6565b908152604051908190036020019020555b8015610a46576002830180546001600160a01b0390811660009081526003602052604080822082905583546001600160a01b031916928916928317909355908152208890555b600283015460405189917f1b37db56c92268433e33fda6783791cb9e5f8ffababd3952ab40716443f1bf8991610a8c9160018801916001600160a01b0390911690611472565b60405180910390a2506001979650505050505050565b6000828103610ac4576040516375893cc160e11b815260040160405180910390fd5b6001600160a01b038216610aeb5760405163e6c4247b60e01b815260040160405180910390fd5b60028484604051610afd9291906112c6565b908152602001604051809103902054600014610b2c57604051637b857a6b60e01b815260040160405180910390fd5b6001600160a01b03821660009081526003602052604090205415610b63576040516316a163b960e11b815260040160405180910390fd5b6611c37937e08000341015610b8a5760405162976f7560e21b815260040160405180910390fd5b600080549080610b9983611522565b919050559050604051806060016040528082815260200185858080601f01602080910402602001604051908101604052809392919081815260200183838082843760009201829052509385525050506001600160a01b03851660209283015283815260018083526040909120835181559183015190820190610c1b908261153b565b50604091820151600291820180546001600160a01b0319166001600160a01b039092169190911790559051829190610c5690879087906112c6565b9081526040805160209281900383018120939093556001600160a01b03851660009081526003909252902082905581907faef1fcdf962a03943b677ae3b92ef1b34c972aeef794ed6e9ba5f599b461883b90610cb7908790879087906115fb565b60405180910390a29392505050565b60045460009081906001600160a01b0316610ce657506000928392509050565b6004805460405163228907d360e21b81529182018590526001600160a01b031690638a241f4c906024016040805180830381865afa158015610d2c573d6000803e3d6000fd5b505050506040513d601f19601f82011682018060405250810190610d50919061126c565b91509150915091565b60055460009081906001600160a01b0316610d7957506000928392509050565b6005546040516320e4ab9760e21b8152600481018590526001600160a01b0390911690638392ae5c906024016040805180830381865afa158015610dc1573d6000803e3d6000fd5b505050506040513d601f19601f82011682018060405250810190610d509190611290565b610e126040518060600160405280600081526020016060815260200160006001600160a01b031681525090565b600060028484604051610e269291906112c6565b908152602001604051809103902054905080600003610e585760405163e93ba22360e01b815260040160405180910390fd5b60008181526001602081815260409283902083516060810190945280548452918201805491840191610e8990611219565b80601f0160208091040260200160405190810160405280929190818152602001828054610eb590611219565b8015610f025780601f10610ed757610100808354040283529160200191610f02565b820191906000526020600020905b815481529060010190602001808311610ee557829003601f168201915b5050509183525050600291909101546001600160a01b0316602090910152949350505050565b60006001600054610f39919061163d565b905090565b6004546000906001600160a01b0316610f5957506000919050565b600480546040516389370d8b60e01b81529182018490526001600160a01b0316906389370d8b90602401602060405180830381865afa158015610fa0573d6000803e3d6000fd5b505050506040513d601f19601f82011682018060405250810190610fc49190611253565b92915050565b80356001600160a01b03811681146108ab57600080fd5b600060208284031215610ff357600080fd5b610ffc82610fca565b9392505050565b805182526000602080830151606082860152805180606087015260005b8181101561103c57828101840151878201608001528301611020565b506000608082880101526001600160a01b0360408601511660408701526080601f19601f830116870101935050505092915050565b602081526000610ffc6020830184611003565b60006020828403121561109657600080fd5b5035919050565b60c0815260006110b060c0830189611003565b60208301979097525060408101949094526060840192909252608083015260ff1660a090910152919050565b60008083601f8401126110ee57600080fd5b50813567ffffffffffffffff81111561110657600080fd5b60208301915083602082850101111561111e57600080fd5b9250929050565b6000806000806060858703121561113b57600080fd5b84359350602085013567ffffffffffffffff81111561115957600080fd5b611165878288016110dc565b9094509250611178905060408601610fca565b905092959194509250565b60008060006040848603121561119857600080fd5b833567ffffffffffffffff8111156111af57600080fd5b6111bb868287016110dc565b90945092506111ce905060208501610fca565b90509250925092565b600080602083850312156111ea57600080fd5b823567ffffffffffffffff81111561120157600080fd5b61120d858286016110dc565b90969095509350505050565b600181811c9082168061122d57607f821691505b60208210810361124d57634e487b7160e01b600052602260045260246000fd5b50919050565b60006020828403121561126557600080fd5b5051919050565b6000806040838503121561127f57600080fd5b505080516020909101519092909150565b600080604083850312156112a357600080fd5b82519150602083015160ff811681146112bb57600080fd5b809150509250929050565b8183823760009101908152919050565b60008083546112e481611219565b600182811680156112fc576001811461131157611340565b60ff1984168752821515830287019450611340565b8760005260208060002060005b858110156113375781548a82015290840190820161131e565b50505082870194505b50929695505050505050565b634e487b7160e01b600052604160045260246000fd5b601f8211156113ac57600081815260208120601f850160051c810160208610156113895750805b601f850160051c820191505b818110156113a857828155600101611395565b5050505b505050565b67ffffffffffffffff8311156113c9576113c961134c565b6113dd836113d78354611219565b83611362565b6000601f84116001811461141157600085156113f95750838201355b600019600387901b1c1916600186901b17835561146b565b600083815260209020601f19861690835b828110156114425786850135825560209485019460019092019101611422565b508682101561145f5760001960f88860031b161c19848701351681555b505060018560011b0183555b5050505050565b60408152600080845461148481611219565b80604086015260606001808416600081146114a657600181146114c0576114f1565b60ff1985168884015283151560051b8801830195506114f1565b8960005260208060002060005b868110156114e85781548b82018701529084019082016114cd565b8a018501975050505b505050506001600160a01b0385166020850152509050610ffc565b634e487b7160e01b600052601160045260246000fd5b6000600182016115345761153461150c565b5060010190565b815167ffffffffffffffff8111156115555761155561134c565b611569816115638454611219565b84611362565b602080601f83116001811461159e57600084156115865750858301515b600019600386901b1c1916600185901b1785556113a8565b600085815260208120601f198616915b828110156115cd578886015182559484019460019091019084016115ae565b50858210156115eb5787850151600019600388901b60f8161c191681555b5050505050600190811b01905550565b604081528260408201528284606083013760006060848301015260006060601f19601f86011683010190506001600160a01b0383166020830152949350505050565b81810381811115610fc457610fc461150c56fea264697066735822122053778dbd5a20c0fa545884917bfabd317be24f3b2e4ee05f401b93478c87cbf464736f6c63430008130033",
  "linkReferences": {},
  "deployedLinkReferences": {}
}