{
  "_format": "hh-sol-artifact-1",
  "contractName": "IdentityRegistry",
  "sourceName": "contracts/IdentityRegistry.sol",
  "abi": [
    {
      "inputs": [
        {
          "internalType": "address",
          "name": "_reputationRegistry",
          "type": "address"
        },
        {
          "internalType": "address",
          "name": "_validationRegistry",
          "type": "address"
        }
      ],
      "stateMutability": "nonpayable",
      "type": "constructor"
    },
    {
      "inputs": [],
      "name": "AddressAlreadyRegistered",
      "type": "error"
    },
    {
      "inputs": [],
      "name": "AgentNotFound",
      "type": "error"
    },
    {
      "inputs": [],
      "name": "DomainAlreadyRegistered",
      "type": "error"
    },
    {
      "inputs": [],
      "name": "InsufficientFee",
      "type": "error"
    },
    {
      "inputs": [],
      "name": "InvalidAddress",
      "type": "error"
    },
    {
      "inputs": [],
      "name": "InvalidDomain",
      "type": "error"
    },
    {
      "inputs": [],
      "name": "UnauthorizedUpdate",
      "type": "error"
    },
    {
      "anonymous": false,
      "inputs": [
        {
          "indexed": true,
          "internalType": "uint256",
          "name": "agentId",
          "type": "uint256"
        },
        {
          "indexed": false,
          "internalType": "string",
          "name": "agentDomain",
          "type": "string"
        },
        {
          "indexed": false,
          "internalType": "address",
          "name": "agentAddress",
          "type": "address"
        }
      ],
      "name": "AgentRegistered",
      "type": "event"
    },
    {
      "anonymous": false,
      "inputs": [
        {
          "indexed": true,
          "internalType": "uint256",
          "name": "agentId",
          "type": "uint256"
        },
        {
          "indexed": false,
          "internalType": "string",
          "name": "agentDomain",
          "type": "string"
        },
        {
          "indexed": false,
          "internalType": "address",
          "name": "agentAddress",
          "type": "address"
        }
      ],
      "name": "AgentUpdated",
      "type": "event"
    },
    {
      "inputs": [],
      "name": "REGISTRATION_FEE",
      "outputs": [
        {
          "internalType": "uint256",
          "name": "",
          "type": "uint256"
        }
      ],
      "stateMutability": "view",
      "type": "function"
    },
    {
      "inputs": [
        {
          "internalType": "uint256",
          "name": "agentId",
          "type": "uint256"
        }
      ],
      "name": "agentExists",
      "outputs": [
        {
          "internalType": "bool",
          "name": "exists",
          "type": "bool"
        }
      ],
      "stateMutability": "view",
      "type": "function"
    },
    {
      "inputs": [
        {
          "internalType": "uint256",
          "name": "agentId",
          "type": "uint256"
        }
      ],
      "name": "getAgent",
      "outputs": [
        {
          "components": [
            {
              "internalType": "uint256",
              "name": "agentId",
              "type": "uint256"
            },
            {
              "internalType": "string",
              "name": "agentDomain",
              "type": "string"
            },
            {
              "internalType": "address",
              "name": "agentAddress",
              "type": "address"
            }
          ],
          "internalType": "struct IIdentityRegistry.AgentInfo",
          "name": "agentInfo",
          "type": "tuple"
        }
      ],
      "stateMutability": "view",
      "type": "function"
    },
    {
      "inputs": [],
      "name": "getAgentCount",
      "outputs": [
        {
          "internalType": "uint256",
          "name": "count",
          "type": "uint256"
        }
      ],
      "stateMutability": "view",
      "type": "function"
    },
    {
      "inputs": [
        {
          "internalType": "uint256",
          "name": "agentId",
          "type": "uint256"
        },
        {
          "internalType": "uint256",
          "name": "otherAgentId",
          "type": "uint256"
        },
        {
          "internalType": "bytes32",
          "name": "dataHash",
          "type": "bytes32"
        }
      ],
      "name": "getAgentFullInfo",
      "outputs": [
        {
          "components": [
            {
              "internalType": "uint256",
              "name": "agentId",
              "type": "uint256"
            },
            {
              "internalType": "string",
              "name": "agentDomain",
              "type": "string"
            },
            {
              "internalType": "address",
              "name": "agentAddress",
              "type": "address"
            }
          ],
          "internalType": "struct IIdentityRegistry.AgentInfo",
          "name": "agentInfo",
          "type": "tuple"
        },
        {
          "internalType": "bool",
          "name": "hasReputationAuth",
          "type": "bool"
        },
        {
          "internalType": "bytes32",
          "name": "feedbackAuthId",
          "type": "bytes32"
        },
        {
          "internalType": "bool",
          "name": "hasValidation",
          "type": "bool"
        },
        {
          "internalType": "bool",
          "name": "validationPending",
          "type": "bool"
        },
        {
          "internalType": "uint8",
          "name": "validationScore",
          "type": "uint8"
        }
      ],
      "stateMutability": "view",
      "type": "function"
    },
    {
      "inputs": [
        {
          "internalType": "uint256",
          "name": "agentClientId",
          "type": "uint256"
        },
        {
          "internalType": "uint256",
          "name": "agentServerId",
          "type": "uint256"
        }
      ],
      "name": "getAgentReputationAuth",
      "outputs": [
        {
          "internalType": "bool",
          "name": "isAuthorized",
          "type": "bool"
        },
        {
          "internalType": "bytes32",
          "name": "feedbackAuthId",
          "type": "bytes32"
        }
      ],
      "stateMutability": "view",
      "type": "function"
    },
    {
      "inputs": [
        {
          "internalType": "bytes32",
          "name": "dataHash",
          "type": "bytes32"
        }
      ],
      "name": "getAgentValidationRequest",
      "outputs": [
        {
          "components": [
            {
              "internalType": "uint256",
              "name": "agentValidatorId",
              "type": "uint256"
            },
            {
              "internalType": "uint256",
              "name": "agentServerId",
              "type": "uint256"
            },
            {
              "internalType": "bytes32",
              "name": "dataHash",
              "type": "bytes32"
            },
            {
              "internalType": "uint256",
              "name": "timestamp",
              "type": "uint256"
            },
            {
              "internalType": "bool",
              "name": "responded",
              "type": "bool"
            }
          ],
          "internalType": "struct IValidationRegistry.Request",
          "name": "request",
          "type": "tuple"
        }
      ],
      "stateMutability": "view",
      "type": "function"
    },
    {
      "inputs": [
        {
          "internalType": "bytes32",
          "name": "dataHash",
          "type": "bytes32"
        }
      ],
      "name": "getAgentValidationResponse",
      "outputs": [
        {
          "internalType": "bool",
          "name": "hasResponse",
          "type": "bool"
        },
        {
          "internalType": "uint8",
          "name": "response",
          "type": "uint8"
        }
      ],
      "stateMutability": "view",
      "type": "function"
    },
    {
      "inputs": [
        {
          "internalType": "bytes32",
          "name": "dataHash",
          "type": "bytes32"
        }
      ],
      "name": "getAgentValidationStatus",
      "outputs": [
        {
          "internalType": "bool",
          "name": "exists",
          "type": "bool"
        },
        {
          "internalType": "bool",
          "name": "pending",
          "type": "bool"
        }
      ],
      "stateMutability": "view",
      "type": "function"
    },
    {
      "inputs": [
        {
          "internalType": "string",
          "name": "agentDomain",
          "type": "string"
        },
        {
          "internalType": "address",
          "name": "agentAddress",
          "type": "address"
        }
      ],
      "name": "newAgent",
      "outputs": [
        {
          "internalType": "uint256",
          "name": "agentId",
          "type": "uint256"
        }
      ],
      "stateMutability": "payable",
      "type": "function"
    },
    {
      "inputs": [],
      "name": "reputationRegistry",
      "outputs": [
        {
          "internalType": "contract IReputationRegistry",
          "name": "",
          "type": "address"
        }
      ],
      "stateMutability": "view",
      "type": "function"
    },
    {
      "inputs": [
        {
          "internalType": "address",
          "name": "agentAddress",
          "type": "address"
        }
      ],
      "name": "resolveByAddress",
      "outputs": [
        {
          "components": [
            {
              "internalType": "uint256",
              "name": "agentId",
              "type": "uint256"
            },
            {
              "internalType": "string",
              "name": "agentDomain",
              "type": "string"
            },
            {
              "internalType": "address",
              "name": "agentAddress",
              "type": "address"
            }
          ],
          "internalType": "struct IIdentityRegistry.AgentInfo",
          "name": "agentInfo",
          "type": "tuple"
        }
      ],
      "stateMutability": "view",
      "type": "function"
    },
    {
      "inputs": [
        {
          "internalType": "string",
          "name": "agentDomain",
          "type": "string"
        }
      ],
      "name": "resolveByDomain",
      "outputs": [
        {
          "components": [
            {
              "internalType": "uint256",
              "name": "agentId",
              "type": "uint256"
            },
            {
              "internalType": "string",
              "name": "agentDomain",
              "type": "string"
            },
            {
              "internalType": "address",
              "name": "agentAddress",
              "type": "address"
            }
          ],
          "internalType": "struct IIdentityRegistry.AgentInfo",
          "name": "agentInfo",
          "type": "tuple"
        }
      ],
      "stateMutability": "view",
      "type": "function"
    },
    {
      "inputs": [
        {
          "internalType": "address",
          "name": "_reputationRegistry",
          "type": "address"
        }
      ],
      "name": "setReputationRegistry",
      "outputs": [],
      "stateMutability": "nonpayable",
      "type": "function"
    },
    {
      "inputs": [
        {
          "internalType": "address",
          "name": "_validationRegistry",
          "type": "address"
        }
      ],
      "name": "setValidationRegistry",
      "outputs": [],
      "stateMutability": "nonpayable",
      "type": "function"
    },
    {
      "inputs": [
        {
          "internalType": "uint256",
          "name": "agentId",
          "type": "uint256"
        },
        {
          "internalType": "string",
          "name": "newAgentDomain",
          "type": "string"
        },
        {
          "internalType": "address",
          "name": "newAgentAddress",
          "type": "address"
        }
      ],
      "name": "updateAgent",
      "outputs": [
        {
          "internalType": "bool",
          "name": "success",
          "type": "bool"
        }
      ],
      "stateMutability": "nonpayable",
      "type": "function"
    },
    {
      "inputs": [],
      "name": "validationRegistry",
      "outputs": [
        {
          "internalType": "contract IValidationRegistry",
          "name": "",
          "type": "address"
        }
      ],
      "stateMutability": "view",
      "type": "function"
    }
  ],
  "bytecode": "0x60806040523480156200001157600080fd5b5060405162001a3938038062001a398339810160408190526200003491620000b6565b60016000556001600160a01b038216156200006557600480546001600160a01b0319166001600160a01b0384161790555b6001600160a01b038116156200009157600580546001600160a01b0319166001600160a01b0383161790555b5050620000ee565b80516001600160a01b0381168114620000b157600080fd5b919050565b60008060408385031215620000ca57600080fd5b620000d58362000099565b9150620000e56020840162000099565b90509250929050565b61193b80620000fe6000396000f3fe6080604052600436106100fe5760003560e01c806364b4f75111610095578063b96641da11610064578063b96641da1461031e578063c812e2af14610355578063c8c5183c146103b9578063c8db44e3146103eb578063de99f1571461040b57600080fd5b806364b4f7511461029557806378ddad12146102b057806391cab63e146102d05780639700e8a6146102e557600080fd5b80633f0ce714116100d15780633f0ce714146101c05780633f252e00146101ff5780634750d0fa1461023c5780634c6b993a1461025d57600080fd5b80630c638107146101035780632de5aaf7146101395780633bfbbad7146101595780633f00feac14610189575b600080fd5b34801561010f57600080fd5b5061012361011e3660046111a0565b61043a565b6040516101309190611230565b60405180910390f35b34801561014557600080fd5b50610123610154366004611243565b610570565b34801561016557600080fd5b5061017961017436600461129e565b61068f565b6040519015158152602001610130565b34801561019557600080fd5b506101a96101a4366004611243565b610881565b604080519215158352901515602083015201610130565b3480156101cc57600080fd5b506101fd6101db3660046111a0565b600480546001600160a01b0319166001600160a01b0392909216919091179055565b005b34801561020b57600080fd5b506101fd61021a3660046111a0565b600580546001600160a01b0319166001600160a01b0392909216919091179055565b61024f61024a3660046112fc565b610916565b604051908152602001610130565b34801561026957600080fd5b5060055461027d906001600160a01b031681565b6040516001600160a01b039091168152602001610130565b3480156102a157600080fd5b5061024f6611c37937e0800081565b3480156102bc57600080fd5b506101236102cb366004611350565b610b3a565b3480156102dc57600080fd5b5061024f610c7d565b3480156102f157600080fd5b50610305610300366004611243565b610c93565b60408051921515835260ff909116602083015201610130565b34801561032a57600080fd5b5061033e610339366004611392565b610d1f565b604080519215158352602083019190915201610130565b34801561036157600080fd5b50610375610370366004611243565b610dbc565b6040516101309190600060a0820190508251825260208301516020830152604083015160408301526060830151606083015260808301511515608083015292915050565b3480156103c557600080fd5b506103d96103d43660046113b4565b610eb6565b604051610130969594939291906113e0565b3480156103f757600080fd5b5060045461027d906001600160a01b031681565b34801561041757600080fd5b50610179610426366004611243565b600090815260016020526040902054151590565b6104676040518060600160405280600081526020016060815260200160006001600160a01b031681525090565b6001600160a01b038216600090815260036020526040812054908190036104a15760405163e93ba22360e01b815260040160405180910390fd5b600081815260016020818152604092839020835160608101909452805484529182018054918401916104d290611421565b80601f01602080910402602001604051908101604052809291908181526020018280546104fe90611421565b801561054b5780601f106105205761010080835404028352916020019161054b565b820191906000526020600020905b81548152906001019060200180831161052e57829003601f168201915b5050509183525050600291909101546001600160a01b03166020909101529392505050565b61059d6040518060600160405280600081526020016060815260200160006001600160a01b031681525090565b600082815260016020818152604092839020835160608101909452805484529182018054918401916105ce90611421565b80601f01602080910402602001604051908101604052809291908181526020018280546105fa90611421565b80156106475780601f1061061c57610100808354040283529160200191610647565b820191906000526020600020905b81548152906001019060200180831161062a57829003601f168201915b5050509183525050600291909101546001600160a01b0316602090910152805190915060000361068a5760405163e93ba22360e01b815260040160405180910390fd5b919050565b6000848152600160205260408120805482036106be5760405163e93ba22360e01b815260040160405180910390fd5b60028101546001600160a01b031633146106eb57604051634f1f214760e01b815260040160405180910390fd5b83158015906001600160a01b038516151590610742576002878760405161071392919061145b565b90815260200160405180910390205460001461074257604051637b857a6b60e01b815260040160405180910390fd5b801561077f576001600160a01b0385166000908152600360205260409020541561077f576040516316a163b960e11b815260040160405180910390fd5b81156107df57600283600101604051610798919061146b565b90815260405190819003602001902060009055600183016107ba878983611546565b5087600288886040516107ce92919061145b565b908152604051908190036020019020555b8015610825576002830180546001600160a01b0390811660009081526003602052604080822082905583546001600160a01b031916928916928317909355908152208890555b600283015460405189917f1b37db56c92268433e33fda6783791cb9e5f8ffababd3952ab40716443f1bf899161086b9160018801916001600160a01b0390911690611607565b60405180910390a2506001979650505050505050565b60055460009081906001600160a01b03166108a157506000928392509050565b60055460405163312891ed60e11b8152600481018590526001600160a01b039091169063625123da906024016040805180830381865afa1580156108e9573d6000803e3d6000fd5b505050506040513d601f19601f8201168201806040525081019061090d91906116b1565b91509150915091565b6000828103610938576040516375893cc160e11b815260040160405180910390fd5b6001600160a01b03821661095f5760405163e6c4247b60e01b815260040160405180910390fd5b6002848460405161097192919061145b565b9081526020016040518091039020546000146109a057604051637b857a6b60e01b815260040160405180910390fd5b6001600160a01b038216600090815260036020526040902054156109d7576040516316a163b960e11b815260040160405180910390fd5b6611c37937e080003410156109fe5760405162976f7560e21b815260040160405180910390fd5b600080549080610a0d836116fa565b919050559050604051806060016040528082815260200185858080601f01602080910402602001604051908101604052809392919081815260200183838082843760009201829052509385525050506001600160a01b03851660209283015283815260018083526040909120835181559183015190820190610a8f9082611713565b50604091820151600291820180546001600160a01b0319166001600160a01b039092169190911790559051829190610aca908790879061145b565b9081526040805160209281900383018120939093556001600160a01b03851660009081526003909252902082905581907faef1fcdf962a03943b677ae3b92ef1b34c972aeef794ed6e9ba5f599b461883b90610b2b908790879087906117d3565b60405180910390a29392505050565b610b676040518060600160405280600081526020016060815260200160006001600160a01b031681525090565b600060028484604051610b7b92919061145b565b908152602001604051809103902054905080600003610bad5760405163e93ba22360e01b815260040160405180910390fd5b60008181526001602081815260409283902083516060810190945280548452918201805491840191610bde90611421565b80601f0160208091040260200160405190810160405280929190818152602001828054610c0a90611421565b8015610c575780601f10610c2c57610100808354040283529160200191610c57565b820191906000526020600020905b815481529060010190602001808311610c3a57829003601f168201915b5050509183525050600291909101546001600160a01b0316602090910152949350505050565b60006001600054610c8e9190611815565b905090565b60055460009081906001600160a01b0316610cb357506000928392509050565b60055460405163c941b16160e01b8152600481018590526001600160a01b039091169063c941b161906024016040805180830381865afa158015610cfb573d6000803e3d6000fd5b505050506040513d601f19601f8201168201806040525081019061090d9190611828565b60045460009081906001600160a01b0316610d3f57506000905080610db5565b6004805460405163a9f9401560e01b8152918201869052602482018590526001600160a01b03169063a9f94015906044016040805180830381865afa158015610d8c573d6000803e3d6000fd5b505050506040513d601f19601f82011682018060405250810190610db09190611865565b915091505b9250929050565b6040805160a0810182526000808252602082018190529181018290526060810182905260808101919091526005546001600160a01b0316610e435760405162461bcd60e51b815260206004820152601a60248201527f56616c69646174696f6e5265676973747279206e6f7420736574000000000000604482015260640160405180910390fd5b60055460405163684b81bd60e11b8152600481018490526001600160a01b039091169063d097037a9060240160a060405180830381865afa158015610e8c573d6000803e3d6000fd5b505050506040513d601f19601f82011682018060405250810190610eb09190611891565b92915050565b610ee36040518060600160405280600081526020016060815260200160006001600160a01b031681525090565b6000806000806000600160008a815260200190815260200160002060405180606001604052908160008201548152602001600182018054610f2390611421565b80601f0160208091040260200160405190810160405280929190818152602001828054610f4f90611421565b8015610f9c5780601f10610f7157610100808354040283529160200191610f9c565b820191906000526020600020905b815481529060010190602001808311610f7f57829003601f168201915b5050509183525050600291909101546001600160a01b03166020909101528051909650600003610fdf5760405163e93ba22360e01b815260040160405180910390fd5b6004546001600160a01b031615801590610ff857508715155b15611074576004805460405163a9f9401560e01b81529182018b9052602482018a90526001600160a01b03169063a9f94015906044016040805180830381865afa15801561104a573d6000803e3d6000fd5b505050506040513d601f19601f8201168201806040525081019061106e9190611865565b90955093505b6005546001600160a01b03161580159061108d57508615155b1561117d5760055460405163312891ed60e11b8152600481018990526000916001600160a01b03169063625123da906024016040805180830381865afa1580156110db573d6000803e3d6000fd5b505050506040513d601f19601f820116820180604052508101906110ff91906116b1565b93509050801561117b5760055460405163c941b16160e01b8152600481018a90526001600160a01b039091169063c941b161906024016040805180830381865afa158015611151573d6000803e3d6000fd5b505050506040513d601f19601f820116820180604052508101906111759190611828565b90945091505b505b93975093979195509350565b80356001600160a01b038116811461068a57600080fd5b6000602082840312156111b257600080fd5b6111bb82611189565b9392505050565b805182526000602080830151606082860152805180606087015260005b818110156111fb578281018401518782016080015283016111df565b506000608082880101526001600160a01b0360408601511660408701526080601f19601f830116870101935050505092915050565b6020815260006111bb60208301846111c2565b60006020828403121561125557600080fd5b5035919050565b60008083601f84011261126e57600080fd5b50813567ffffffffffffffff81111561128657600080fd5b602083019150836020828501011115610db557600080fd5b600080600080606085870312156112b457600080fd5b84359350602085013567ffffffffffffffff8111156112d257600080fd5b6112de8782880161125c565b90945092506112f1905060408601611189565b905092959194509250565b60008060006040848603121561131157600080fd5b833567ffffffffffffffff81111561132857600080fd5b6113348682870161125c565b9094509250611347905060208501611189565b90509250925092565b6000806020838503121561136357600080fd5b823567ffffffffffffffff81111561137a57600080fd5b6113868582860161125c565b90969095509350505050565b600080604083850312156113a557600080fd5b50508035926020909101359150565b6000806000606084860312156113c957600080fd5b505081359360208301359350604090920135919050565b60c0815260006113f360c08301896111c2565b961515602083015250604081019490945291151560608401521515608083015260ff1660a090910152919050565b600181811c9082168061143557607f821691505b60208210810361145557634e487b7160e01b600052602260045260246000fd5b50919050565b8183823760009101908152919050565b600080835461147981611421565b6001828116801561149157600181146114a6576114d5565b60ff19841687528215158302870194506114d5565b8760005260208060002060005b858110156114cc5781548a8201529084019082016114b3565b50505082870194505b50929695505050505050565b634e487b7160e01b600052604160045260246000fd5b601f82111561154157600081815260208120601f850160051c8101602086101561151e5750805b601f850160051c820191505b8181101561153d5782815560010161152a565b5050505b505050565b67ffffffffffffffff83111561155e5761155e6114e1565b6115728361156c8354611421565b836114f7565b6000601f8411600181146115a6576000851561158e5750838201355b600019600387901b1c1916600186901b178355611600565b600083815260209020601f19861690835b828110156115d757868501358255602094850194600190920191016115b7565b50868210156115f45760001960f88860031b161c19848701351681555b505060018560011b0183555b5050505050565b60408152600080845461161981611421565b806040860152606060018084166000811461163b576001811461165557611686565b60ff1985168884015283151560051b880183019550611686565b8960005260208060002060005b8681101561167d5781548b8201870152908401908201611662565b8a018501975050505b505050506001600160a01b03851660208501525090506111bb565b8051801515811461068a57600080fd5b600080604083850312156116c457600080fd5b6116cd836116a1565b91506116db602084016116a1565b90509250929050565b634e487b7160e01b600052601160045260246000fd5b60006001820161170c5761170c6116e4565b5060010190565b815167ffffffffffffffff81111561172d5761172d6114e1565b6117418161173b8454611421565b846114f7565b602080601f831160018114611776576000841561175e5750858301515b600019600386901b1c1916600185901b17855561153d565b600085815260208120601f198616915b828110156117a557888601518255948401946001909101908401611786565b50858210156117c35787850151600019600388901b60f8161c191681555b5050505050600190811b01905550565b604081528260408201528284606083013760006060848301015260006060601f19601f86011683010190506001600160a01b0383166020830152949350505050565b81810381811115610eb057610eb06116e4565b6000806040838503121561183b57600080fd5b611844836116a1565b9150602083015160ff8116811461185a57600080fd5b809150509250929050565b6000806040838503121561187857600080fd5b611881836116a1565b9150602083015190509250929050565b600060a082840312156118a357600080fd5b60405160a0810181811067ffffffffffffffff821117156118c6576118c66114e1565b8060405250825181526020830151602082015260408301516040820152606083015160608201526118f9608084016116a1565b6080820152939250505056fea26469706673582212207fb9b7b77098f5b91568d8828b9143638fd725de98d0faaa319b05f3ae95767e64736f6c63430008130033",
  "linkReferences": {},
  "deployedLinkReferences": {}
}