{
  "_format": "hh-sol-artifact-1",
  "contractName": "IdentityRegistry",
  "sourceName": "contracts/IdentityRegistry.sol",
  "abi": [
    {
      "inputs": [
        {
          "internalType": "address",
          "name": "_reputationRegistry",
          "type": "address"
        },
        {
          "internalType": "address",
          "name": "_validationRegistry",
          "type": "address"
        }
      ],
      "stateMutability": "nonpayable",
      "type": "constructor"
    },
    {
      "inputs": [],
      "name": "AddressAlreadyRegistered",
      "type": "error"
    },
    {
      "inputs": [],
      "name": "AgentNotFound",
      "type": "error"
    },
    {
      "inputs": [],
      "name": "DomainAlreadyRegistered",
      "type": "error"
    },
    {
      "inputs": [],
      "name": "InsufficientFee",
      "type": "error"
    },
    {
      "inputs": [],
      "name": "InvalidAddress",
      "type": "error"
    },
    {
      "inputs": [],
      "name": "InvalidDomain",
      "type": "error"
    },
    {
      "inputs": [],
      "name": "UnauthorizedUpdate",
      "type": "error"
    },
    {
      "anonymous": false,
      "inputs": [
        {
          "indexed": true,
          "internalType": "uint256",
          "name": "agentId",
          "type": "uint256"
        },
        {
          "indexed": false,
          "internalType": "string",
          "name": "agentDomain",
          "type": "string"
        },
        {
          "indexed": false,
          "internalType": "address",
          "name": "agentAddress",
          "type": "address"
        }
      ],
      "name": "AgentRegistered",
      "type": "event"
    },
    {
      "anonymous": false,
      "inputs": [
        {
          "indexed": true,
          "internalType": "uint256",
          "name": "agentId",
          "type": "uint256"
        },
        {
          "indexed": false,
          "internalType": "string",
          "name": "agentDomain",
          "type": "string"
        },
        {
          "indexed": false,
          "internalType": "address",
          "name": "agentAddress",
          "type": "address"
        }
      ],
      "name": "AgentUpdated",
      "type": "event"
    },
    {
      "inputs": [],
      "name": "REGISTRATION_FEE",
      "outputs": [
        {
          "internalType": "uint256",
          "name": "",
          "type": "uint256"
        }
      ],
      "stateMutability": "view",
      "type": "function"
    },
    {
      "inputs": [
        {
          "internalType": "uint256",
          "name": "agentId",
          "type": "uint256"
        }
      ],
      "name": "agentExists",
      "outputs": [
        {
          "internalType": "bool",
          "name": "exists",
          "type": "bool"
        }
      ],
      "stateMutability": "view",
      "type": "function"
    },
    {
      "inputs": [
        {
          "internalType": "uint256",
          "name": "agentId",
          "type": "uint256"
        }
      ],
      "name": "getAgent",
      "outputs": [
        {
          "components": [
            {
              "internalType": "uint256",
              "name": "agentId",
              "type": "uint256"
            },
            {
              "internalType": "string",
              "name": "agentDomain",
              "type": "string"
            },
            {
              "internalType": "address",
              "name": "agentAddress",
              "type": "address"
            },
            {
              "internalType": "string",
              "name": "metadataUri",
              "type": "string"
            }
          ],
          "internalType": "struct IIdentityRegistry.AgentInfo",
          "name": "agentInfo",
          "type": "tuple"
        }
      ],
      "stateMutability": "view",
      "type": "function"
    },
    {
      "inputs": [],
      "name": "getAgentCount",
      "outputs": [
        {
          "internalType": "uint256",
          "name": "count",
          "type": "uint256"
        }
      ],
      "stateMutability": "view",
      "type": "function"
    },
    {
      "inputs": [
        {
          "internalType": "uint256",
          "name": "agentId",
          "type": "uint256"
        }
      ],
      "name": "getAgentFullInfo",
      "outputs": [
        {
          "components": [
            {
              "internalType": "uint256",
              "name": "agentId",
              "type": "uint256"
            },
            {
              "internalType": "string",
              "name": "agentDomain",
              "type": "string"
            },
            {
              "internalType": "address",
              "name": "agentAddress",
              "type": "address"
            },
            {
              "internalType": "string",
              "name": "metadataUri",
              "type": "string"
            }
          ],
          "internalType": "struct IIdentityRegistry.AgentInfo",
          "name": "agentInfo",
          "type": "tuple"
        },
        {
          "internalType": "int256",
          "name": "reputationScore",
          "type": "int256"
        },
        {
          "internalType": "uint256",
          "name": "upVotes",
          "type": "uint256"
        },
        {
          "internalType": "uint256",
          "name": "downVotes",
          "type": "uint256"
        },
        {
          "internalType": "uint256",
          "name": "validationCount",
          "type": "uint256"
        },
        {
          "internalType": "uint8",
          "name": "validationScore",
          "type": "uint8"
        }
      ],
      "stateMutability": "view",
      "type": "function"
    },
    {
      "inputs": [
        {
          "internalType": "uint256",
          "name": "agentId",
          "type": "uint256"
        }
      ],
      "name": "getAgentReputation",
      "outputs": [
        {
          "internalType": "int256",
          "name": "score",
          "type": "int256"
        }
      ],
      "stateMutability": "view",
      "type": "function"
    },
    {
      "inputs": [
        {
          "internalType": "uint256",
          "name": "agentId",
          "type": "uint256"
        }
      ],
      "name": "getAgentValidation",
      "outputs": [
        {
          "internalType": "uint256",
          "name": "validationCount",
          "type": "uint256"
        },
        {
          "internalType": "uint8",
          "name": "averageScore",
          "type": "uint8"
        }
      ],
      "stateMutability": "view",
      "type": "function"
    },
    {
      "inputs": [
        {
          "internalType": "uint256",
          "name": "agentId",
          "type": "uint256"
        }
      ],
      "name": "getAgentVoteCounts",
      "outputs": [
        {
          "internalType": "uint256",
          "name": "upVotes",
          "type": "uint256"
        },
        {
          "internalType": "uint256",
          "name": "downVotes",
          "type": "uint256"
        }
      ],
      "stateMutability": "view",
      "type": "function"
    },
    {
      "inputs": [],
      "name": "getAllDomains",
      "outputs": [
        {
          "internalType": "string[]",
          "name": "domains",
          "type": "string[]"
        }
      ],
      "stateMutability": "view",
      "type": "function"
    },
    {
      "inputs": [
        {
          "internalType": "uint256",
          "name": "offset",
          "type": "uint256"
        },
        {
          "internalType": "uint256",
          "name": "limit",
          "type": "uint256"
        }
      ],
      "name": "getDomainsPaginated",
      "outputs": [
        {
          "internalType": "string[]",
          "name": "domains",
          "type": "string[]"
        },
        {
          "internalType": "uint256",
          "name": "total",
          "type": "uint256"
        }
      ],
      "stateMutability": "view",
      "type": "function"
    },
    {
      "inputs": [
        {
          "internalType": "string",
          "name": "agentDomain",
          "type": "string"
        },
        {
          "internalType": "address",
          "name": "agentAddress",
          "type": "address"
        },
        {
          "internalType": "string",
          "name": "metadataUri",
          "type": "string"
        }
      ],
      "name": "newAgent",
      "outputs": [
        {
          "internalType": "uint256",
          "name": "agentId",
          "type": "uint256"
        }
      ],
      "stateMutability": "payable",
      "type": "function"
    },
    {
      "inputs": [],
      "name": "reputationRegistry",
      "outputs": [
        {
          "internalType": "contract IReputationRegistry",
          "name": "",
          "type": "address"
        }
      ],
      "stateMutability": "view",
      "type": "function"
    },
    {
      "inputs": [
        {
          "internalType": "address",
          "name": "agentAddress",
          "type": "address"
        }
      ],
      "name": "resolveByAddress",
      "outputs": [
        {
          "components": [
            {
              "internalType": "uint256",
              "name": "agentId",
              "type": "uint256"
            },
            {
              "internalType": "string",
              "name": "agentDomain",
              "type": "string"
            },
            {
              "internalType": "address",
              "name": "agentAddress",
              "type": "address"
            },
            {
              "internalType": "string",
              "name": "metadataUri",
              "type": "string"
            }
          ],
          "internalType": "struct IIdentityRegistry.AgentInfo",
          "name": "agentInfo",
          "type": "tuple"
        }
      ],
      "stateMutability": "view",
      "type": "function"
    },
    {
      "inputs": [
        {
          "internalType": "string",
          "name": "agentDomain",
          "type": "string"
        }
      ],
      "name": "resolveByDomain",
      "outputs": [
        {
          "components": [
            {
              "internalType": "uint256",
              "name": "agentId",
              "type": "uint256"
            },
            {
              "internalType": "string",
              "name": "agentDomain",
              "type": "string"
            },
            {
              "internalType": "address",
              "name": "agentAddress",
              "type": "address"
            },
            {
              "internalType": "string",
              "name": "metadataUri",
              "type": "string"
            }
          ],
          "internalType": "struct IIdentityRegistry.AgentInfo",
          "name": "agentInfo",
          "type": "tuple"
        }
      ],
      "stateMutability": "view",
      "type": "function"
    },
    {
      "inputs": [
        {
          "internalType": "address",
          "name": "_reputationRegistry",
          "type": "address"
        }
      ],
      "name": "setReputationRegistry",
      "outputs": [],
      "stateMutability": "nonpayable",
      "type": "function"
    },
    {
      "inputs": [
        {
          "internalType": "address",
          "name": "_validationRegistry",
          "type": "address"
        }
      ],
      "name": "setValidationRegistry",
      "outputs": [],
      "stateMutability": "nonpayable",
      "type": "function"
    },
    {
      "inputs": [
        {
          "internalType": "uint256",
          "name": "agentId",
          "type": "uint256"
        },
        {
          "internalType": "string",
          "name": "newAgentDomain",
          "type": "string"
        },
        {
          "internalType": "address",
          "name": "newAgentAddress",
          "type": "address"
        }
      ],
      "name": "updateAgent",
      "outputs": [
        {
          "internalType": "bool",
          "name": "success",
          "type": "bool"
        }
      ],
      "stateMutability": "nonpayable",
      "type": "function"
    },
    {
      "inputs": [
        {
          "internalType": "uint256",
          "name": "agentId",
          "type": "uint256"
        },
        {
          "internalType": "string",
          "name": "newMetadataUri",
          "type": "string"
        }
      ],
      "name": "updateMetadata",
      "outputs": [
        {
          "internalType": "bool",
          "name": "success",
          "type": "bool"
        }
      ],
      "stateMutability": "nonpayable",
      "type": "function"
    },
    {
      "inputs": [],
      "name": "validationRegistry",
      "outputs": [
        {
          "internalType": "contract IValidationRegistry",
          "name": "",
          "type": "address"
        }
      ],
      "stateMutability": "view",
      "type": "function"
    }
  ],
  "bytecode": "0x60806040523480156200001157600080fd5b5060405162001fac38038062001fac8339810160408190526200003491620000b6565b60016000556001600160a01b038216156200006557600580546001600160a01b0319166001600160a01b0384161790555b6001600160a01b038116156200009157600680546001600160a01b0319166001600160a01b0383161790555b5050620000ee565b80516001600160a01b0381168114620000b157600080fd5b919050565b60008060408385031215620000ca57600080fd5b620000d58362000099565b9150620000e56020840162000099565b90509250929050565b611eae80620000fe6000396000f3fe6080604052600436106101145760003560e01c806357518309116100a0578063c8db44e311610064578063c8db44e314610391578063cb43091f146103b1578063d9f0f470146103d1578063de99f157146103e4578063e777ce721461041357600080fd5b806357518309146102da5780635a018e6a1461031157806364b4f7511461033357806378ddad121461035c57806391cab63e1461037c57600080fd5b80633f0ce714116100e75780633f0ce714146101d15780633f252e00146102105780634c6b993a1461024d5780634ee4eca81461028557806353c8388e146102ba57600080fd5b80630c638107146101195780631154c3fe1461014f5780632de5aaf7146101815780633bfbbad7146101a1575b600080fd5b34801561012557600080fd5b5061013961013436600461169a565b610441565b604051610146919061174f565b60405180910390f35b34801561015b57600080fd5b5061016f61016a366004611762565b610613565b6040516101469695949392919061177b565b34801561018d57600080fd5b5061013961019c366004611762565b610956565b3480156101ad57600080fd5b506101c16101bc3660046117fc565b610b12565b6040519015158152602001610146565b3480156101dd57600080fd5b5061020e6101ec36600461169a565b600580546001600160a01b0319166001600160a01b0392909216919091179055565b005b34801561021c57600080fd5b5061020e61022b36600461169a565b600680546001600160a01b0319166001600160a01b0392909216919091179055565b34801561025957600080fd5b5060065461026d906001600160a01b031681565b6040516001600160a01b039091168152602001610146565b34801561029157600080fd5b506102a56102a0366004611762565b610d04565b60408051928352602083019190915201610146565b3480156102c657600080fd5b506101c16102d536600461185a565b610d99565b3480156102e657600080fd5b506102fa6102f5366004611762565b610e60565b6040805192835260ff909116602083015201610146565b34801561031d57600080fd5b50610326610eec565b60405161014691906118fb565b34801561033f57600080fd5b5061034e6611c37937e0800081565b604051908152602001610146565b34801561036857600080fd5b5061013961037736600461190e565b610fc5565b34801561038857600080fd5b5061034e6111a4565b34801561039d57600080fd5b5060055461026d906001600160a01b031681565b3480156103bd57600080fd5b5061034e6103cc366004611762565b6111ba565b61034e6103df366004611950565b611248565b3480156103f057600080fd5b506101c16103ff366004611762565b600090815260016020526040902054151590565b34801561041f57600080fd5b5061043361042e3660046119d4565b6114d8565b6040516101469291906119f6565b6104756040518060800160405280600081526020016060815260200160006001600160a01b03168152602001606081525090565b6001600160a01b038216600090815260036020526040812054908190036104af5760405163e93ba22360e01b815260040160405180910390fd5b600081815260016020818152604092839020835160808101909452805484529182018054918401916104e090611a18565b80601f016020809104026020016040519081016040528092919081815260200182805461050c90611a18565b80156105595780601f1061052e57610100808354040283529160200191610559565b820191906000526020600020905b81548152906001019060200180831161053c57829003601f168201915b505050918352505060028201546001600160a01b0316602082015260038201805460409092019161058990611a18565b80601f01602080910402602001604051908101604052809291908181526020018280546105b590611a18565b80156106025780601f106105d757610100808354040283529160200191610602565b820191906000526020600020905b8154815290600101906020018083116105e557829003601f168201915b505050505081525050915050919050565b6106476040518060800160405280600081526020016060815260200160006001600160a01b03168152602001606081525090565b6000806000806000600160008881526020019081526020016000206040518060800160405290816000820154815260200160018201805461068790611a18565b80601f01602080910402602001604051908101604052809291908181526020018280546106b390611a18565b80156107005780601f106106d557610100808354040283529160200191610700565b820191906000526020600020905b8154815290600101906020018083116106e357829003601f168201915b505050918352505060028201546001600160a01b0316602082015260038201805460409092019161073090611a18565b80601f016020809104026020016040519081016040528092919081815260200182805461075c90611a18565b80156107a95780601f1061077e576101008083540402835291602001916107a9565b820191906000526020600020905b81548152906001019060200180831161078c57829003601f168201915b505050505081525050955085600001516000036107d95760405163e93ba22360e01b815260040160405180910390fd5b6005546001600160a01b0316156108ca576005546040516389370d8b60e01b8152600481018990526001600160a01b03909116906389370d8b90602401602060405180830381865afa158015610833573d6000803e3d6000fd5b505050506040513d601f19601f820116820180604052508101906108579190611a52565b60055460405163228907d360e21b8152600481018a90529196506001600160a01b031690638a241f4c906024016040805180830381865afa1580156108a0573d6000803e3d6000fd5b505050506040513d601f19601f820116820180604052508101906108c49190611a6b565b90945092505b6006546001600160a01b03161561094d576006546040516320e4ab9760e21b8152600481018990526001600160a01b0390911690638392ae5c906024016040805180830381865afa158015610923573d6000803e3d6000fd5b505050506040513d601f19601f820116820180604052508101906109479190611a8f565b90925090505b91939550919395565b61098a6040518060800160405280600081526020016060815260200160006001600160a01b03168152602001606081525090565b600082815260016020818152604092839020835160808101909452805484529182018054918401916109bb90611a18565b80601f01602080910402602001604051908101604052809291908181526020018280546109e790611a18565b8015610a345780601f10610a0957610100808354040283529160200191610a34565b820191906000526020600020905b815481529060010190602001808311610a1757829003601f168201915b505050918352505060028201546001600160a01b03166020820152600382018054604090920191610a6490611a18565b80601f0160208091040260200160405190810160405280929190818152602001828054610a9090611a18565b8015610add5780601f10610ab257610100808354040283529160200191610add565b820191906000526020600020905b815481529060010190602001808311610ac057829003601f168201915b50505050508152505090508060000151600003610b0d5760405163e93ba22360e01b815260040160405180910390fd5b919050565b600084815260016020526040812080548203610b415760405163e93ba22360e01b815260040160405180910390fd5b60028101546001600160a01b03163314610b6e57604051634f1f214760e01b815260040160405180910390fd5b83158015906001600160a01b038516151590610bc55760028787604051610b96929190611ac5565b908152602001604051809103902054600014610bc557604051637b857a6b60e01b815260040160405180910390fd5b8015610c02576001600160a01b03851660009081526003602052604090205415610c02576040516316a163b960e11b815260040160405180910390fd5b8115610c6257600283600101604051610c1b9190611ad5565b9081526040519081900360200190206000905560018301610c3d878983611bb0565b508760028888604051610c51929190611ac5565b908152604051908190036020019020555b8015610ca8576002830180546001600160a01b0390811660009081526003602052604080822082905583546001600160a01b031916928916928317909355908152208890555b600283015460405189917f1b37db56c92268433e33fda6783791cb9e5f8ffababd3952ab40716443f1bf8991610cee9160018801916001600160a01b0390911690611c71565b60405180910390a2506001979650505050505050565b60055460009081906001600160a01b0316610d2457506000928392509050565b60055460405163228907d360e21b8152600481018590526001600160a01b0390911690638a241f4c906024016040805180830381865afa158015610d6c573d6000803e3d6000fd5b505050506040513d601f19601f82011682018060405250810190610d909190611a6b565b91509150915091565b600083815260016020526040812080548203610dc85760405163e93ba22360e01b815260040160405180910390fd5b60028101546001600160a01b03163314610df557604051634f1f214760e01b815260040160405180910390fd5b60038101610e04848683611bb0565b50600281015460405186917f1b37db56c92268433e33fda6783791cb9e5f8ffababd3952ab40716443f1bf8991610e4b9160018601916001600160a01b0390911690611c71565b60405180910390a260019150505b9392505050565b60065460009081906001600160a01b0316610e8057506000928392509050565b6006546040516320e4ab9760e21b8152600481018590526001600160a01b0390911690638392ae5c906024016040805180830381865afa158015610ec8573d6000803e3d6000fd5b505050506040513d601f19601f82011682018060405250810190610d909190611a8f565b60606004805480602002602001604051908101604052809291908181526020016000905b82821015610fbc578382906000526020600020018054610f2f90611a18565b80601f0160208091040260200160405190810160405280929190818152602001828054610f5b90611a18565b8015610fa85780601f10610f7d57610100808354040283529160200191610fa8565b820191906000526020600020905b815481529060010190602001808311610f8b57829003601f168201915b505050505081526020019060010190610f10565b50505050905090565b610ff96040518060800160405280600081526020016060815260200160006001600160a01b03168152602001606081525090565b60006002848460405161100d929190611ac5565b90815260200160405180910390205490508060000361103f5760405163e93ba22360e01b815260040160405180910390fd5b6000818152600160208181526040928390208351608081019094528054845291820180549184019161107090611a18565b80601f016020809104026020016040519081016040528092919081815260200182805461109c90611a18565b80156110e95780601f106110be576101008083540402835291602001916110e9565b820191906000526020600020905b8154815290600101906020018083116110cc57829003601f168201915b505050918352505060028201546001600160a01b0316602082015260038201805460409092019161111990611a18565b80601f016020809104026020016040519081016040528092919081815260200182805461114590611a18565b80156111925780601f1061116757610100808354040283529160200191611192565b820191906000526020600020905b81548152906001019060200180831161117557829003601f168201915b50505050508152505091505092915050565b600060016000546111b59190611d21565b905090565b6005546000906001600160a01b03166111d557506000919050565b6005546040516389370d8b60e01b8152600481018490526001600160a01b03909116906389370d8b90602401602060405180830381865afa15801561121e573d6000803e3d6000fd5b505050506040513d601f19601f820116820180604052508101906112429190611a52565b92915050565b600084810361126a576040516375893cc160e11b815260040160405180910390fd5b6001600160a01b0384166112915760405163e6c4247b60e01b815260040160405180910390fd5b600286866040516112a3929190611ac5565b9081526020016040518091039020546000146112d257604051637b857a6b60e01b815260040160405180910390fd5b6001600160a01b03841660009081526003602052604090205415611309576040516316a163b960e11b815260040160405180910390fd5b60008054908061131883611d34565b919050559050604051806080016040528082815260200187878080601f0160208091040260200160405190810160405280939291908181526020018383808284376000920191909152505050908252506001600160a01b03861660208083019190915260408051601f87018390048302810183018252868152920191908690869081908401838280828437600092018290525093909452505083815260016020818152604090922084518155918401519192508201906113d89082611d4d565b5060408201516002820180546001600160a01b0319166001600160a01b03909216919091179055606082015160038201906114139082611d4d565b50905050806002878760405161142a929190611ac5565b9081526040805160209281900383019020929092556001600160a01b038616600090815260039091529081208290556004805460018101825591527f8a35acfbc15ff81a39ae7d344fd709f28e8600b4aa8c65c6b64bfe7fe36bd19b01611492868883611bb0565b50807faef1fcdf962a03943b677ae3b92ef1b34c972aeef794ed6e9ba5f599b461883b8787876040516114c793929190611e0d565b60405180910390a295945050505050565b600454606090808410611518576040805160008082526020820190925290611510565b60608152602001906001900390816114fb5790505b50915061167c565b60006115248486611e4f565b9050818111156115315750805b600061153d8683611d21565b90508067ffffffffffffffff81111561155857611558611b4b565b60405190808252806020026020018201604052801561158b57816020015b60608152602001906001900390816115765790505b50935060005b818110156116785760046115a58289611e4f565b815481106115b5576115b5611e62565b9060005260206000200180546115ca90611a18565b80601f01602080910402602001604051908101604052809291908181526020018280546115f690611a18565b80156116435780601f1061161857610100808354040283529160200191611643565b820191906000526020600020905b81548152906001019060200180831161162657829003601f168201915b505050505085828151811061165a5761165a611e62565b6020026020010181905250808061167090611d34565b915050611591565b5050505b9250929050565b80356001600160a01b0381168114610b0d57600080fd5b6000602082840312156116ac57600080fd5b610e5982611683565b6000815180845260005b818110156116db576020818501810151868301820152016116bf565b506000602082860101526020601f19601f83011685010191505092915050565b80518252600060208201516080602085015261171a60808501826116b5565b90506001600160a01b0360408401511660408501526060830151848203606086015261174682826116b5565b95945050505050565b602081526000610e5960208301846116fb565b60006020828403121561177457600080fd5b5035919050565b60c08152600061178e60c08301896116fb565b60208301979097525060408101949094526060840192909252608083015260ff1660a090910152919050565b60008083601f8401126117cc57600080fd5b50813567ffffffffffffffff8111156117e457600080fd5b60208301915083602082850101111561167c57600080fd5b6000806000806060858703121561181257600080fd5b84359350602085013567ffffffffffffffff81111561183057600080fd5b61183c878288016117ba565b909450925061184f905060408601611683565b905092959194509250565b60008060006040848603121561186f57600080fd5b83359250602084013567ffffffffffffffff81111561188d57600080fd5b611899868287016117ba565b9497909650939450505050565b600081518084526020808501808196508360051b8101915082860160005b858110156118ee5782840389526118dc8483516116b5565b988501989350908401906001016118c4565b5091979650505050505050565b602081526000610e5960208301846118a6565b6000806020838503121561192157600080fd5b823567ffffffffffffffff81111561193857600080fd5b611944858286016117ba565b90969095509350505050565b60008060008060006060868803121561196857600080fd5b853567ffffffffffffffff8082111561198057600080fd5b61198c89838a016117ba565b90975095508591506119a060208901611683565b945060408801359150808211156119b657600080fd5b506119c3888289016117ba565b969995985093965092949392505050565b600080604083850312156119e757600080fd5b50508035926020909101359150565b604081526000611a0960408301856118a6565b90508260208301529392505050565b600181811c90821680611a2c57607f821691505b602082108103611a4c57634e487b7160e01b600052602260045260246000fd5b50919050565b600060208284031215611a6457600080fd5b5051919050565b60008060408385031215611a7e57600080fd5b505080516020909101519092909150565b60008060408385031215611aa257600080fd5b82519150602083015160ff81168114611aba57600080fd5b809150509250929050565b8183823760009101908152919050565b6000808354611ae381611a18565b60018281168015611afb5760018114611b1057611b3f565b60ff1984168752821515830287019450611b3f565b8760005260208060002060005b85811015611b365781548a820152908401908201611b1d565b50505082870194505b50929695505050505050565b634e487b7160e01b600052604160045260246000fd5b601f821115611bab57600081815260208120601f850160051c81016020861015611b885750805b601f850160051c820191505b81811015611ba757828155600101611b94565b5050505b505050565b67ffffffffffffffff831115611bc857611bc8611b4b565b611bdc83611bd68354611a18565b83611b61565b6000601f841160018114611c105760008515611bf85750838201355b600019600387901b1c1916600186901b178355611c6a565b600083815260209020601f19861690835b82811015611c415786850135825560209485019460019092019101611c21565b5086821015611c5e5760001960f88860031b161c19848701351681555b505060018560011b0183555b5050505050565b604081526000808454611c8381611a18565b8060408601526060600180841660008114611ca55760018114611cbf57611cf0565b60ff1985168884015283151560051b880183019550611cf0565b8960005260208060002060005b86811015611ce75781548b8201870152908401908201611ccc565b8a018501975050505b505050506001600160a01b0385166020850152509050610e59565b634e487b7160e01b600052601160045260246000fd5b8181038181111561124257611242611d0b565b600060018201611d4657611d46611d0b565b5060010190565b815167ffffffffffffffff811115611d6757611d67611b4b565b611d7b81611d758454611a18565b84611b61565b602080601f831160018114611db05760008415611d985750858301515b600019600386901b1c1916600185901b178555611ba7565b600085815260208120601f198616915b82811015611ddf57888601518255948401946001909101908401611dc0565b5085821015611dfd5787850151600019600388901b60f8161c191681555b5050505050600190811b01905550565b604081528260408201528284606083013760006060848301015260006060601f19601f86011683010190506001600160a01b0383166020830152949350505050565b8082018082111561124257611242611d0b565b634e487b7160e01b600052603260045260246000fdfea26469706673582212208e072ce15c8b79977df60d6acd085303fd9c05e84613fb7f694ac666acd6f79064736f6c63430008130033",
  "linkReferences": {},
  "deployedLinkReferences": {}
}