{
  "_format": "hh-sol-artifact-1",
  "contractName": "IdentityRegistry",
  "sourceName": "contracts/IdentityRegistry.sol",
  "abi": [
    {
      "inputs": [
        {
          "internalType": "address",
          "name": "_reputationRegistry",
          "type": "address"
        },
        {
          "internalType": "address",
          "name": "_validationRegistry",
          "type": "address"
        }
      ],
      "stateMutability": "nonpayable",
      "type": "constructor"
    },
    {
      "inputs": [],
      "name": "AddressAlreadyRegistered",
      "type": "error"
    },
    {
      "inputs": [],
      "name": "AgentNotFound",
      "type": "error"
    },
    {
      "inputs": [],
      "name": "DomainAlreadyRegistered",
      "type": "error"
    },
    {
      "inputs": [],
      "name": "InsufficientFee",
      "type": "error"
    },
    {
      "inputs": [],
      "name": "InvalidAddress",
      "type": "error"
    },
    {
      "inputs": [],
      "name": "InvalidDomain",
      "type": "error"
    },
    {
      "inputs": [],
      "name": "UnauthorizedUpdate",
      "type": "error"
    },
    {
      "anonymous": false,
      "inputs": [
        {
          "indexed": true,
          "internalType": "uint256",
          "name": "agentId",
          "type": "uint256"
        },
        {
          "indexed": false,
          "internalType": "string",
          "name": "agentDomain",
          "type": "string"
        },
        {
          "indexed": false,
          "internalType": "address",
          "name": "agentAddress",
          "type": "address"
        }
      ],
      "name": "AgentRegistered",
      "type": "event"
    },
    {
      "anonymous": false,
      "inputs": [
        {
          "indexed": true,
          "internalType": "uint256",
          "name": "agentId",
          "type": "uint256"
        },
        {
          "indexed": false,
          "internalType": "string",
          "name": "agentDomain",
          "type": "string"
        },
        {
          "indexed": false,
          "internalType": "address",
          "name": "agentAddress",
          "type": "address"
        }
      ],
      "name": "AgentUpdated",
      "type": "event"
    },
    {
      "inputs": [],
      "name": "REGISTRATION_FEE",
      "outputs": [
        {
          "internalType": "uint256",
          "name": "",
          "type": "uint256"
        }
      ],
      "stateMutability": "view",
      "type": "function"
    },
    {
      "inputs": [
        {
          "internalType": "uint256",
          "name": "agentId",
          "type": "uint256"
        }
      ],
      "name": "agentExists",
      "outputs": [
        {
          "internalType": "bool",
          "name": "exists",
          "type": "bool"
        }
      ],
      "stateMutability": "view",
      "type": "function"
    },
    {
      "inputs": [
        {
          "internalType": "uint256",
          "name": "agentId",
          "type": "uint256"
        }
      ],
      "name": "getAgent",
      "outputs": [
        {
          "components": [
            {
              "internalType": "uint256",
              "name": "agentId",
              "type": "uint256"
            },
            {
              "internalType": "string",
              "name": "agentDomain",
              "type": "string"
            },
            {
              "internalType": "address",
              "name": "agentAddress",
              "type": "address"
            }
          ],
          "internalType": "struct IIdentityRegistry.AgentInfo",
          "name": "agentInfo",
          "type": "tuple"
        }
      ],
      "stateMutability": "view",
      "type": "function"
    },
    {
      "inputs": [],
      "name": "getAgentCount",
      "outputs": [
        {
          "internalType": "uint256",
          "name": "count",
          "type": "uint256"
        }
      ],
      "stateMutability": "view",
      "type": "function"
    },
    {
      "inputs": [
        {
          "internalType": "uint256",
          "name": "agentId",
          "type": "uint256"
        }
      ],
      "name": "getAgentFullInfo",
      "outputs": [
        {
          "components": [
            {
              "internalType": "uint256",
              "name": "agentId",
              "type": "uint256"
            },
            {
              "internalType": "string",
              "name": "agentDomain",
              "type": "string"
            },
            {
              "internalType": "address",
              "name": "agentAddress",
              "type": "address"
            }
          ],
          "internalType": "struct IIdentityRegistry.AgentInfo",
          "name": "agentInfo",
          "type": "tuple"
        },
        {
          "internalType": "int256",
          "name": "reputationScore",
          "type": "int256"
        },
        {
          "internalType": "uint256",
          "name": "upVotes",
          "type": "uint256"
        },
        {
          "internalType": "uint256",
          "name": "downVotes",
          "type": "uint256"
        },
        {
          "internalType": "uint256",
          "name": "validationCount",
          "type": "uint256"
        },
        {
          "internalType": "uint8",
          "name": "validationScore",
          "type": "uint8"
        }
      ],
      "stateMutability": "view",
      "type": "function"
    },
    {
      "inputs": [
        {
          "internalType": "uint256",
          "name": "agentId",
          "type": "uint256"
        }
      ],
      "name": "getAgentReputation",
      "outputs": [
        {
          "internalType": "int256",
          "name": "score",
          "type": "int256"
        }
      ],
      "stateMutability": "view",
      "type": "function"
    },
    {
      "inputs": [
        {
          "internalType": "uint256",
          "name": "agentId",
          "type": "uint256"
        }
      ],
      "name": "getAgentValidation",
      "outputs": [
        {
          "internalType": "uint256",
          "name": "validationCount",
          "type": "uint256"
        },
        {
          "internalType": "uint8",
          "name": "averageScore",
          "type": "uint8"
        }
      ],
      "stateMutability": "view",
      "type": "function"
    },
    {
      "inputs": [
        {
          "internalType": "uint256",
          "name": "agentId",
          "type": "uint256"
        }
      ],
      "name": "getAgentVoteCounts",
      "outputs": [
        {
          "internalType": "uint256",
          "name": "upVotes",
          "type": "uint256"
        },
        {
          "internalType": "uint256",
          "name": "downVotes",
          "type": "uint256"
        }
      ],
      "stateMutability": "view",
      "type": "function"
    },
    {
      "inputs": [],
      "name": "getAllDomains",
      "outputs": [
        {
          "internalType": "string[]",
          "name": "domains",
          "type": "string[]"
        }
      ],
      "stateMutability": "view",
      "type": "function"
    },
    {
      "inputs": [
        {
          "internalType": "uint256",
          "name": "offset",
          "type": "uint256"
        },
        {
          "internalType": "uint256",
          "name": "limit",
          "type": "uint256"
        }
      ],
      "name": "getDomainsPaginated",
      "outputs": [
        {
          "internalType": "string[]",
          "name": "domains",
          "type": "string[]"
        },
        {
          "internalType": "uint256",
          "name": "total",
          "type": "uint256"
        }
      ],
      "stateMutability": "view",
      "type": "function"
    },
    {
      "inputs": [
        {
          "internalType": "string",
          "name": "agentDomain",
          "type": "string"
        },
        {
          "internalType": "address",
          "name": "agentAddress",
          "type": "address"
        }
      ],
      "name": "newAgent",
      "outputs": [
        {
          "internalType": "uint256",
          "name": "agentId",
          "type": "uint256"
        }
      ],
      "stateMutability": "payable",
      "type": "function"
    },
    {
      "inputs": [],
      "name": "reputationRegistry",
      "outputs": [
        {
          "internalType": "contract IReputationRegistry",
          "name": "",
          "type": "address"
        }
      ],
      "stateMutability": "view",
      "type": "function"
    },
    {
      "inputs": [
        {
          "internalType": "address",
          "name": "agentAddress",
          "type": "address"
        }
      ],
      "name": "resolveByAddress",
      "outputs": [
        {
          "components": [
            {
              "internalType": "uint256",
              "name": "agentId",
              "type": "uint256"
            },
            {
              "internalType": "string",
              "name": "agentDomain",
              "type": "string"
            },
            {
              "internalType": "address",
              "name": "agentAddress",
              "type": "address"
            }
          ],
          "internalType": "struct IIdentityRegistry.AgentInfo",
          "name": "agentInfo",
          "type": "tuple"
        }
      ],
      "stateMutability": "view",
      "type": "function"
    },
    {
      "inputs": [
        {
          "internalType": "string",
          "name": "agentDomain",
          "type": "string"
        }
      ],
      "name": "resolveByDomain",
      "outputs": [
        {
          "components": [
            {
              "internalType": "uint256",
              "name": "agentId",
              "type": "uint256"
            },
            {
              "internalType": "string",
              "name": "agentDomain",
              "type": "string"
            },
            {
              "internalType": "address",
              "name": "agentAddress",
              "type": "address"
            }
          ],
          "internalType": "struct IIdentityRegistry.AgentInfo",
          "name": "agentInfo",
          "type": "tuple"
        }
      ],
      "stateMutability": "view",
      "type": "function"
    },
    {
      "inputs": [
        {
          "internalType": "address",
          "name": "_reputationRegistry",
          "type": "address"
        }
      ],
      "name": "setReputationRegistry",
      "outputs": [],
      "stateMutability": "nonpayable",
      "type": "function"
    },
    {
      "inputs": [
        {
          "internalType": "address",
          "name": "_validationRegistry",
          "type": "address"
        }
      ],
      "name": "setValidationRegistry",
      "outputs": [],
      "stateMutability": "nonpayable",
      "type": "function"
    },
    {
      "inputs": [
        {
          "internalType": "uint256",
          "name": "agentId",
          "type": "uint256"
        },
        {
          "internalType": "string",
          "name": "newAgentDomain",
          "type": "string"
        },
        {
          "internalType": "address",
          "name": "newAgentAddress",
          "type": "address"
        }
      ],
      "name": "updateAgent",
      "outputs": [
        {
          "internalType": "bool",
          "name": "success",
          "type": "bool"
        }
      ],
      "stateMutability": "nonpayable",
      "type": "function"
    },
    {
      "inputs": [],
      "name": "validationRegistry",
      "outputs": [
        {
          "internalType": "contract IValidationRegistry",
          "name": "",
          "type": "address"
        }
      ],
      "stateMutability": "view",
      "type": "function"
    }
  ],
  "bytecode": "0x60806040523480156200001157600080fd5b5060405162001b8b38038062001b8b8339810160408190526200003491620000b6565b60016000556001600160a01b038216156200006557600580546001600160a01b0319166001600160a01b0384161790555b6001600160a01b038116156200009157600680546001600160a01b0319166001600160a01b0383161790555b5050620000ee565b80516001600160a01b0381168114620000b157600080fd5b919050565b60008060408385031215620000ca57600080fd5b620000d58362000099565b9150620000e56020840162000099565b90509250929050565b611a8d80620000fe6000396000f3fe6080604052600436106101095760003560e01c8063575183091161009557806391cab63e1161006457806391cab63e14610364578063c8db44e314610379578063cb43091f14610399578063de99f157146103b9578063e777ce72146103e857600080fd5b806357518309146102d05780635a018e6a1461030757806364b4f7511461032957806378ddad121461034457600080fd5b80633f0ce714116100dc5780633f0ce714146101c65780633f252e00146102055780634750d0fa146102425780634c6b993a146102635780634ee4eca81461029b57600080fd5b80630c6381071461010e5780631154c3fe146101445780632de5aaf7146101765780633bfbbad714610196575b600080fd5b34801561011a57600080fd5b5061012e610129366004611306565b610416565b60405161013b91906113aa565b60405180910390f35b34801561015057600080fd5b5061016461015f3660046113bd565b61054c565b60405161013b969594939291906113d6565b34801561018257600080fd5b5061012e6101913660046113bd565b6107f2565b3480156101a257600080fd5b506101b66101b1366004611457565b610911565b604051901515815260200161013b565b3480156101d257600080fd5b506102036101e1366004611306565b600580546001600160a01b0319166001600160a01b0392909216919091179055565b005b34801561021157600080fd5b50610203610220366004611306565b600680546001600160a01b0319166001600160a01b0392909216919091179055565b6102556102503660046114b5565b610b03565b60405190815260200161013b565b34801561026f57600080fd5b50600654610283906001600160a01b031681565b6040516001600160a01b03909116815260200161013b565b3480156102a757600080fd5b506102bb6102b63660046113bd565b610d63565b6040805192835260208301919091520161013b565b3480156102dc57600080fd5b506102f06102eb3660046113bd565b610df8565b6040805192835260ff90911660208301520161013b565b34801561031357600080fd5b5061031c610e84565b60405161013b919061155e565b34801561033557600080fd5b506102556611c37937e0800081565b34801561035057600080fd5b5061012e61035f366004611571565b610f5d565b34801561037057600080fd5b506102556110a0565b34801561038557600080fd5b50600554610283906001600160a01b031681565b3480156103a557600080fd5b506102556103b43660046113bd565b6110b6565b3480156103c557600080fd5b506101b66103d43660046113bd565b600090815260016020526040902054151590565b3480156103f457600080fd5b506104086104033660046115b3565b611144565b60405161013b9291906115d5565b6104436040518060600160405280600081526020016060815260200160006001600160a01b031681525090565b6001600160a01b0382166000908152600360205260408120549081900361047d5760405163e93ba22360e01b815260040160405180910390fd5b600081815260016020818152604092839020835160608101909452805484529182018054918401916104ae906115f7565b80601f01602080910402602001604051908101604052809291908181526020018280546104da906115f7565b80156105275780601f106104fc57610100808354040283529160200191610527565b820191906000526020600020905b81548152906001019060200180831161050a57829003601f168201915b5050509183525050600291909101546001600160a01b03166020909101529392505050565b6105796040518060600160405280600081526020016060815260200160006001600160a01b031681525090565b600080600080600060016000888152602001908152602001600020604051806060016040529081600082015481526020016001820180546105b9906115f7565b80601f01602080910402602001604051908101604052809291908181526020018280546105e5906115f7565b80156106325780601f1061060757610100808354040283529160200191610632565b820191906000526020600020905b81548152906001019060200180831161061557829003601f168201915b5050509183525050600291909101546001600160a01b031660209091015280519096506000036106755760405163e93ba22360e01b815260040160405180910390fd5b6005546001600160a01b031615610766576005546040516389370d8b60e01b8152600481018990526001600160a01b03909116906389370d8b90602401602060405180830381865afa1580156106cf573d6000803e3d6000fd5b505050506040513d601f19601f820116820180604052508101906106f39190611631565b60055460405163228907d360e21b8152600481018a90529196506001600160a01b031690638a241f4c906024016040805180830381865afa15801561073c573d6000803e3d6000fd5b505050506040513d601f19601f82011682018060405250810190610760919061164a565b90945092505b6006546001600160a01b0316156107e9576006546040516320e4ab9760e21b8152600481018990526001600160a01b0390911690638392ae5c906024016040805180830381865afa1580156107bf573d6000803e3d6000fd5b505050506040513d601f19601f820116820180604052508101906107e3919061166e565b90925090505b91939550919395565b61081f6040518060600160405280600081526020016060815260200160006001600160a01b031681525090565b60008281526001602081815260409283902083516060810190945280548452918201805491840191610850906115f7565b80601f016020809104026020016040519081016040528092919081815260200182805461087c906115f7565b80156108c95780601f1061089e576101008083540402835291602001916108c9565b820191906000526020600020905b8154815290600101906020018083116108ac57829003601f168201915b5050509183525050600291909101546001600160a01b0316602090910152805190915060000361090c5760405163e93ba22360e01b815260040160405180910390fd5b919050565b6000848152600160205260408120805482036109405760405163e93ba22360e01b815260040160405180910390fd5b60028101546001600160a01b0316331461096d57604051634f1f214760e01b815260040160405180910390fd5b83158015906001600160a01b0385161515906109c457600287876040516109959291906116a4565b9081526020016040518091039020546000146109c457604051637b857a6b60e01b815260040160405180910390fd5b8015610a01576001600160a01b03851660009081526003602052604090205415610a01576040516316a163b960e11b815260040160405180910390fd5b8115610a6157600283600101604051610a1a91906116b4565b9081526040519081900360200190206000905560018301610a3c87898361178f565b508760028888604051610a509291906116a4565b908152604051908190036020019020555b8015610aa7576002830180546001600160a01b0390811660009081526003602052604080822082905583546001600160a01b031916928916928317909355908152208890555b600283015460405189917f1b37db56c92268433e33fda6783791cb9e5f8ffababd3952ab40716443f1bf8991610aed9160018801916001600160a01b0390911690611850565b60405180910390a2506001979650505050505050565b6000828103610b25576040516375893cc160e11b815260040160405180910390fd5b6001600160a01b038216610b4c5760405163e6c4247b60e01b815260040160405180910390fd5b60028484604051610b5e9291906116a4565b908152602001604051809103902054600014610b8d57604051637b857a6b60e01b815260040160405180910390fd5b6001600160a01b03821660009081526003602052604090205415610bc4576040516316a163b960e11b815260040160405180910390fd5b6611c37937e08000341015610beb5760405162976f7560e21b815260040160405180910390fd5b600080549080610bfa83611900565b919050559050604051806060016040528082815260200185858080601f01602080910402602001604051908101604052809392919081815260200183838082843760009201829052509385525050506001600160a01b03851660209283015283815260018083526040909120835181559183015190820190610c7c9082611919565b50604091820151600291820180546001600160a01b0319166001600160a01b039092169190911790559051829190610cb790879087906116a4565b9081526040805160209281900383019020929092556001600160a01b038416600090815260039091529081208290556004805460018101825591527f8a35acfbc15ff81a39ae7d344fd709f28e8600b4aa8c65c6b64bfe7fe36bd19b01610d1f84868361178f565b50807faef1fcdf962a03943b677ae3b92ef1b34c972aeef794ed6e9ba5f599b461883b858585604051610d54939291906119d9565b60405180910390a29392505050565b60055460009081906001600160a01b0316610d8357506000928392509050565b60055460405163228907d360e21b8152600481018590526001600160a01b0390911690638a241f4c906024016040805180830381865afa158015610dcb573d6000803e3d6000fd5b505050506040513d601f19601f82011682018060405250810190610def919061164a565b91509150915091565b60065460009081906001600160a01b0316610e1857506000928392509050565b6006546040516320e4ab9760e21b8152600481018590526001600160a01b0390911690638392ae5c906024016040805180830381865afa158015610e60573d6000803e3d6000fd5b505050506040513d601f19601f82011682018060405250810190610def919061166e565b60606004805480602002602001604051908101604052809291908181526020016000905b82821015610f54578382906000526020600020018054610ec7906115f7565b80601f0160208091040260200160405190810160405280929190818152602001828054610ef3906115f7565b8015610f405780601f10610f1557610100808354040283529160200191610f40565b820191906000526020600020905b815481529060010190602001808311610f2357829003601f168201915b505050505081526020019060010190610ea8565b50505050905090565b610f8a6040518060600160405280600081526020016060815260200160006001600160a01b031681525090565b600060028484604051610f9e9291906116a4565b908152602001604051809103902054905080600003610fd05760405163e93ba22360e01b815260040160405180910390fd5b60008181526001602081815260409283902083516060810190945280548452918201805491840191611001906115f7565b80601f016020809104026020016040519081016040528092919081815260200182805461102d906115f7565b801561107a5780601f1061104f5761010080835404028352916020019161107a565b820191906000526020600020905b81548152906001019060200180831161105d57829003601f168201915b5050509183525050600291909101546001600160a01b0316602090910152949350505050565b600060016000546110b19190611a1b565b905090565b6005546000906001600160a01b03166110d157506000919050565b6005546040516389370d8b60e01b8152600481018490526001600160a01b03909116906389370d8b90602401602060405180830381865afa15801561111a573d6000803e3d6000fd5b505050506040513d601f19601f8201168201806040525081019061113e9190611631565b92915050565b60045460609080841061118457604080516000808252602082019092529061117c565b60608152602001906001900390816111675790505b5091506112e8565b60006111908486611a2e565b90508181111561119d5750805b60006111a98683611a1b565b90508067ffffffffffffffff8111156111c4576111c461172a565b6040519080825280602002602001820160405280156111f757816020015b60608152602001906001900390816111e25790505b50935060005b818110156112e45760046112118289611a2e565b8154811061122157611221611a41565b906000526020600020018054611236906115f7565b80601f0160208091040260200160405190810160405280929190818152602001828054611262906115f7565b80156112af5780601f10611284576101008083540402835291602001916112af565b820191906000526020600020905b81548152906001019060200180831161129257829003601f168201915b50505050508582815181106112c6576112c6611a41565b602002602001018190525080806112dc90611900565b9150506111fd565b5050505b9250929050565b80356001600160a01b038116811461090c57600080fd5b60006020828403121561131857600080fd5b611321826112ef565b9392505050565b6000815180845260005b8181101561134e57602081850181015186830182015201611332565b506000602082860101526020601f19601f83011685010191505092915050565b80518252600060208201516060602085015261138d6060850182611328565b6040938401516001600160a01b0316949093019390935250919050565b602081526000611321602083018461136e565b6000602082840312156113cf57600080fd5b5035919050565b60c0815260006113e960c083018961136e565b60208301979097525060408101949094526060840192909252608083015260ff1660a090910152919050565b60008083601f84011261142757600080fd5b50813567ffffffffffffffff81111561143f57600080fd5b6020830191508360208285010111156112e857600080fd5b6000806000806060858703121561146d57600080fd5b84359350602085013567ffffffffffffffff81111561148b57600080fd5b61149787828801611415565b90945092506114aa9050604086016112ef565b905092959194509250565b6000806000604084860312156114ca57600080fd5b833567ffffffffffffffff8111156114e157600080fd5b6114ed86828701611415565b90945092506115009050602085016112ef565b90509250925092565b600081518084526020808501808196508360051b8101915082860160005b8581101561155157828403895261153f848351611328565b98850198935090840190600101611527565b5091979650505050505050565b6020815260006113216020830184611509565b6000806020838503121561158457600080fd5b823567ffffffffffffffff81111561159b57600080fd5b6115a785828601611415565b90969095509350505050565b600080604083850312156115c657600080fd5b50508035926020909101359150565b6040815260006115e86040830185611509565b90508260208301529392505050565b600181811c9082168061160b57607f821691505b60208210810361162b57634e487b7160e01b600052602260045260246000fd5b50919050565b60006020828403121561164357600080fd5b5051919050565b6000806040838503121561165d57600080fd5b505080516020909101519092909150565b6000806040838503121561168157600080fd5b82519150602083015160ff8116811461169957600080fd5b809150509250929050565b8183823760009101908152919050565b60008083546116c2816115f7565b600182811680156116da57600181146116ef5761171e565b60ff198416875282151583028701945061171e565b8760005260208060002060005b858110156117155781548a8201529084019082016116fc565b50505082870194505b50929695505050505050565b634e487b7160e01b600052604160045260246000fd5b601f82111561178a57600081815260208120601f850160051c810160208610156117675750805b601f850160051c820191505b8181101561178657828155600101611773565b5050505b505050565b67ffffffffffffffff8311156117a7576117a761172a565b6117bb836117b583546115f7565b83611740565b6000601f8411600181146117ef57600085156117d75750838201355b600019600387901b1c1916600186901b178355611849565b600083815260209020601f19861690835b828110156118205786850135825560209485019460019092019101611800565b508682101561183d5760001960f88860031b161c19848701351681555b505060018560011b0183555b5050505050565b604081526000808454611862816115f7565b8060408601526060600180841660008114611884576001811461189e576118cf565b60ff1985168884015283151560051b8801830195506118cf565b8960005260208060002060005b868110156118c65781548b82018701529084019082016118ab565b8a018501975050505b505050506001600160a01b0385166020850152509050611321565b634e487b7160e01b600052601160045260246000fd5b600060018201611912576119126118ea565b5060010190565b815167ffffffffffffffff8111156119335761193361172a565b6119478161194184546115f7565b84611740565b602080601f83116001811461197c57600084156119645750858301515b600019600386901b1c1916600185901b178555611786565b600085815260208120601f198616915b828110156119ab5788860151825594840194600190910190840161198c565b50858210156119c95787850151600019600388901b60f8161c191681555b5050505050600190811b01905550565b604081528260408201528284606083013760006060848301015260006060601f19601f86011683010190506001600160a01b0383166020830152949350505050565b8181038181111561113e5761113e6118ea565b8082018082111561113e5761113e6118ea565b634e487b7160e01b600052603260045260246000fdfea2646970667358221220ed3dde8f05c7df1daa5e368ef663ba8d7cb74f4194c93d281aeafa9bad1fe34d64736f6c63430008130033",
  "linkReferences": {},
  "deployedLinkReferences": {}
}