{
  "_format": "hh-sol-artifact-1",
  "contractName": "ValidationRegistry",
  "sourceName": "contracts/ValidationRegistry.sol",
  "abi": [
    {
      "inputs": [
        {
          "internalType": "address",
          "name": "_identityRegistry",
          "type": "address"
        }
      ],
      "stateMutability": "nonpayable",
      "type": "constructor"
    },
    {
      "inputs": [],
      "name": "AgentNotFound",
      "type": "error"
    },
    {
      "inputs": [],
      "name": "InvalidDataHash",
      "type": "error"
    },
    {
      "inputs": [],
      "name": "InvalidResponse",
      "type": "error"
    },
    {
      "inputs": [],
      "name": "RequestExpired",
      "type": "error"
    },
    {
      "inputs": [],
      "name": "UnauthorizedValidator",
      "type": "error"
    },
    {
      "inputs": [],
      "name": "ValidationAlreadyResponded",
      "type": "error"
    },
    {
      "inputs": [],
      "name": "ValidationRequestNotFound",
      "type": "error"
    },
    {
      "anonymous": false,
      "inputs": [
        {
          "indexed": true,
          "internalType": "uint256",
          "name": "agentValidatorId",
          "type": "uint256"
        },
        {
          "indexed": true,
          "internalType": "uint256",
          "name": "agentServerId",
          "type": "uint256"
        },
        {
          "indexed": true,
          "internalType": "bytes32",
          "name": "dataHash",
          "type": "bytes32"
        }
      ],
      "name": "ValidationRequestEvent",
      "type": "event"
    },
    {
      "anonymous": false,
      "inputs": [
        {
          "indexed": true,
          "internalType": "uint256",
          "name": "agentValidatorId",
          "type": "uint256"
        },
        {
          "indexed": true,
          "internalType": "uint256",
          "name": "agentServerId",
          "type": "uint256"
        },
        {
          "indexed": true,
          "internalType": "bytes32",
          "name": "dataHash",
          "type": "bytes32"
        },
        {
          "indexed": false,
          "internalType": "uint8",
          "name": "response",
          "type": "uint8"
        }
      ],
      "name": "ValidationResponseEvent",
      "type": "event"
    },
    {
      "inputs": [],
      "name": "EXPIRATION_SLOTS",
      "outputs": [
        {
          "internalType": "uint256",
          "name": "",
          "type": "uint256"
        }
      ],
      "stateMutability": "view",
      "type": "function"
    },
    {
      "inputs": [],
      "name": "getExpirationSlots",
      "outputs": [
        {
          "internalType": "uint256",
          "name": "slots",
          "type": "uint256"
        }
      ],
      "stateMutability": "pure",
      "type": "function"
    },
    {
      "inputs": [
        {
          "internalType": "bytes32",
          "name": "dataHash",
          "type": "bytes32"
        }
      ],
      "name": "getValidationRequest",
      "outputs": [
        {
          "components": [
            {
              "internalType": "uint256",
              "name": "agentValidatorId",
              "type": "uint256"
            },
            {
              "internalType": "uint256",
              "name": "agentServerId",
              "type": "uint256"
            },
            {
              "internalType": "bytes32",
              "name": "dataHash",
              "type": "bytes32"
            },
            {
              "internalType": "uint256",
              "name": "timestamp",
              "type": "uint256"
            },
            {
              "internalType": "bool",
              "name": "responded",
              "type": "bool"
            }
          ],
          "internalType": "struct IValidationRegistry.Request",
          "name": "request",
          "type": "tuple"
        }
      ],
      "stateMutability": "view",
      "type": "function"
    },
    {
      "inputs": [
        {
          "internalType": "bytes32",
          "name": "dataHash",
          "type": "bytes32"
        }
      ],
      "name": "getValidationResponse",
      "outputs": [
        {
          "internalType": "bool",
          "name": "hasResponse",
          "type": "bool"
        },
        {
          "internalType": "uint8",
          "name": "response",
          "type": "uint8"
        }
      ],
      "stateMutability": "view",
      "type": "function"
    },
    {
      "inputs": [],
      "name": "identityRegistry",
      "outputs": [
        {
          "internalType": "contract IIdentityRegistry",
          "name": "",
          "type": "address"
        }
      ],
      "stateMutability": "view",
      "type": "function"
    },
    {
      "inputs": [
        {
          "internalType": "bytes32",
          "name": "dataHash",
          "type": "bytes32"
        }
      ],
      "name": "isValidationPending",
      "outputs": [
        {
          "internalType": "bool",
          "name": "exists",
          "type": "bool"
        },
        {
          "internalType": "bool",
          "name": "pending",
          "type": "bool"
        }
      ],
      "stateMutability": "view",
      "type": "function"
    },
    {
      "inputs": [
        {
          "internalType": "uint256",
          "name": "agentValidatorId",
          "type": "uint256"
        },
        {
          "internalType": "uint256",
          "name": "agentServerId",
          "type": "uint256"
        },
        {
          "internalType": "bytes32",
          "name": "dataHash",
          "type": "bytes32"
        }
      ],
      "name": "validationRequest",
      "outputs": [],
      "stateMutability": "nonpayable",
      "type": "function"
    },
    {
      "inputs": [
        {
          "internalType": "bytes32",
          "name": "dataHash",
          "type": "bytes32"
        },
        {
          "internalType": "uint8",
          "name": "response",
          "type": "uint8"
        }
      ],
      "name": "validationResponse",
      "outputs": [],
      "stateMutability": "nonpayable",
      "type": "function"
    }
  ],
  "bytecode": "0x60a060405234801561001057600080fd5b50604051610a5e380380610a5e83398101604081905261002f91610040565b6001600160a01b0316608052610070565b60006020828403121561005257600080fd5b81516001600160a01b038116811461006957600080fd5b9392505050565b6080516109bf61009f6000396000818160920152818161028e0152818161044a01526104f001526109bf6000f3fe608060405234801561001057600080fd5b50600436106100885760003560e01c80636cc199691161005b5780636cc19969146101275780639748c8cb1461012f578063c941b16114610142578063d097037a1461016e57600080fd5b8063134e18f41461008d5780634146624a146100d1578063625123da146100e65780636677174c14610110575b600080fd5b6100b47f000000000000000000000000000000000000000000000000000000000000000081565b6040516001600160a01b0390911681526020015b60405180910390f35b6100e46100df366004610747565b6101c5565b005b6100f96100f436600461077d565b6103c5565b6040805192151583529015156020830152016100c8565b6101196103e881565b6040519081526020016100c8565b6103e8610119565b6100e461013d366004610796565b610416565b61015561015036600461077d565b61067b565b60408051921515835260ff9091166020830152016100c8565b61018161017c36600461077d565b6106ad565b6040516100c89190600060a0820190508251825260208301516020830152604083015160408301526060830151606083015260808301511515608083015292915050565b60648160ff1611156101ea5760405163c715138d60e01b815260040160405180910390fd5b6000828152602081905260409020600281015461021a576040516337abe69b60e11b815260040160405180910390fd5b6103e8816003015461022c91906107c2565b43111561024c57604051637f780e6960e11b815260040160405180910390fd5b600481015460ff16156102725760405163d22b40c560e01b815260040160405180910390fd5b8054604051632de5aaf760e01b81526000916001600160a01b037f00000000000000000000000000000000000000000000000000000000000000001691632de5aaf7916102c59160040190815260200190565b600060405180830381865afa1580156102e2573d6000803e3d6000fd5b505050506040513d6000823e601f3d908101601f1916820160405261030a9190810190610870565b905080604001516001600160a01b0316336001600160a01b0316146103425760405163423057c560e11b815260040160405180910390fd5b600482018054600160ff1991821681179092556000868152602083815260408083208054851660ff8a16908117909155600283529281902080549094168517909355928501548554925191825287939092917f2f1d7a4e773d3a02a2db8d4ba16df1476ec97974bbc93c41427689f236664f1b910160405180910390a450505050565b600081815260208190526040812060028101541580159291906104105760006103e882600301546103f691906107c2565b4311905080158161040c5750600482015460ff16155b9250505b50915091565b8061043457604051633b8f85f760e21b815260040160405180910390fd5b60405163de99f15760e01b8152600481018490527f00000000000000000000000000000000000000000000000000000000000000006001600160a01b03169063de99f15790602401602060405180830381865afa158015610499573d6000803e3d6000fd5b505050506040513d601f19601f820116820180604052508101906104bd9190610960565b6104da5760405163e93ba22360e01b815260040160405180910390fd5b60405163de99f15760e01b8152600481018390527f00000000000000000000000000000000000000000000000000000000000000006001600160a01b03169063de99f15790602401602060405180830381865afa15801561053f573d6000803e3d6000fd5b505050506040513d601f19601f820116820180604052508101906105639190610960565b6105805760405163e93ba22360e01b815260040160405180910390fd5b60008181526020819052604090206002810154156105e5576103e881600301546105aa91906107c2565b43116105e5578183857f3fcaa5f72d6fb1deb76744afac4fbc92c823e52ffcf39ad2cdd9da66a80b519660405160405180910390a450505050565b6040805160a081018252858152602080820186815282840186815243606085019081526000608086018181528982529481905286812095518655925160018601559051600285015551600384015590516004909201805460ff19169215159290921790915590518391859187917f3fcaa5f72d6fb1deb76744afac4fbc92c823e52ffcf39ad2cdd9da66a80b519691a450505050565b60008181526002602052604081205460ff169081156106a8575060008281526001602052604090205460ff165b915091565b6040805160a0810182526000808252602082018190529181018290526060810182905260808101919091525060008181526020818152604091829020825160a081018452815481526001820154928101929092526002810154928201839052600381015460608301526004015460ff161515608082015290610742576040516337abe69b60e11b815260040160405180910390fd5b919050565b6000806040838503121561075a57600080fd5b82359150602083013560ff8116811461077257600080fd5b809150509250929050565b60006020828403121561078f57600080fd5b5035919050565b6000806000606084860312156107ab57600080fd5b505081359360208301359350604090920135919050565b808201808211156107e357634e487b7160e01b600052601160045260246000fd5b92915050565b634e487b7160e01b600052604160045260246000fd5b6040516060810167ffffffffffffffff81118282101715610822576108226107e9565b60405290565b604051601f8201601f1916810167ffffffffffffffff81118282101715610851576108516107e9565b604052919050565b80516001600160a01b038116811461074257600080fd5b6000602080838503121561088357600080fd5b825167ffffffffffffffff8082111561089b57600080fd5b90840190606082870312156108af57600080fd5b6108b76107ff565b8251815283830151828111156108cc57600080fd5b8301601f810188136108dd57600080fd5b8051838111156108ef576108ef6107e9565b610901601f8201601f19168701610828565b9350808452888682840101111561091757600080fd5b60005b8181101561093557828101870151858201880152860161091a565b5060008682860101525050818482015261095160408401610859565b60408201529695505050505050565b60006020828403121561097257600080fd5b8151801515811461098257600080fd5b939250505056fea26469706673582212207ba00d9574d1cc1ebb8b1a4328428663b9e327eeb5c8b120510f02445286f46264736f6c63430008130033",
  "linkReferences": {},
  "deployedLinkReferences": {}
}