{
  "_format": "hh-sol-artifact-1",
  "contractName": "ValidationRegistry",
  "sourceName": "contracts/ValidationRegistry.sol",
  "abi": [
    {
      "inputs": [
        {
          "internalType": "address",
          "name": "_identityRegistry",
          "type": "address"
        }
      ],
      "stateMutability": "nonpayable",
      "type": "constructor"
    },
    {
      "inputs": [],
      "name": "AgentNotFound",
      "type": "error"
    },
    {
      "inputs": [],
      "name": "AlreadyValidated",
      "type": "error"
    },
    {
      "inputs": [],
      "name": "InvalidScore",
      "type": "error"
    },
    {
      "anonymous": false,
      "inputs": [
        {
          "indexed": true,
          "internalType": "uint256",
          "name": "agentId",
          "type": "uint256"
        },
        {
          "indexed": true,
          "internalType": "address",
          "name": "validator",
          "type": "address"
        },
        {
          "indexed": false,
          "internalType": "uint8",
          "name": "score",
          "type": "uint8"
        },
        {
          "indexed": false,
          "internalType": "string",
          "name": "dataUri",
          "type": "string"
        }
      ],
      "name": "ValidationSubmitted",
      "type": "event"
    },
    {
      "inputs": [],
      "name": "getIdentityRegistry",
      "outputs": [
        {
          "internalType": "address",
          "name": "",
          "type": "address"
        }
      ],
      "stateMutability": "view",
      "type": "function"
    },
    {
      "inputs": [
        {
          "internalType": "uint256",
          "name": "agentId",
          "type": "uint256"
        }
      ],
      "name": "getValidation",
      "outputs": [
        {
          "internalType": "uint256",
          "name": "validationCount",
          "type": "uint256"
        },
        {
          "internalType": "uint8",
          "name": "averageScore",
          "type": "uint8"
        }
      ],
      "stateMutability": "view",
      "type": "function"
    },
    {
      "inputs": [
        {
          "internalType": "uint256",
          "name": "agentId",
          "type": "uint256"
        },
        {
          "internalType": "address",
          "name": "validator",
          "type": "address"
        }
      ],
      "name": "hasValidated",
      "outputs": [
        {
          "internalType": "bool",
          "name": "",
          "type": "bool"
        }
      ],
      "stateMutability": "view",
      "type": "function"
    },
    {
      "inputs": [],
      "name": "identityRegistry",
      "outputs": [
        {
          "internalType": "contract IIdentityRegistry",
          "name": "",
          "type": "address"
        }
      ],
      "stateMutability": "view",
      "type": "function"
    },
    {
      "inputs": [
        {
          "internalType": "uint256",
          "name": "agentId",
          "type": "uint256"
        },
        {
          "internalType": "uint8",
          "name": "score",
          "type": "uint8"
        },
        {
          "internalType": "string",
          "name": "dataUri",
          "type": "string"
        }
      ],
      "name": "submitValidation",
      "outputs": [],
      "stateMutability": "nonpayable",
      "type": "function"
    }
  ],
  "bytecode": "0x60a060405234801561001057600080fd5b506040516105bb3803806105bb83398101604081905261002f91610040565b6001600160a01b0316608052610070565b60006020828403121561005257600080fd5b81516001600160a01b038116811461006957600080fd5b9392505050565b6080516105236100986000396000818160890152818161010401526101a301526105236000f3fe608060405234801561001057600080fd5b50600436106100575760003560e01c80630d9dde671461005c578063134e18f4146100845780638392ae5c146100c3578063980e9f96146100ed578063bc4d861b14610102575b600080fd5b61006f61006a366004610343565b610128565b60405190151581526020015b60405180910390f35b6100ab7f000000000000000000000000000000000000000000000000000000000000000081565b6040516001600160a01b03909116815260200161007b565b6100d66100d136600461037f565b610155565b6040805192835260ff90911660208301520161007b565b6101006100fb366004610398565b61018d565b005b7f00000000000000000000000000000000000000000000000000000000000000006100ab565b60008281526002602090815260408083206001600160a01b038516845290915290205460ff165b92915050565b6000818152600160205260408120549081156101885760008381526020819052604090205461018590839061043d565b90505b915091565b60405163de99f15760e01b8152600481018590527f00000000000000000000000000000000000000000000000000000000000000006001600160a01b03169063de99f15790602401602060405180830381865afa1580156101f2573d6000803e3d6000fd5b505050506040513d601f19601f82011682018060405250810190610216919061045f565b6102335760405163e93ba22360e01b815260040160405180910390fd5b60648360ff16111561025857604051631556136560e01b815260040160405180910390fd5b600084815260026020908152604080832033845290915290205460ff16156102935760405163159ab3dd60e11b815260040160405180910390fd5b60008481526002602090815260408083203384528252808320805460ff19166001179055868352908290528120805460ff861692906102d3908490610488565b909155505060008481526001602052604081208054916102f28361049b565b9190505550336001600160a01b0316847f3012626ea7bda2f841c9d14c1b9c8a6da055936d7492642d7a882a3c7d400de8858585604051610335939291906104b4565b60405180910390a350505050565b6000806040838503121561035657600080fd5b8235915060208301356001600160a01b038116811461037457600080fd5b809150509250929050565b60006020828403121561039157600080fd5b5035919050565b600080600080606085870312156103ae57600080fd5b84359350602085013560ff811681146103c657600080fd5b9250604085013567ffffffffffffffff808211156103e357600080fd5b818701915087601f8301126103f757600080fd5b81358181111561040657600080fd5b88602082850101111561041857600080fd5b95989497505060200194505050565b634e487b7160e01b600052601160045260246000fd5b60008261045a57634e487b7160e01b600052601260045260246000fd5b500490565b60006020828403121561047157600080fd5b8151801515811461048157600080fd5b9392505050565b8082018082111561014f5761014f610427565b6000600182016104ad576104ad610427565b5060010190565b60ff8416815260406020820152816040820152818360608301376000818301606090810191909152601f909201601f191601019291505056fea2646970667358221220d173ce3ce3ecf6e0b60908acb46e01819b1a1fb1e42d3cb48468795b5ce19ff864736f6c63430008130033",
  "linkReferences": {},
  "deployedLinkReferences": {}
}