{
  "_format": "hh-sol-artifact-1",
  "contractName": "TaskEscrow",
  "sourceName": "contracts/TaskEscrow.sol",
  "abi": [
    {
      "inputs": [
        {
          "internalType": "address payable",
          "name": "treasury",
          "type": "address"
        }
      ],
      "stateMutability": "nonpayable",
      "type": "constructor"
    },
    {
      "inputs": [],
      "name": "AlreadyApproved",
      "type": "error"
    },
    {
      "inputs": [
        {
          "internalType": "address",
          "name": "verifier",
          "type": "address"
        }
      ],
      "name": "DuplicateVerifier",
      "type": "error"
    },
    {
      "inputs": [],
      "name": "EscrowAlreadyExists",
      "type": "error"
    },
    {
      "inputs": [],
      "name": "InvalidAmount",
      "type": "error"
    },
    {
      "inputs": [],
      "name": "InvalidEscrowState",
      "type": "error"
    },
    {
      "inputs": [],
      "name": "InvalidFeeConfiguration",
      "type": "error"
    },
    {
      "inputs": [],
      "name": "InvalidVerifierConfiguration",
      "type": "error"
    },
    {
      "inputs": [],
      "name": "ReentrancyGuardActive",
      "type": "error"
    },
    {
      "inputs": [
        {
          "internalType": "address",
          "name": "recipient",
          "type": "address"
        }
      ],
      "name": "TransferFailed",
      "type": "error"
    },
    {
      "inputs": [],
      "name": "Unauthorized",
      "type": "error"
    },
    {
      "inputs": [],
      "name": "ZeroAddress",
      "type": "error"
    },
    {
      "anonymous": false,
      "inputs": [
        {
          "indexed": true,
          "internalType": "bytes32",
          "name": "taskId",
          "type": "bytes32"
        },
        {
          "indexed": true,
          "internalType": "address",
          "name": "client",
          "type": "address"
        },
        {
          "indexed": true,
          "internalType": "address",
          "name": "worker",
          "type": "address"
        },
        {
          "indexed": false,
          "internalType": "uint256",
          "name": "amount",
          "type": "uint256"
        },
        {
          "indexed": false,
          "internalType": "uint16",
          "name": "marketplaceFeeBps",
          "type": "uint16"
        },
        {
          "indexed": false,
          "internalType": "uint16",
          "name": "verifierFeeBps",
          "type": "uint16"
        },
        {
          "indexed": false,
          "internalType": "uint8",
          "name": "approvalsRequired",
          "type": "uint8"
        },
        {
          "indexed": false,
          "internalType": "uint8",
          "name": "verifierCount",
          "type": "uint8"
        }
      ],
      "name": "EscrowCreated",
      "type": "event"
    },
    {
      "anonymous": false,
      "inputs": [
        {
          "indexed": true,
          "internalType": "bytes32",
          "name": "taskId",
          "type": "bytes32"
        },
        {
          "indexed": true,
          "internalType": "address",
          "name": "client",
          "type": "address"
        },
        {
          "indexed": false,
          "internalType": "uint256",
          "name": "refundedAmount",
          "type": "uint256"
        },
        {
          "indexed": false,
          "internalType": "uint256",
          "name": "verifierFee",
          "type": "uint256"
        },
        {
          "indexed": false,
          "internalType": "uint8",
          "name": "approvalsUsed",
          "type": "uint8"
        }
      ],
      "name": "EscrowRefunded",
      "type": "event"
    },
    {
      "anonymous": false,
      "inputs": [
        {
          "indexed": true,
          "internalType": "bytes32",
          "name": "taskId",
          "type": "bytes32"
        },
        {
          "indexed": true,
          "internalType": "address",
          "name": "worker",
          "type": "address"
        },
        {
          "indexed": false,
          "internalType": "uint256",
          "name": "workerAmount",
          "type": "uint256"
        },
        {
          "indexed": false,
          "internalType": "uint256",
          "name": "marketplaceFee",
          "type": "uint256"
        },
        {
          "indexed": false,
          "internalType": "uint256",
          "name": "verifierFee",
          "type": "uint256"
        },
        {
          "indexed": false,
          "internalType": "uint8",
          "name": "approvalsUsed",
          "type": "uint8"
        }
      ],
      "name": "EscrowReleased",
      "type": "event"
    },
    {
      "anonymous": false,
      "inputs": [
        {
          "indexed": true,
          "internalType": "bytes32",
          "name": "taskId",
          "type": "bytes32"
        },
        {
          "indexed": true,
          "internalType": "address",
          "name": "verifier",
          "type": "address"
        },
        {
          "indexed": false,
          "internalType": "uint8",
          "name": "approvals",
          "type": "uint8"
        },
        {
          "indexed": false,
          "internalType": "uint8",
          "name": "approvalsRequired",
          "type": "uint8"
        }
      ],
      "name": "RefundApprovalSubmitted",
      "type": "event"
    },
    {
      "anonymous": false,
      "inputs": [
        {
          "indexed": true,
          "internalType": "bytes32",
          "name": "taskId",
          "type": "bytes32"
        },
        {
          "indexed": true,
          "internalType": "address",
          "name": "verifier",
          "type": "address"
        },
        {
          "indexed": false,
          "internalType": "uint8",
          "name": "approvals",
          "type": "uint8"
        },
        {
          "indexed": false,
          "internalType": "uint8",
          "name": "approvalsRequired",
          "type": "uint8"
        }
      ],
      "name": "ReleaseApprovalSubmitted",
      "type": "event"
    },
    {
      "inputs": [],
      "name": "BPS_DENOMINATOR",
      "outputs": [
        {
          "internalType": "uint256",
          "name": "",
          "type": "uint256"
        }
      ],
      "stateMutability": "view",
      "type": "function"
    },
    {
      "inputs": [
        {
          "internalType": "bytes32",
          "name": "taskId",
          "type": "bytes32"
        }
      ],
      "name": "approveRefund",
      "outputs": [],
      "stateMutability": "nonpayable",
      "type": "function"
    },
    {
      "inputs": [
        {
          "internalType": "bytes32",
          "name": "taskId",
          "type": "bytes32"
        }
      ],
      "name": "approveRelease",
      "outputs": [],
      "stateMutability": "nonpayable",
      "type": "function"
    },
    {
      "inputs": [
        {
          "internalType": "bytes32",
          "name": "taskId",
          "type": "bytes32"
        },
        {
          "internalType": "address",
          "name": "worker",
          "type": "address"
        },
        {
          "internalType": "address[]",
          "name": "verifiers",
          "type": "address[]"
        },
        {
          "internalType": "uint8",
          "name": "approvalsRequired",
          "type": "uint8"
        },
        {
          "internalType": "uint16",
          "name": "marketplaceFeeBps",
          "type": "uint16"
        },
        {
          "internalType": "uint16",
          "name": "verifierFeeBps",
          "type": "uint16"
        }
      ],
      "name": "createEscrow",
      "outputs": [],
      "stateMutability": "payable",
      "type": "function"
    },
    {
      "inputs": [
        {
          "internalType": "bytes32",
          "name": "taskId",
          "type": "bytes32"
        }
      ],
      "name": "getEscrow",
      "outputs": [
        {
          "components": [
            {
              "internalType": "address",
              "name": "client",
              "type": "address"
            },
            {
              "internalType": "address",
              "name": "worker",
              "type": "address"
            },
            {
              "internalType": "uint256",
              "name": "amount",
              "type": "uint256"
            },
            {
              "internalType": "uint16",
              "name": "marketplaceFeeBps",
              "type": "uint16"
            },
            {
              "internalType": "uint16",
              "name": "verifierFeeBps",
              "type": "uint16"
            },
            {
              "internalType": "enum TaskEscrow.Status",
              "name": "status",
              "type": "uint8"
            },
            {
              "internalType": "uint8",
              "name": "approvalsRequired",
              "type": "uint8"
            },
            {
              "internalType": "uint8",
              "name": "releaseApprovalCount",
              "type": "uint8"
            },
            {
              "internalType": "uint8",
              "name": "refundApprovalCount",
              "type": "uint8"
            }
          ],
          "internalType": "struct TaskEscrow.Escrow",
          "name": "",
          "type": "tuple"
        }
      ],
      "stateMutability": "view",
      "type": "function"
    },
    {
      "inputs": [
        {
          "internalType": "bytes32",
          "name": "taskId",
          "type": "bytes32"
        }
      ],
      "name": "getVerifiers",
      "outputs": [
        {
          "internalType": "address[]",
          "name": "",
          "type": "address[]"
        }
      ],
      "stateMutability": "view",
      "type": "function"
    },
    {
      "inputs": [],
      "name": "marketplaceTreasury",
      "outputs": [
        {
          "internalType": "address payable",
          "name": "",
          "type": "address"
        }
      ],
      "stateMutability": "view",
      "type": "function"
    }
  ],
  "bytecode": "0x60a060405234801561001057600080fd5b5060405161148638038061148683398101604081905261002f9161006c565b6001600160a01b0381166100565760405163d92e233d60e01b815260040160405180910390fd5b6001600160a01b0316608052600160005561009c565b60006020828403121561007e57600080fd5b81516001600160a01b038116811461009557600080fd5b9392505050565b6080516113c16100c56000396000818161011201528181610bdb0152610e0401526113c16000f3fe6080604052600436106100705760003560e01c80637ee09b361161004e5780637ee09b36146100ed57806382421b0514610100578063e1a452181461014c578063f023b8111461017057600080fd5b80632f6b29dc1461007557806336f672741461009757806379bf1a37146100b7575b600080fd5b34801561008157600080fd5b50610095610090366004611041565b61019d565b005b3480156100a357600080fd5b506100956100b2366004611041565b610372565b3480156100c357600080fd5b506100d76100d2366004611041565b610547565b6040516100e4919061105a565b60405180910390f35b6100956100fb3660046110e6565b6105b3565b34801561010c57600080fd5b506101347f000000000000000000000000000000000000000000000000000000000000000081565b6040516001600160a01b0390911681526020016100e4565b34801561015857600080fd5b5061016261271081565b6040519081526020016100e4565b34801561017c57600080fd5b5061019061018b366004611041565b61090c565b6040516100e491906111e0565b6000546002036101c057604051631762c6f360e01b815260040160405180910390fd5b6002600090815581815260016020819052604090912090600382810154640100000000900460ff16908111156101f8576101f86111a8565b1461021657604051635448814d60e11b815260040160405180910390fd5b600082815260036020908152604080832033845290915290205460ff1661024f576040516282b42960e81b815260040160405180910390fd5b600082815260056020908152604080832033845290915290205460ff161561028a5760405163080fc0bd60e11b815260040160405180910390fd5b60008281526005602090815260408083203384529091529020805460ff191660019081179091556003820180546007906102cf908490600160381b900460ff1661129f565b82546101009290920a60ff818102199093169183160217909155600383015460408051600160381b83048416815265010000000000909204909216602082015233925084917f3da21e4e6f0cfbfe652639d6343cbff61aa0144241374e18ef7a011166a50866910160405180910390a3600381015460ff6501000000000082048116600160381b9092041610610369576103698282610a2c565b50506001600055565b60005460020361039557604051631762c6f360e01b815260040160405180910390fd5b6002600090815581815260016020819052604090912090600382810154640100000000900460ff16908111156103cd576103cd6111a8565b146103eb57604051635448814d60e11b815260040160405180910390fd5b600082815260036020908152604080832033845290915290205460ff16610424576040516282b42960e81b815260040160405180910390fd5b600082815260046020908152604080832033845290915290205460ff161561045f5760405163080fc0bd60e11b815260040160405180910390fd5b60008281526004602090815260408083203384529091529020805460ff191660019081179091556003820180546006906104a79084906601000000000000900460ff1661129f565b82546101009290920a60ff818102199093169183160217909155600383015460408051660100000000000083048416815265010000000000909204909216602082015233925084917f536977f11f71d562b7e708b68861fd788b51d353ea1130d7b21a191dd69e1c96910160405180910390a3600381015460ff650100000000008204811666010000000000009092041610610369576103698282610b23565b6000818152600260209081526040918290208054835181840281018401909452808452606093928301828280156105a757602002820191906000526020600020905b81546001600160a01b03168152600190910190602001808311610589575b50505050509050919050565b6001600160a01b0386166105da5760405163d92e233d60e01b815260040160405180910390fd5b346000036105fb5760405163162908e360e11b815260040160405180910390fd5b600080888152600160205260409020600390810154640100000000900460ff169081111561062b5761062b6111a8565b146106495760405163ed77877960e01b815260040160405180910390fd5b600061065c61ffff8084169085166112be565b90506127108163ffffffff1611156106875760405163369276d760e11b815260040160405180910390fd5b84801580610696575060ff8516155b806106a35750808560ff16115b156106c157604051631b468f0160e11b815260040160405180910390fd5b60ff8111156106e357604051631b468f0160e11b815260040160405180910390fd5b6000898152600160208181526040808420805473ffffffffffffffffffffffffffffffffffffffff199081163317825593810180546001600160a01b038f169516949094179093553460028085019190915560038401805464010000000061ffff8b8116620100000263ffffffff19909316908d16179190911765ffff0000000019166501000000000060ff8e160217179055909152822090915b838110156108995760008a8a8381811061079a5761079a6112e2565b90506020020160208101906107af91906112f8565b90506001600160a01b0381166107d85760405163d92e233d60e01b815260040160405180910390fd5b60008d81526003602090815260408083206001600160a01b038516845290915290205460ff161561082c57604051633a71368960e11b81526001600160a01b03821660048201526024015b60405180910390fd5b60008d81526003602090815260408083206001600160a01b039094168084529382528220805460ff1916600190811790915585549081018655858352912001805473ffffffffffffffffffffffffffffffffffffffff1916909117905561089281611313565b905061077e565b506040805134815261ffff888116602083015287168183015260ff89811660608301528516608082015290516001600160a01b038c169133918e917ffd7face0ceb1713feaff7150876e1287974bf0ac03ad76b113e09e57cd714c09919081900360a00190a45050505050505050505050565b6040805161012081018252600080825260208201819052918101829052606081018290526080810182905260a0810182905260c0810182905260e0810182905261010081019190915260008281526001602081815260409283902083516101208101855281546001600160a01b039081168252938201549093169183019190915260028101549282019290925260038083015461ffff808216606085015262010000820416608084015291929160a084019164010000000090910460ff16908111156109da576109da6111a8565b60038111156109eb576109eb6111a8565b81526003919091015460ff650100000000008204811660208401526601000000000000820481166040840152600160381b9091041660609091015292915050565b6002810154600382015460009061271090610a519062010000900461ffff168461132c565b610a5b9190611343565b90506000610a698284611365565b60038501805464ff0000000019166403000000001790556000600286015590508015610aa4578354610aa4906001600160a01b031682610c8d565b6000610ab286846000610d1d565b855460038701546040805186815260208101859052600160381b90920460ff16908201529192506001600160a01b03169087907f201ffa666f22724d1a1878648fbcdaf923ce78bf2f2267ce5473bc904079a09e9060600160405180910390a3610b1b86610f4e565b505050505050565b6002810154600382015460009061271090610b429061ffff168461132c565b610b4c9190611343565b600384015490915060009061271090610b6f9062010000900461ffff168561132c565b610b799190611343565b9050600081610b888486611365565b610b929190611365565b60038601805464ff0000000019166402000000001790556000600287015590508015610bd0576001850154610bd0906001600160a01b031682610c8d565b8215610c0057610c007f000000000000000000000000000000000000000000000000000000000000000084610c8d565b6000610c0e87846001610d1d565b600187015460038801546040805186815260208101899052908101849052660100000000000090910460ff1660608201529192506001600160a01b03169088907f85f6252ba48e2cac79312ea002438939472ba44a476b0a7ec92c39d68ae4abc69060800160405180910390a3610c8487610f4e565b50505050505050565b80600003610c99575050565b6000826001600160a01b03168260405160006040518083038185875af1925050503d8060008114610ce6576040519150601f19603f3d011682016040523d82523d6000602084013e610ceb565b606091505b5050905080610d18576040516339f1c8d960e01b81526001600160a01b0384166004820152602401610823565b505050565b600082600003610d2f57506000610f47565b60008481526002602052604081208054909190815b81811015610df6576000848281548110610d6057610d606112e2565b60009182526020822001546001600160a01b0316915087610da65760008a81526005602090815260408083206001600160a01b038616845290915290205460ff16610dcd565b60008a81526004602090815260408083206001600160a01b038616845290915290205460ff165b90508015610de357610de0600186611378565b94505b505080610def90611313565b9050610d44565b5081600003610e3457610e297f000000000000000000000000000000000000000000000000000000000000000087610c8d565b859350505050610f47565b6000610e408388611343565b90506000610e4e848361132c565b610e589089611365565b905060005b83811015610f40576000868281548110610e7957610e796112e2565b60009182526020822001546001600160a01b0316915089610ebf5760008c81526005602090815260408083206001600160a01b038616845290915290205460ff16610ee6565b60008c81526004602090815260408083206001600160a01b038616845290915290205460ff165b905080610ef4575050610f30565b848415610f1657610f06600182611378565b9050610f13600186611365565b94505b610f208382610c8d565b610f2a818b611378565b99505050505b610f3981611313565b9050610e5d565b5050505050505b9392505050565b6000818152600260205260408120805490915b81811015610ff9576000838281548110610f7d57610f7d6112e2565b60009182526020808320909101548783526003825260408084206001600160a01b03909216808552918352808420805460ff19908116909155898552600484528185208386528452818520805482169055898552600584528185209285529190925291208054909116905550610ff281611313565b9050610f61565b506000838152600260209081526040822080548382559083529120610d18916110259190810190611028565b50565b5b8082111561103d5760008155600101611029565b5090565b60006020828403121561105357600080fd5b5035919050565b6020808252825182820181905260009190848201906040850190845b8181101561109b5783516001600160a01b031683529284019291840191600101611076565b50909695505050505050565b80356001600160a01b03811681146110be57600080fd5b919050565b803560ff811681146110be57600080fd5b803561ffff811681146110be57600080fd5b600080600080600080600060c0888a03121561110157600080fd5b87359650611111602089016110a7565b9550604088013567ffffffffffffffff8082111561112e57600080fd5b818a0191508a601f83011261114257600080fd5b81358181111561115157600080fd5b8b60208260051b850101111561116657600080fd5b60208301975080965050505061117e606089016110c3565b925061118c608089016110d4565b915061119a60a089016110d4565b905092959891949750929550565b634e487b7160e01b600052602160045260246000fd5b600481106111dc57634e487b7160e01b600052602160045260246000fd5b9052565b6000610120820190506001600160a01b0380845116835280602085015116602084015250604083015160408301526060830151611223606084018261ffff169052565b506080830151611239608084018261ffff169052565b5060a083015161124c60a08401826111be565b5060c083015161126160c084018260ff169052565b5060e083015161127660e084018260ff169052565b506101009283015160ff16919092015290565b634e487b7160e01b600052601160045260246000fd5b60ff81811683821601908111156112b8576112b8611289565b92915050565b63ffffffff8181168382160190808211156112db576112db611289565b5092915050565b634e487b7160e01b600052603260045260246000fd5b60006020828403121561130a57600080fd5b610f47826110a7565b60006001820161132557611325611289565b5060010190565b80820281158282048414176112b8576112b8611289565b60008261136057634e487b7160e01b600052601260045260246000fd5b500490565b818103818111156112b8576112b8611289565b808201808211156112b8576112b861128956fea264697066735822122057ab4b9f48439b3ef9be34dd7b12c62427bc1101ce1ac8bf72a8c1322242ae9f64736f6c63430008130033",
  "linkReferences": {},
  "deployedLinkReferences": {}
}