{
  "_format": "hh-sol-artifact-1",
  "contractName": "ReputationRegistry",
  "sourceName": "contracts/ReputationRegistry.sol",
  "abi": [
    {
      "inputs": [
        {
          "internalType": "address",
          "name": "_identityRegistry",
          "type": "address"
        }
      ],
      "stateMutability": "nonpayable",
      "type": "constructor"
    },
    {
      "inputs": [],
      "name": "AgentNotFound",
      "type": "error"
    },
    {
      "inputs": [],
      "name": "AlreadyVoted",
      "type": "error"
    },
    {
      "anonymous": false,
      "inputs": [
        {
          "indexed": true,
          "internalType": "uint256",
          "name": "agentId",
          "type": "uint256"
        },
        {
          "indexed": true,
          "internalType": "address",
          "name": "voter",
          "type": "address"
        },
        {
          "indexed": false,
          "internalType": "bool",
          "name": "isPositive",
          "type": "bool"
        },
        {
          "indexed": false,
          "internalType": "int256",
          "name": "newScore",
          "type": "int256"
        }
      ],
      "name": "ReputationChanged",
      "type": "event"
    },
    {
      "inputs": [],
      "name": "getIdentityRegistry",
      "outputs": [
        {
          "internalType": "address",
          "name": "",
          "type": "address"
        }
      ],
      "stateMutability": "view",
      "type": "function"
    },
    {
      "inputs": [
        {
          "internalType": "uint256",
          "name": "agentId",
          "type": "uint256"
        }
      ],
      "name": "getReputation",
      "outputs": [
        {
          "internalType": "int256",
          "name": "score",
          "type": "int256"
        }
      ],
      "stateMutability": "view",
      "type": "function"
    },
    {
      "inputs": [
        {
          "internalType": "uint256",
          "name": "agentId",
          "type": "uint256"
        }
      ],
      "name": "getVoteCounts",
      "outputs": [
        {
          "internalType": "uint256",
          "name": "upVotes",
          "type": "uint256"
        },
        {
          "internalType": "uint256",
          "name": "downVotes",
          "type": "uint256"
        }
      ],
      "stateMutability": "view",
      "type": "function"
    },
    {
      "inputs": [
        {
          "internalType": "uint256",
          "name": "agentId",
          "type": "uint256"
        },
        {
          "internalType": "address",
          "name": "voter",
          "type": "address"
        }
      ],
      "name": "hasVoted",
      "outputs": [
        {
          "internalType": "bool",
          "name": "",
          "type": "bool"
        }
      ],
      "stateMutability": "view",
      "type": "function"
    },
    {
      "inputs": [],
      "name": "identityRegistry",
      "outputs": [
        {
          "internalType": "contract IIdentityRegistry",
          "name": "",
          "type": "address"
        }
      ],
      "stateMutability": "view",
      "type": "function"
    },
    {
      "inputs": [
        {
          "internalType": "uint256",
          "name": "agentId",
          "type": "uint256"
        }
      ],
      "name": "voteDown",
      "outputs": [],
      "stateMutability": "nonpayable",
      "type": "function"
    },
    {
      "inputs": [
        {
          "internalType": "uint256",
          "name": "agentId",
          "type": "uint256"
        }
      ],
      "name": "voteUp",
      "outputs": [],
      "stateMutability": "nonpayable",
      "type": "function"
    }
  ],
  "bytecode": "0x60a060405234801561001057600080fd5b506040516106b23803806106b283398101604081905261002f91610040565b6001600160a01b0316608052610070565b60006020828403121561005257600080fd5b81516001600160a01b038116811461006957600080fd5b9392505050565b60805161061361009f60003960008181608701528181610181015281816101e3015261037101526106136000f3fe608060405234801561001057600080fd5b506004361061007d5760003560e01c80638a241f4c1161005b5780638a241f4c1461013d578063bc4d861b1461017f578063d4ebc5ff146101a5578063eda72b2e146101ba57600080fd5b8063134e18f41461008257806343859632146100c657806389370d8b1461010f575b600080fd5b6100a97f000000000000000000000000000000000000000000000000000000000000000081565b6040516001600160a01b0390911681526020015b60405180910390f35b6100ff6100d43660046104e2565b60009182526003602090815260408084206001600160a01b0393909316845291905290205460ff1690565b60405190151581526020016100bd565b61012f61011d36600461051e565b60009081526020819052604090205490565b6040519081526020016100bd565b61016a61014b36600461051e565b6000908152600160209081526040808320546002909252909120549091565b604080519283526020830191909152016100bd565b7f00000000000000000000000000000000000000000000000000000000000000006100a9565b6101b86101b336600461051e565b6101cd565b005b6101b86101c836600461051e565b61035b565b60405163de99f15760e01b8152600481018290527f00000000000000000000000000000000000000000000000000000000000000006001600160a01b03169063de99f15790602401602060405180830381865afa158015610232573d6000803e3d6000fd5b505050506040513d601f19601f820116820180604052508101906102569190610537565b6102735760405163e93ba22360e01b815260040160405180910390fd5b600081815260036020908152604080832033845290915290205460ff16156102ae57604051637c9a1cf960e01b815260040160405180910390fd5b60008181526003602090815260408083203384528252808320805460ff1916600190811790915584845290915281208054916102e983610576565b909155505060008181526020819052604081208054916103088361058f565b9091555050600081815260208181526040918290205482516001815291820152339183917f2efdb9a5f8b703b82d0207893c3efd5b83222282b72b418b6585e2f38721b94e91015b60405180910390a350565b60405163de99f15760e01b8152600481018290527f00000000000000000000000000000000000000000000000000000000000000006001600160a01b03169063de99f15790602401602060405180830381865afa1580156103c0573d6000803e3d6000fd5b505050506040513d601f19601f820116820180604052508101906103e49190610537565b6104015760405163e93ba22360e01b815260040160405180910390fd5b600081815260036020908152604080832033845290915290205460ff161561043c57604051637c9a1cf960e01b815260040160405180910390fd5b60008181526003602090815260408083203384528252808320805460ff191660011790558383526002909152812080549161047683610576565b90915550506000818152602081905260408120805491610495836105c0565b909155505060008181526020818152604080832054815193845291830191909152339183917f2efdb9a5f8b703b82d0207893c3efd5b83222282b72b418b6585e2f38721b94e9101610350565b600080604083850312156104f557600080fd5b8235915060208301356001600160a01b038116811461051357600080fd5b809150509250929050565b60006020828403121561053057600080fd5b5035919050565b60006020828403121561054957600080fd5b8151801515811461055957600080fd5b9392505050565b634e487b7160e01b600052601160045260246000fd5b60006001820161058857610588610560565b5060010190565b60007f7fffffffffffffffffffffffffffffffffffffffffffffffffffffffffffffff820361058857610588610560565b6000600160ff1b82016105d5576105d5610560565b50600019019056fea26469706673582212200145c221121cb9c5da6dc37b3c1161ad019555898f18f684ac5fbfefc1169e5164736f6c63430008130033",
  "linkReferences": {},
  "deployedLinkReferences": {}
}