{
  "_format": "hh-sol-artifact-1",
  "contractName": "ReputationRegistry",
  "sourceName": "contracts/ReputationRegistry.sol",
  "abi": [
    {
      "inputs": [
        {
          "internalType": "address",
          "name": "_identityRegistry",
          "type": "address"
        }
      ],
      "stateMutability": "nonpayable",
      "type": "constructor"
    },
    {
      "inputs": [],
      "name": "AgentNotFound",
      "type": "error"
    },
    {
      "inputs": [],
      "name": "FeedbackAlreadyAuthorized",
      "type": "error"
    },
    {
      "inputs": [],
      "name": "InvalidAgentId",
      "type": "error"
    },
    {
      "inputs": [],
      "name": "UnauthorizedFeedback",
      "type": "error"
    },
    {
      "anonymous": false,
      "inputs": [
        {
          "indexed": true,
          "internalType": "uint256",
          "name": "agentClientId",
          "type": "uint256"
        },
        {
          "indexed": true,
          "internalType": "uint256",
          "name": "agentServerId",
          "type": "uint256"
        },
        {
          "indexed": true,
          "internalType": "bytes32",
          "name": "feedbackAuthId",
          "type": "bytes32"
        }
      ],
      "name": "AuthFeedback",
      "type": "event"
    },
    {
      "inputs": [
        {
          "internalType": "uint256",
          "name": "agentClientId",
          "type": "uint256"
        },
        {
          "internalType": "uint256",
          "name": "agentServerId",
          "type": "uint256"
        }
      ],
      "name": "acceptFeedback",
      "outputs": [],
      "stateMutability": "nonpayable",
      "type": "function"
    },
    {
      "inputs": [
        {
          "internalType": "uint256",
          "name": "agentClientId",
          "type": "uint256"
        },
        {
          "internalType": "uint256",
          "name": "agentServerId",
          "type": "uint256"
        }
      ],
      "name": "getFeedbackAuthId",
      "outputs": [
        {
          "internalType": "bytes32",
          "name": "feedbackAuthId",
          "type": "bytes32"
        }
      ],
      "stateMutability": "view",
      "type": "function"
    },
    {
      "inputs": [],
      "name": "identityRegistry",
      "outputs": [
        {
          "internalType": "contract IIdentityRegistry",
          "name": "",
          "type": "address"
        }
      ],
      "stateMutability": "view",
      "type": "function"
    },
    {
      "inputs": [
        {
          "internalType": "uint256",
          "name": "agentClientId",
          "type": "uint256"
        },
        {
          "internalType": "uint256",
          "name": "agentServerId",
          "type": "uint256"
        }
      ],
      "name": "isFeedbackAuthorized",
      "outputs": [
        {
          "internalType": "bool",
          "name": "isAuthorized",
          "type": "bool"
        },
        {
          "internalType": "bytes32",
          "name": "feedbackAuthId",
          "type": "bytes32"
        }
      ],
      "stateMutability": "view",
      "type": "function"
    }
  ],
  "bytecode": "0x60a060405234801561001057600080fd5b506040516106e83803806106e883398101604081905261002f91610040565b6001600160a01b0316608052610070565b60006020828403121561005257600080fd5b81516001600160a01b038116811461006957600080fd5b9392505050565b60805161064961009f60003960008181605601528181610123015281816101c9015261027201526106496000f3fe608060405234801561001057600080fd5b506004361061004c5760003560e01c8063134e18f4146100515780638524d98814610095578063a9f94015146100aa578063aab206a3146100d4575b600080fd5b6100787f000000000000000000000000000000000000000000000000000000000000000081565b6040516001600160a01b0390911681526020015b60405180910390f35b6100a86100a336600461044c565b61010d565b005b6100bd6100b836600461044c565b61040c565b60408051921515835260208301919091520161008c565b6100ff6100e236600461044c565b600091825260016020908152604080842092845291905290205490565b60405190815260200161008c565b60405163de99f15760e01b8152600481018390527f00000000000000000000000000000000000000000000000000000000000000006001600160a01b03169063de99f15790602401602060405180830381865afa158015610172573d6000803e3d6000fd5b505050506040513d601f19601f82011682018060405250810190610196919061046e565b6101b35760405163e93ba22360e01b815260040160405180910390fd5b60405163de99f15760e01b8152600481018290527f00000000000000000000000000000000000000000000000000000000000000006001600160a01b03169063de99f15790602401602060405180830381865afa158015610218573d6000803e3d6000fd5b505050506040513d601f19601f8201168201806040525081019061023c919061046e565b6102595760405163e93ba22360e01b815260040160405180910390fd5b604051632de5aaf760e01b8152600481018290526000907f00000000000000000000000000000000000000000000000000000000000000006001600160a01b031690632de5aaf790602401600060405180830381865afa1580156102c1573d6000803e3d6000fd5b505050506040513d6000823e601f3d908101601f191682016040526102e99190810190610523565b905080604001516001600160a01b0316336001600160a01b031614610321576040516329f221b760e11b815260040160405180910390fd5b6000838152600160209081526040808320858452909152902054801561035a5760405163093898f360e31b815260040160405180910390fd5b6040805160208082018790528183018690524260608084019190915244608084015232901b6bffffffffffffffffffffffff191660a08301528251808303609401815260b49092018084528251928201929092206000818152808352848120805460ff1916600190811790915589825283528481208882529092529281208390558291869188917f875b92862bcb577e19434ed5238b2e5a1b58bd8606a26d1a414edf00eee18fd89190a45050505050565b60008281526001602090815260408083208484529091528120548015801590610443575060008181526020819052604090205460ff165b91509250929050565b6000806040838503121561045f57600080fd5b50508035926020909101359150565b60006020828403121561048057600080fd5b8151801515811461049057600080fd5b9392505050565b634e487b7160e01b600052604160045260246000fd5b6040516060810167ffffffffffffffff811182821017156104d0576104d0610497565b60405290565b604051601f8201601f1916810167ffffffffffffffff811182821017156104ff576104ff610497565b604052919050565b80516001600160a01b038116811461051e57600080fd5b919050565b6000602080838503121561053657600080fd5b825167ffffffffffffffff8082111561054e57600080fd5b908401906060828703121561056257600080fd5b61056a6104ad565b82518152838301518281111561057f57600080fd5b8301601f8101881361059057600080fd5b8051838111156105a2576105a2610497565b6105b4601f8201601f191687016104d6565b935080845288868284010111156105ca57600080fd5b60005b818110156105e85782810187015185820188015286016105cd565b5060008682860101525050818482015261060460408401610507565b6040820152969550505050505056fea2646970667358221220ce0d4c609a6f17f3249ea1ebe7205582330b85eca080469879d0719fe2becd9064736f6c63430008130033",
  "linkReferences": {},
  "deployedLinkReferences": {}
}